{
  "_format": "hh-sol-artifact-1",
  "contractName": "EventImplementation",
  "sourceName": "contracts/EventImplementation.sol",
  "abi": [
    {
      "inputs": [
        {
          "internalType": "address",
          "name": "sender",
          "type": "address"
        },
        {
          "internalType": "uint256",
          "name": "tokenId",
          "type": "uint256"
        },
        {
          "internalType": "address",
          "name": "owner",
          "type": "address"
        }
      ],
      "name": "ERC721IncorrectOwner",
      "type": "error"
    },
    {
      "inputs": [
        {
          "internalType": "address",
          "name": "operator",
          "type": "address"
        },
        {
          "internalType": "uint256",
          "name": "tokenId",
          "type": "uint256"
        }
      ],
      "name": "ERC721InsufficientApproval",
      "type": "error"
    },
    {
      "inputs": [
        {
          "internalType": "address",
          "name": "approver",
          "type": "address"
        }
      ],
      "name": "ERC721InvalidApprover",
      "type": "error"
    },
    {
      "inputs": [
        {
          "internalType": "address",
          "name": "operator",
          "type": "address"
        }
      ],
      "name": "ERC721InvalidOperator",
      "type": "error"
    },
    {
      "inputs": [
        {
          "internalType": "address",
          "name": "owner",
          "type": "address"
        }
      ],
      "name": "ERC721InvalidOwner",
      "type": "error"
    },
    {
      "inputs": [
        {
          "internalType": "address",
          "name": "receiver",
          "type": "address"
        }
      ],
      "name": "ERC721InvalidReceiver",
      "type": "error"
    },
    {
      "inputs": [
        {
          "internalType": "address",
          "name": "sender",
          "type": "address"
        }
      ],
      "name": "ERC721InvalidSender",
      "type": "error"
    },
    {
      "inputs": [
        {
          "internalType": "uint256",
          "name": "tokenId",
          "type": "uint256"
        }
      ],
      "name": "ERC721NonexistentToken",
      "type": "error"
    },
    {
      "inputs": [],
      "name": "InvalidInitialization",
      "type": "error"
    },
    {
      "inputs": [],
      "name": "NotInitializing",
      "type": "error"
    },
    {
      "inputs": [
        {
          "internalType": "address",
          "name": "owner",
          "type": "address"
        }
      ],
      "name": "OwnableInvalidOwner",
      "type": "error"
    },
    {
      "inputs": [
        {
          "internalType": "address",
          "name": "account",
          "type": "address"
        }
      ],
      "name": "OwnableUnauthorizedAccount",
      "type": "error"
    },
    {
      "anonymous": false,
      "inputs": [
        {
          "indexed": true,
          "internalType": "address",
          "name": "owner",
          "type": "address"
        },
        {
          "indexed": true,
          "internalType": "address",
          "name": "approved",
          "type": "address"
        },
        {
          "indexed": true,
          "internalType": "uint256",
          "name": "tokenId",
          "type": "uint256"
        }
      ],
      "name": "Approval",
      "type": "event"
    },
    {
      "anonymous": false,
      "inputs": [
        {
          "indexed": true,
          "internalType": "address",
          "name": "owner",
          "type": "address"
        },
        {
          "indexed": true,
          "internalType": "address",
          "name": "operator",
          "type": "address"
        },
        {
          "indexed": false,
          "internalType": "bool",
          "name": "approved",
          "type": "bool"
        }
      ],
      "name": "ApprovalForAll",
      "type": "event"
    },
    {
      "anonymous": false,
      "inputs": [
        {
          "indexed": false,
          "internalType": "uint256",
          "name": "_fromTokenId",
          "type": "uint256"
        },
        {
          "indexed": false,
          "internalType": "uint256",
          "name": "_toTokenId",
          "type": "uint256"
        }
      ],
      "name": "BatchMetadataUpdate",
      "type": "event"
    },
    {
      "anonymous": false,
      "inputs": [
        {
          "indexed": false,
          "internalType": "uint256",
          "name": "participantCount",
          "type": "uint256"
        },
        {
          "indexed": false,
          "internalType": "uint256",
          "name": "rewardCount",
          "type": "uint256"
        }
      ],
      "name": "EventStarted",
      "type": "event"
    },
    {
      "anonymous": false,
      "inputs": [
        {
          "indexed": false,
          "internalType": "uint64",
          "name": "version",
          "type": "uint64"
        }
      ],
      "name": "Initialized",
      "type": "event"
    },
    {
      "anonymous": false,
      "inputs": [
        {
          "indexed": false,
          "internalType": "uint256",
          "name": "_tokenId",
          "type": "uint256"
        }
      ],
      "name": "MetadataUpdate",
      "type": "event"
    },
    {
      "anonymous": false,
      "inputs": [
        {
          "indexed": true,
          "internalType": "address",
          "name": "recipient",
          "type": "address"
        },
        {
          "indexed": false,
          "internalType": "uint256",
          "name": "tokenId",
          "type": "uint256"
        },
        {
          "indexed": false,
          "internalType": "string",
          "name": "metadataCID",
          "type": "string"
        }
      ],
      "name": "NFTMinted",
      "type": "event"
    },
    {
      "anonymous": false,
      "inputs": [
        {
          "indexed": true,
          "internalType": "address",
          "name": "previousOwner",
          "type": "address"
        },
        {
          "indexed": true,
          "internalType": "address",
          "name": "newOwner",
          "type": "address"
        }
      ],
      "name": "OwnershipTransferStarted",
      "type": "event"
    },
    {
      "anonymous": false,
      "inputs": [
        {
          "indexed": true,
          "internalType": "address",
          "name": "previousOwner",
          "type": "address"
        },
        {
          "indexed": true,
          "internalType": "address",
          "name": "newOwner",
          "type": "address"
        }
      ],
      "name": "OwnershipTransferred",
      "type": "event"
    },
    {
      "anonymous": false,
      "inputs": [
        {
          "indexed": true,
          "internalType": "address",
          "name": "participant",
          "type": "address"
        }
      ],
      "name": "ParticipantRegistered",
      "type": "event"
    },
    {
      "anonymous": false,
      "inputs": [
        {
          "indexed": true,
          "internalType": "address",
          "name": "participant",
          "type": "address"
        },
        {
          "indexed": false,
          "internalType": "address",
          "name": "scannedPerson",
          "type": "address"
        },
        {
          "indexed": false,
          "internalType": "uint256",
          "name": "newScanCount",
          "type": "uint256"
        }
      ],
      "name": "ScanRecorded",
      "type": "event"
    },
    {
      "anonymous": false,
      "inputs": [
        {
          "indexed": true,
          "internalType": "address",
          "name": "from",
          "type": "address"
        },
        {
          "indexed": true,
          "internalType": "address",
          "name": "to",
          "type": "address"
        },
        {
          "indexed": true,
          "internalType": "uint256",
          "name": "tokenId",
          "type": "uint256"
        }
      ],
      "name": "Transfer",
      "type": "event"
    },
    {
      "inputs": [],
      "name": "acceptOwnership",
      "outputs": [],
      "stateMutability": "nonpayable",
      "type": "function"
    },
    {
      "inputs": [
        {
          "internalType": "address",
          "name": "to",
          "type": "address"
        },
        {
          "internalType": "uint256",
          "name": "tokenId",
          "type": "uint256"
        }
      ],
      "name": "approve",
      "outputs": [],
      "stateMutability": "nonpayable",
      "type": "function"
    },
    {
      "inputs": [
        {
          "internalType": "address",
          "name": "owner",
          "type": "address"
        }
      ],
      "name": "balanceOf",
      "outputs": [
        {
          "internalType": "uint256",
          "name": "",
          "type": "uint256"
        }
      ],
      "stateMutability": "view",
      "type": "function"
    },
    {
      "inputs": [],
      "name": "eventData",
      "outputs": [
        {
          "internalType": "string",
          "name": "name",
          "type": "string"
        },
        {
          "internalType": "string",
          "name": "description",
          "type": "string"
        },
        {
          "internalType": "string",
          "name": "location",
          "type": "string"
        },
        {
          "internalType": "uint256",
          "name": "participantLimit",
          "type": "uint256"
        },
        {
          "internalType": "uint256",
          "name": "registeredParticipants",
          "type": "uint256"
        },
        {
          "internalType": "uint256",
          "name": "startDate",
          "type": "uint256"
        },
        {
          "internalType": "uint256",
          "name": "rewardCount",
          "type": "uint256"
        },
        {
          "internalType": "string",
          "name": "baseUri",
          "type": "string"
        }
      ],
      "stateMutability": "view",
      "type": "function"
    },
    {
      "inputs": [],
      "name": "eventStarted",
      "outputs": [
        {
          "internalType": "bool",
          "name": "",
          "type": "bool"
        }
      ],
      "stateMutability": "view",
      "type": "function"
    },
    {
      "inputs": [
        {
          "internalType": "uint256",
          "name": "tokenId",
          "type": "uint256"
        }
      ],
      "name": "getApproved",
      "outputs": [
        {
          "internalType": "address",
          "name": "",
          "type": "address"
        }
      ],
      "stateMutability": "view",
      "type": "function"
    },
    {
      "inputs": [],
      "name": "getMilestones",
      "outputs": [
        {
          "internalType": "uint256[]",
          "name": "",
          "type": "uint256[]"
        }
      ],
      "stateMutability": "view",
      "type": "function"
    },
    {
      "inputs": [
        {
          "internalType": "address",
          "name": "creator",
          "type": "address"
        },
        {
          "components": [
            {
              "internalType": "string",
              "name": "name",
              "type": "string"
            },
            {
              "internalType": "string",
              "name": "description",
              "type": "string"
            },
            {
              "internalType": "string",
              "name": "location",
              "type": "string"
            },
            {
              "internalType": "uint256",
              "name": "participantLimit",
              "type": "uint256"
            },
            {
              "internalType": "uint256",
              "name": "registeredParticipants",
              "type": "uint256"
            },
            {
              "internalType": "uint256",
              "name": "startDate",
              "type": "uint256"
            },
            {
              "internalType": "uint256",
              "name": "rewardCount",
              "type": "uint256"
            },
            {
              "internalType": "string",
              "name": "baseUri",
              "type": "string"
            }
          ],
          "internalType": "struct EventImplementation.EventData",
          "name": "_eventData",
          "type": "tuple"
        }
      ],
      "name": "initialize",
      "outputs": [],
      "stateMutability": "nonpayable",
      "type": "function"
    },
    {
      "inputs": [
        {
          "internalType": "address",
          "name": "owner",
          "type": "address"
        },
        {
          "internalType": "address",
          "name": "operator",
          "type": "address"
        }
      ],
      "name": "isApprovedForAll",
      "outputs": [
        {
          "internalType": "bool",
          "name": "",
          "type": "bool"
        }
      ],
      "stateMutability": "view",
      "type": "function"
    },
    {
      "inputs": [
        {
          "internalType": "address",
          "name": "",
          "type": "address"
        }
      ],
      "name": "isParticipant",
      "outputs": [
        {
          "internalType": "bool",
          "name": "",
          "type": "bool"
        }
      ],
      "stateMutability": "view",
      "type": "function"
    },
    {
      "inputs": [
        {
          "internalType": "uint256",
          "name": "",
          "type": "uint256"
        }
      ],
      "name": "milestoneMap",
      "outputs": [
        {
          "internalType": "uint256",
          "name": "",
          "type": "uint256"
        }
      ],
      "stateMutability": "view",
      "type": "function"
    },
    {
      "inputs": [],
      "name": "mintNFT",
      "outputs": [],
      "stateMutability": "nonpayable",
      "type": "function"
    },
    {
      "inputs": [],
      "name": "name",
      "outputs": [
        {
          "internalType": "string",
          "name": "",
          "type": "string"
        }
      ],
      "stateMutability": "view",
      "type": "function"
    },
    {
      "inputs": [],
      "name": "owner",
      "outputs": [
        {
          "internalType": "address",
          "name": "",
          "type": "address"
        }
      ],
      "stateMutability": "view",
      "type": "function"
    },
    {
      "inputs": [
        {
          "internalType": "uint256",
          "name": "tokenId",
          "type": "uint256"
        }
      ],
      "name": "ownerOf",
      "outputs": [
        {
          "internalType": "address",
          "name": "",
          "type": "address"
        }
      ],
      "stateMutability": "view",
      "type": "function"
    },
    {
      "inputs": [],
      "name": "pendingOwner",
      "outputs": [
        {
          "internalType": "address",
          "name": "",
          "type": "address"
        }
      ],
      "stateMutability": "view",
      "type": "function"
    },
    {
      "inputs": [
        {
          "internalType": "address",
          "name": "scannedPerson",
          "type": "address"
        }
      ],
      "name": "recordScan",
      "outputs": [],
      "stateMutability": "nonpayable",
      "type": "function"
    },
    {
      "inputs": [],
      "name": "registerParticipant",
      "outputs": [],
      "stateMutability": "nonpayable",
      "type": "function"
    },
    {
      "inputs": [],
      "name": "renounceOwnership",
      "outputs": [],
      "stateMutability": "nonpayable",
      "type": "function"
    },
    {
      "inputs": [
        {
          "internalType": "address",
          "name": "from",
          "type": "address"
        },
        {
          "internalType": "address",
          "name": "to",
          "type": "address"
        },
        {
          "internalType": "uint256",
          "name": "tokenId",
          "type": "uint256"
        }
      ],
      "name": "safeTransferFrom",
      "outputs": [],
      "stateMutability": "nonpayable",
      "type": "function"
    },
    {
      "inputs": [
        {
          "internalType": "address",
          "name": "from",
          "type": "address"
        },
        {
          "internalType": "address",
          "name": "to",
          "type": "address"
        },
        {
          "internalType": "uint256",
          "name": "tokenId",
          "type": "uint256"
        },
        {
          "internalType": "bytes",
          "name": "data",
          "type": "bytes"
        }
      ],
      "name": "safeTransferFrom",
      "outputs": [],
      "stateMutability": "nonpayable",
      "type": "function"
    },
    {
      "inputs": [
        {
          "internalType": "address",
          "name": "",
          "type": "address"
        }
      ],
      "name": "scanCount",
      "outputs": [
        {
          "internalType": "uint256",
          "name": "",
          "type": "uint256"
        }
      ],
      "stateMutability": "view",
      "type": "function"
    },
    {
      "inputs": [
        {
          "internalType": "address",
          "name": "operator",
          "type": "address"
        },
        {
          "internalType": "bool",
          "name": "approved",
          "type": "bool"
        }
      ],
      "name": "setApprovalForAll",
      "outputs": [],
      "stateMutability": "nonpayable",
      "type": "function"
    },
    {
      "inputs": [],
      "name": "startEvent",
      "outputs": [],
      "stateMutability": "nonpayable",
      "type": "function"
    },
    {
      "inputs": [
        {
          "internalType": "bytes4",
          "name": "interfaceId",
          "type": "bytes4"
        }
      ],
      "name": "supportsInterface",
      "outputs": [
        {
          "internalType": "bool",
          "name": "",
          "type": "bool"
        }
      ],
      "stateMutability": "view",
      "type": "function"
    },
    {
      "inputs": [],
      "name": "symbol",
      "outputs": [
        {
          "internalType": "string",
          "name": "",
          "type": "string"
        }
      ],
      "stateMutability": "view",
      "type": "function"
    },
    {
      "inputs": [
        {
          "internalType": "uint256",
          "name": "tokenId",
          "type": "uint256"
        }
      ],
      "name": "tokenURI",
      "outputs": [
        {
          "internalType": "string",
          "name": "",
          "type": "string"
        }
      ],
      "stateMutability": "view",
      "type": "function"
    },
    {
      "inputs": [
        {
          "internalType": "address",
          "name": "from",
          "type": "address"
        },
        {
          "internalType": "address",
          "name": "to",
          "type": "address"
        },
        {
          "internalType": "uint256",
          "name": "tokenId",
          "type": "uint256"
        }
      ],
      "name": "transferFrom",
      "outputs": [],
      "stateMutability": "nonpayable",
      "type": "function"
    },
    {
      "inputs": [
        {
          "internalType": "address",
          "name": "newOwner",
          "type": "address"
        }
      ],
      "name": "transferOwnership",
      "outputs": [],
      "stateMutability": "nonpayable",
      "type": "function"
    }
  ],
  "bytecode": "0x608060405234801561001057600080fd5b506129d4806100206000396000f3fe608060405234801561001057600080fd5b50600436106101cf5760003560e01c8063715018a611610104578063c87b56dd116100a2578063e985e9c511610071578063e985e9c5146103b8578063f2fde38b14610413578063fc7ce1cc14610426578063ffcecdef1461044657600080fd5b8063c87b56dd1461038d578063ccfc811b146103a0578063e2fd38e9146103a8578063e30c3978146103b057600080fd5b8063929066f5116100de578063929066f51461033c57806395d89b411461035f578063a22cb46514610367578063b88d4fde1461037a57600080fd5b8063715018a61461032457806379ba50971461032c5780638da5cb5b1461033457600080fd5b806330af5c561161017157806342842e0e1161014b57806342842e0e146102d6578063629e4ed0146102e95780636352211e146102fe57806370a082311461031157600080fd5b806330af5c5614610288578063328e2ad81461029557806335dc7e02146102a857600080fd5b8063095ea7b3116101ad578063095ea7b31461023c57806314f710fe1461025157806323b872dd14610259578063254641e41461026c57600080fd5b806301ffc9a7146101d457806306fdde03146101fc578063081812fc14610211575b600080fd5b6101e76101e2366004612086565b610459565b60405190151581526020015b60405180910390f35b61020461049d565b6040516101f391906120f3565b61022461021f366004612106565b610553565b6040516001600160a01b0390911681526020016101f3565b61024f61024a36600461213b565b61059b565b005b61024f6105aa565b61024f610267366004612165565b610769565b61027461080d565b6040516101f39897969594939291906121a1565b6001546101e79060ff1681565b61024f6102a3366004612218565b610a61565b6102c86102b6366004612218565b600a6020526000908152604090205481565b6040519081526020016101f3565b61024f6102e4366004612165565b610bee565b6102f1610c0e565b6040516101f39190612233565b61022461030c366004612106565b610cb4565b6102c861031f366004612218565b610cbf565b61024f610d46565b61024f610d5a565b610224610da2565b6101e761034a366004612218565b600c6020526000908152604090205460ff1681565b610204610dd7565b61024f610375366004612277565b610e28565b61024f6103883660046122c9565b610e33565b61020461039b366004612106565b610e4b565b61024f610f80565b61024f611098565b610224611230565b6101e76103c63660046123a5565b6001600160a01b0391821660009081527f80bb2b638cc20bc4d0a60d66940f3ab4a00c1d7b313497ca82fb0b4ab00793056020908152604080832093909416825291909152205460ff1690565b61024f610421366004612218565b611259565b6102c8610434366004612106565b600b6020526000908152604090205481565b61024f6104543660046123d8565b6112de565b60006001600160e01b031982167f490649060000000000000000000000000000000000000000000000000000000014806104975750610497826114af565b92915050565b7f80bb2b638cc20bc4d0a60d66940f3ab4a00c1d7b313497ca82fb0b4ab007930080546060919081906104cf90612423565b80601f01602080910402602001604051908101604052809291908181526020018280546104fb90612423565b80156105485780601f1061051d57610100808354040283529160200191610548565b820191906000526020600020905b81548152906001019060200180831161052b57829003601f168201915b505050505091505090565b600061055e8261154a565b5060008281527f80bb2b638cc20bc4d0a60d66940f3ab4a00c1d7b313497ca82fb0b4ab007930460205260409020546001600160a01b0316610497565b6105a68282336115a2565b5050565b60015460ff166106015760405162461bcd60e51b815260206004820152601560248201527f4576656e7420686173206e6f742073746172746564000000000000000000000060448201526064015b60405180910390fd5b600854600054106106545760405162461bcd60e51b815260206004820152601260248201527f416c6c2072657761726473206d696e746564000000000000000000000000000060448201526064016105f8565b60008054610663906001612473565b6000818152600b6020908152604080832054338452600a9092529091205491925011156106d25760405162461bcd60e51b815260206004820152601560248201527f4d696c6573746f6e65206e6f742072656163686564000000000000000000000060448201526064016105f8565b6040516000906106e9906009908490602001612486565b604051602081830303815290604052905061070433836115af565b61070e82826115c9565b60008054908061071d83612527565b9190505550336001600160a01b03167fd35bb95e09c04b219e35047ce7b7b300e3384264ef84a40456943dbc0fc17c14838360405161075d929190612540565b60405180910390a25050565b6001600160a01b03821661079357604051633250574960e11b8152600060048201526024016105f8565b60006107a083833361163c565b9050836001600160a01b0316816001600160a01b031614610807576040517f64283d7b0000000000000000000000000000000000000000000000000000000081526001600160a01b03808616600483015260248201849052821660448201526064016105f8565b50505050565b60028054819061081c90612423565b80601f016020809104026020016040519081016040528092919081815260200182805461084890612423565b80156108955780601f1061086a57610100808354040283529160200191610895565b820191906000526020600020905b81548152906001019060200180831161087857829003601f168201915b5050505050908060010180546108aa90612423565b80601f01602080910402602001604051908101604052809291908181526020018280546108d690612423565b80156109235780601f106108f857610100808354040283529160200191610923565b820191906000526020600020905b81548152906001019060200180831161090657829003601f168201915b50505050509080600201805461093890612423565b80601f016020809104026020016040519081016040528092919081815260200182805461096490612423565b80156109b15780601f10610986576101008083540402835291602001916109b1565b820191906000526020600020905b81548152906001019060200180831161099457829003601f168201915b5050505050908060030154908060040154908060050154908060060154908060070180546109de90612423565b80601f0160208091040260200160405190810160405280929190818152602001828054610a0a90612423565b8015610a575780601f10610a2c57610100808354040283529160200191610a57565b820191906000526020600020905b815481529060010190602001808311610a3a57829003601f168201915b5050505050905088565b60015460ff16610ab35760405162461bcd60e51b815260206004820152601560248201527f4576656e7420686173206e6f742073746172746564000000000000000000000060448201526064016105f8565b6001600160a01b0381166000908152600c602052604090205460ff16610b1b5760405162461bcd60e51b815260206004820152601c60248201527f4e6f7420612072656769737465726564207061727469636970616e740000000060448201526064016105f8565b336000908152600c602052604090205460ff16610b7a5760405162461bcd60e51b815260206004820152601760248201527f596f752068617665206e6f74207265676973746572656400000000000000000060448201526064016105f8565b336000908152600a60205260408120805491610b9583612527565b9091555050336000818152600a60209081526040918290205482516001600160a01b0386168152918201527fd816c1317974b7515c519592c000a2daceb2c3438eccdde21317ce4f1e4dac72910160405180910390a250565b610c0983838360405180602001604052806000815250610e33565b505050565b60085460609060008167ffffffffffffffff811115610c2f57610c2f6122b3565b604051908082528060200260200182016040528015610c58578160200160208202803683370190505b50905060015b828111610cad576000818152600b602052604090205482610c80600184612559565b81518110610c9057610c9061256c565b602090810291909101015280610ca581612527565b915050610c5e565b5092915050565b60006104978261154a565b60007f80bb2b638cc20bc4d0a60d66940f3ab4a00c1d7b313497ca82fb0b4ab00793006001600160a01b038316610d25576040517f89c62b64000000000000000000000000000000000000000000000000000000008152600060048201526024016105f8565b6001600160a01b039092166000908152600390920160205250604090205490565b610d4e61177d565b610d5860006117af565b565b3380610d64611230565b6001600160a01b031614610d965760405163118cdaa760e01b81526001600160a01b03821660048201526024016105f8565b610d9f816117af565b50565b6000807f9016d09d72d40fdae2fd8ceac6b6234c7706214fd39c1cd1e609a0528c1993005b546001600160a01b031692915050565b7f80bb2b638cc20bc4d0a60d66940f3ab4a00c1d7b313497ca82fb0b4ab007930180546060917f80bb2b638cc20bc4d0a60d66940f3ab4a00c1d7b313497ca82fb0b4ab0079300916104cf90612423565b6105a63383836117e7565b610e3e848484610769565b61080733858585856118c3565b60607f0542a41881ee128a365a727b282c86fa859579490b9bb45aab8503648c8e7900610e778361154a565b5060008381526020829052604081208054610e9190612423565b80601f0160208091040260200160405190810160405280929190818152602001828054610ebd90612423565b8015610f0a5780601f10610edf57610100808354040283529160200191610f0a565b820191906000526020600020905b815481529060010190602001808311610eed57829003601f168201915b505050505090506000610f2860408051602081019091526000815290565b90508051600003610f3b57509392505050565b815115610f6e578082604051602001610f55929190612582565b6040516020818303038152906040529350505050919050565b610f77856119ee565b95945050505050565b336000908152600c602052604090205460ff1615610fe05760405162461bcd60e51b815260206004820152601260248201527f416c72656164792072656769737465726564000000000000000000000000000060448201526064016105f8565b6005541580610ff25750600554600654105b61103e5760405162461bcd60e51b815260206004820152601960248201527f5061727469636970616e74206c696d697420726561636865640000000000000060448201526064016105f8565b336000908152600c60205260408120805460ff19166001179055600680549161106683612527565b909155505060405133907fe11711cd714e06fbbbea301a8e90822f2f2ea4808e37e3adf06038f33c53ff2790600090a2565b6110a061177d565b60015460ff16156110f35760405162461bcd60e51b815260206004820152601560248201527f4576656e7420616c72656164792073746172746564000000000000000000000060448201526064016105f8565b6006546111425760405162461bcd60e51b815260206004820152601a60248201527f4e6f207061727469636970616e7473207265676973746572656400000000000060448201526064016105f8565b6008546111915760405162461bcd60e51b815260206004820152601460248201527f496e76616c69642072657761726420636f756e7400000000000000000000000060448201526064016105f8565b6001805460ff1916811781555b60085481116111e857600854600654600091906111bc9084906125b1565b6111c691906125c8565b6000838152600b602052604090205550806111e081612527565b91505061119e565b506006546008546040517fcdf6c28a86381a4594f050e71e25ccded91501eb62c54f8f38f4e1de3f5a3fa79261122692908252602082015260400190565b60405180910390a1565b6000807f237e158222e3e6968b72b9db0d8043aacf074ad9f650f0d1606b4d82ee432c00610dc7565b61126161177d565b7f237e158222e3e6968b72b9db0d8043aacf074ad9f650f0d1606b4d82ee432c0080546001600160a01b0319166001600160a01b03831690811782556112a5610da2565b6001600160a01b03167f38d16b8cac22d99fc7c124b9cd0de2d3fa1faef420bfe791d8c362d765e2270060405160405180910390a35050565b7ff0c57e16840df040f15088dc2f81fe391c3923bec73e23a9662efc9c229c6a00805468010000000000000000810460ff16159067ffffffffffffffff166000811580156113295750825b905060008267ffffffffffffffff1660011480156113465750303b155b905081158015611354575080155b1561138b576040517ff92ee8a900000000000000000000000000000000000000000000000000000000815260040160405180910390fd5b845467ffffffffffffffff1916600117855583156113bf57845468ff00000000000000001916680100000000000000001785555b6113c7611a63565b6114436113d487806125ea565b8080601f0160208091040260200160405190810160405280939291908181526020018383808284376000920191909152505060408051808201909152600381527f4d594b000000000000000000000000000000000000000000000000000000000060208201529150611a6b9050565b61144c876117af565b8560026114598282612740565b505083156114a657845468ff000000000000000019168555604051600181527fc7f505b2f371ae2175ee4913f4499e1f2633a7b5936321eed1cdaeb6115181d29060200160405180910390a15b50505050505050565b60006001600160e01b031982167f80ac58cd00000000000000000000000000000000000000000000000000000000148061151257506001600160e01b031982167f5b5e139f00000000000000000000000000000000000000000000000000000000145b8061049757507f01ffc9a7000000000000000000000000000000000000000000000000000000006001600160e01b0319831614610497565b60008181527f80bb2b638cc20bc4d0a60d66940f3ab4a00c1d7b313497ca82fb0b4ab007930260205260408120546001600160a01b03168061049757604051637e27328960e01b8152600481018490526024016105f8565b610c098383836001611a7d565b6105a6828260405180602001604052806000815250611bfc565b60008281527f0542a41881ee128a365a727b282c86fa859579490b9bb45aab8503648c8e7900602081905260409091206116038382612885565b506040518381527ff8e1a15aba9398e019f0b49df1a4fde98ee17ae345cb5f6b5e2c27f5033e8ce79060200160405180910390a1505050565b60008281527f80bb2b638cc20bc4d0a60d66940f3ab4a00c1d7b313497ca82fb0b4ab007930260205260408120547f80bb2b638cc20bc4d0a60d66940f3ab4a00c1d7b313497ca82fb0b4ab0079300906001600160a01b03908116908416156116aa576116aa818587611c14565b6001600160a01b038116156116ea576116c7600086600080611a7d565b6001600160a01b0381166000908152600383016020526040902080546000190190555b6001600160a01b0386161561171b576001600160a01b03861660009081526003830160205260409020805460010190555b600085815260028301602052604080822080546001600160a01b0319166001600160a01b038a811691821790925591518893918516917fddf252ad1be2c89b69c2b068fc378daa952ba7f163c4a11628f55a4df523b3ef91a495945050505050565b33611786610da2565b6001600160a01b031614610d585760405163118cdaa760e01b81523360048201526024016105f8565b7f237e158222e3e6968b72b9db0d8043aacf074ad9f650f0d1606b4d82ee432c0080546001600160a01b03191681556105a682611c91565b7f80bb2b638cc20bc4d0a60d66940f3ab4a00c1d7b313497ca82fb0b4ab00793006001600160a01b038316611853576040517f5b08ba180000000000000000000000000000000000000000000000000000000081526001600160a01b03841660048201526024016105f8565b6001600160a01b038481166000818152600584016020908152604080832094881680845294825291829020805460ff191687151590811790915591519182527f17307eab39ab6107e8899845ad3d59bd9653f200f220920489ca2b5937696c31910160405180910390a350505050565b6001600160a01b0383163b156119e757604051630a85bd0160e11b81526001600160a01b0384169063150b7a0290611905908890889087908790600401612945565b6020604051808303816000875af1925050508015611940575060408051601f3d908101601f1916820190925261193d91810190612981565b60015b6119a9573d80801561196e576040519150601f19603f3d011682016040523d82523d6000602084013e611973565b606091505b5080516000036119a157604051633250574960e11b81526001600160a01b03851660048201526024016105f8565b805181602001fd5b6001600160e01b03198116630a85bd0160e11b146119e557604051633250574960e11b81526001600160a01b03851660048201526024016105f8565b505b5050505050565b60606119f98261154a565b506000611a1160408051602081019091526000815290565b90506000815111611a315760405180602001604052806000815250611a5c565b80611a3b84611d02565b604051602001611a4c929190612582565b6040516020818303038152906040525b9392505050565b610d58611da2565b611a73611da2565b6105a68282611e09565b7f80bb2b638cc20bc4d0a60d66940f3ab4a00c1d7b313497ca82fb0b4ab00793008180611ab257506001600160a01b03831615155b15611bcb576000611ac28561154a565b90506001600160a01b03841615801590611aee5750836001600160a01b0316816001600160a01b031614155b8015611b3f57506001600160a01b0380821660009081527f80bb2b638cc20bc4d0a60d66940f3ab4a00c1d7b313497ca82fb0b4ab0079305602090815260408083209388168352929052205460ff16155b15611b81576040517fa9fbf51f0000000000000000000000000000000000000000000000000000000081526001600160a01b03851660048201526024016105f8565b8215611bc95784866001600160a01b0316826001600160a01b03167f8c5be1e5ebec7d5bd14f71427d1e84f3dd0314c0f7b2291e5b200ac8c7c3b92560405160405180910390a45b505b600093845260040160205250506040902080546001600160a01b0319166001600160a01b0392909216919091179055565b611c068383611e4c565b610c093360008585856118c3565b611c1f838383611eca565b610c09576001600160a01b038316611c4d57604051637e27328960e01b8152600481018290526024016105f8565b6040517f177e802f0000000000000000000000000000000000000000000000000000000081526001600160a01b0383166004820152602481018290526044016105f8565b7f9016d09d72d40fdae2fd8ceac6b6234c7706214fd39c1cd1e609a0528c19930080546001600160a01b031981166001600160a01b03848116918217845560405192169182907f8be0079c531659141344cd1fd0a4f28419497f9722a3daafe3b4186f6b6457e090600090a3505050565b60606000611d0f83611f8e565b600101905060008167ffffffffffffffff811115611d2f57611d2f6122b3565b6040519080825280601f01601f191660200182016040528015611d59576020820181803683370190505b5090508181016020015b600019017f3031323334353637383961626364656600000000000000000000000000000000600a86061a8153600a8504945084611d6357509392505050565b7ff0c57e16840df040f15088dc2f81fe391c3923bec73e23a9662efc9c229c6a005468010000000000000000900460ff16610d58576040517fd7e6bcf800000000000000000000000000000000000000000000000000000000815260040160405180910390fd5b611e11611da2565b7f80bb2b638cc20bc4d0a60d66940f3ab4a00c1d7b313497ca82fb0b4ab007930080611e3d8482612885565b50600181016108078382612885565b6001600160a01b038216611e7657604051633250574960e11b8152600060048201526024016105f8565b6000611e848383600061163c565b90506001600160a01b03811615610c09576040517f73c6ac6e000000000000000000000000000000000000000000000000000000008152600060048201526024016105f8565b60006001600160a01b03831615801590611f865750826001600160a01b0316846001600160a01b03161480611f4357506001600160a01b0380851660009081527f80bb2b638cc20bc4d0a60d66940f3ab4a00c1d7b313497ca82fb0b4ab0079305602090815260408083209387168352929052205460ff165b80611f86575060008281527f80bb2b638cc20bc4d0a60d66940f3ab4a00c1d7b313497ca82fb0b4ab007930460205260409020546001600160a01b038481169116145b949350505050565b6000807a184f03e93ff9f4daa797ed6e38ed64bf6a1f0100000000000000008310611fd7577a184f03e93ff9f4daa797ed6e38ed64bf6a1f010000000000000000830492506040015b6d04ee2d6d415b85acef81000000008310612003576d04ee2d6d415b85acef8100000000830492506020015b662386f26fc10000831061202157662386f26fc10000830492506010015b6305f5e1008310612039576305f5e100830492506008015b612710831061204d57612710830492506004015b6064831061205f576064830492506002015b600a83106104975760010192915050565b6001600160e01b031981168114610d9f57600080fd5b60006020828403121561209857600080fd5b8135611a5c81612070565b60005b838110156120be5781810151838201526020016120a6565b50506000910152565b600081518084526120df8160208601602086016120a3565b601f01601f19169290920160200192915050565b602081526000611a5c60208301846120c7565b60006020828403121561211857600080fd5b5035919050565b80356001600160a01b038116811461213657600080fd5b919050565b6000806040838503121561214e57600080fd5b6121578361211f565b946020939093013593505050565b60008060006060848603121561217a57600080fd5b6121838461211f565b92506121916020850161211f565b9150604084013590509250925092565b60006101008083526121b58184018c6120c7565b905082810360208401526121c9818b6120c7565b905082810360408401526121dd818a6120c7565b90508760608401528660808401528560a08401528460c084015282810360e084015261220981856120c7565b9b9a5050505050505050505050565b60006020828403121561222a57600080fd5b611a5c8261211f565b6020808252825182820181905260009190848201906040850190845b8181101561226b5783518352928401929184019160010161224f565b50909695505050505050565b6000806040838503121561228a57600080fd5b6122938361211f565b9150602083013580151581146122a857600080fd5b809150509250929050565b634e487b7160e01b600052604160045260246000fd5b600080600080608085870312156122df57600080fd5b6122e88561211f565b93506122f66020860161211f565b925060408501359150606085013567ffffffffffffffff8082111561231a57600080fd5b818701915087601f83011261232e57600080fd5b813581811115612340576123406122b3565b604051601f8201601f19908116603f01168101908382118183101715612368576123686122b3565b816040528281528a602084870101111561238157600080fd5b82602086016020830137600060208483010152809550505050505092959194509250565b600080604083850312156123b857600080fd5b6123c18361211f565b91506123cf6020840161211f565b90509250929050565b600080604083850312156123eb57600080fd5b6123f48361211f565b9150602083013567ffffffffffffffff81111561241057600080fd5b830161010081860312156122a857600080fd5b600181811c9082168061243757607f821691505b60208210810361245757634e487b7160e01b600052602260045260246000fd5b50919050565b634e487b7160e01b600052601160045260246000fd5b808201808211156104975761049761245d565b600080845461249481612423565b600182811680156124ac57600181146124c1576124f0565b60ff19841687528215158302870194506124f0565b8860005260208060002060005b858110156124e75781548a8201529084019082016124ce565b50505082870194505b5050509381527f2e6a736f6e0000000000000000000000000000000000000000000000000000006020820152602501949350505050565b6000600182016125395761253961245d565b5060010190565b828152604060208201526000611f8660408301846120c7565b818103818111156104975761049761245d565b634e487b7160e01b600052603260045260246000fd5b600083516125948184602088016120a3565b8351908301906125a88183602088016120a3565b01949350505050565b80820281158282048414176104975761049761245d565b6000826125e557634e487b7160e01b600052601260045260246000fd5b500490565b6000808335601e1984360301811261260157600080fd5b83018035915067ffffffffffffffff82111561261c57600080fd5b60200191503681900382131561263157600080fd5b9250929050565b601f821115610c09576000816000526020600020601f850160051c810160208610156126615750805b601f850160051c820191505b818110156119e55782815560010161266d565b67ffffffffffffffff831115612698576126986122b3565b6126ac836126a68354612423565b83612638565b6000601f8411600181146126e057600085156126c85750838201355b600019600387901b1c1916600186901b1783556119e7565b600083815260209020601f19861690835b8281101561271157868501358255602094850194600190920191016126f1565b508682101561272e5760001960f88860031b161c19848701351681555b505060018560011b0183555050505050565b61274a82836125ea565b67ffffffffffffffff811115612762576127626122b3565b612776816127708554612423565b85612638565b6000601f8211600181146127aa57600083156127925750838201355b600019600385901b1c1916600184901b178555612804565b600085815260209020601f19841690835b828110156127db57868501358255602094850194600190920191016127bb565b50848210156127f85760001960f88660031b161c19848701351681555b505060018360011b0185555b5050505061281560208301836125ea565b612823818360018601612680565b505061283260408301836125ea565b612840818360028601612680565b5050606082013560038201556080820135600482015560a0820135600582015560c0820135600682015561287760e08301836125ea565b610807818360078601612680565b815167ffffffffffffffff81111561289f5761289f6122b3565b6128b3816128ad8454612423565b84612638565b602080601f8311600181146128e857600084156128d05750858301515b600019600386901b1c1916600185901b1785556119e5565b600085815260208120601f198616915b82811015612917578886015182559484019460019091019084016128f8565b50858210156129355787850151600019600388901b60f8161c191681555b5050505050600190811b01905550565b60006001600160a01b0380871683528086166020840152508360408301526080606083015261297760808301846120c7565b9695505050505050565b60006020828403121561299357600080fd5b8151611a5c8161207056fea2646970667358221220afacb27aa8bbc7cf73bc09f2da57983959d06abcf6e3bdad140c52bb164a1a9564736f6c63430008180033",
  "linkReferences": {},
  "deployedLinkReferences": {}
}