{
  "_format": "hh-sol-artifact-1",
  "contractName": "EventFactory",
  "sourceName": "contracts/EventFactory.sol",
  "abi": [
    {
      "inputs": [],
      "name": "InvalidInitialization",
      "type": "error"
    },
    {
      "inputs": [],
      "name": "NotInitializing",
      "type": "error"
    },
    {
      "inputs": [
        {
          "internalType": "address",
          "name": "owner",
          "type": "address"
        }
      ],
      "name": "OwnableInvalidOwner",
      "type": "error"
    },
    {
      "inputs": [
        {
          "internalType": "address",
          "name": "account",
          "type": "address"
        }
      ],
      "name": "OwnableUnauthorizedAccount",
      "type": "error"
    },
    {
      "anonymous": false,
      "inputs": [
        {
          "indexed": true,
          "internalType": "uint256",
          "name": "eventId",
          "type": "uint256"
        },
        {
          "indexed": true,
          "internalType": "address",
          "name": "organizer",
          "type": "address"
        },
        {
          "indexed": true,
          "internalType": "address",
          "name": "eventContract",
          "type": "address"
        },
        {
          "indexed": false,
          "internalType": "string",
          "name": "name",
          "type": "string"
        },
        {
          "indexed": false,
          "internalType": "string",
          "name": "description",
          "type": "string"
        },
        {
          "indexed": false,
          "internalType": "string",
          "name": "location",
          "type": "string"
        },
        {
          "indexed": false,
          "internalType": "string",
          "name": "baseUri",
          "type": "string"
        },
        {
          "indexed": false,
          "internalType": "uint256",
          "name": "participantLimit",
          "type": "uint256"
        },
        {
          "indexed": false,
          "internalType": "uint256",
          "name": "startDate",
          "type": "uint256"
        },
        {
          "indexed": false,
          "internalType": "uint256",
          "name": "rewardCount",
          "type": "uint256"
        }
      ],
      "name": "EventCreated",
      "type": "event"
    },
    {
      "anonymous": false,
      "inputs": [
        {
          "indexed": false,
          "internalType": "uint64",
          "name": "version",
          "type": "uint64"
        }
      ],
      "name": "Initialized",
      "type": "event"
    },
    {
      "anonymous": false,
      "inputs": [
        {
          "indexed": true,
          "internalType": "address",
          "name": "previousOwner",
          "type": "address"
        },
        {
          "indexed": true,
          "internalType": "address",
          "name": "newOwner",
          "type": "address"
        }
      ],
      "name": "OwnershipTransferStarted",
      "type": "event"
    },
    {
      "anonymous": false,
      "inputs": [
        {
          "indexed": true,
          "internalType": "address",
          "name": "previousOwner",
          "type": "address"
        },
        {
          "indexed": true,
          "internalType": "address",
          "name": "newOwner",
          "type": "address"
        }
      ],
      "name": "OwnershipTransferred",
      "type": "event"
    },
    {
      "inputs": [],
      "name": "acceptOwnership",
      "outputs": [],
      "stateMutability": "nonpayable",
      "type": "function"
    },
    {
      "inputs": [
        {
          "internalType": "string",
          "name": "_name",
          "type": "string"
        },
        {
          "internalType": "string",
          "name": "_description",
          "type": "string"
        },
        {
          "internalType": "string",
          "name": "_location",
          "type": "string"
        },
        {
          "internalType": "uint256",
          "name": "_participantLimit",
          "type": "uint256"
        },
        {
          "internalType": "uint256",
          "name": "_startDate",
          "type": "uint256"
        },
        {
          "internalType": "uint256",
          "name": "_rewardCount",
          "type": "uint256"
        },
        {
          "internalType": "string",
          "name": "_baseUri",
          "type": "string"
        }
      ],
      "name": "createEvent",
      "outputs": [
        {
          "internalType": "address",
          "name": "eventContract",
          "type": "address"
        }
      ],
      "stateMutability": "nonpayable",
      "type": "function"
    },
    {
      "inputs": [
        {
          "internalType": "uint256",
          "name": "",
          "type": "uint256"
        }
      ],
      "name": "events",
      "outputs": [
        {
          "internalType": "address",
          "name": "",
          "type": "address"
        }
      ],
      "stateMutability": "view",
      "type": "function"
    },
    {
      "inputs": [],
      "name": "getStoredImplementation",
      "outputs": [
        {
          "internalType": "address",
          "name": "impl",
          "type": "address"
        }
      ],
      "stateMutability": "view",
      "type": "function"
    },
    {
      "inputs": [],
      "name": "implementation",
      "outputs": [
        {
          "internalType": "address",
          "name": "",
          "type": "address"
        }
      ],
      "stateMutability": "view",
      "type": "function"
    },
    {
      "inputs": [
        {
          "internalType": "address",
          "name": "_implementation",
          "type": "address"
        },
        {
          "internalType": "address",
          "name": "_organizerToken",
          "type": "address"
        }
      ],
      "name": "initialize",
      "outputs": [],
      "stateMutability": "nonpayable",
      "type": "function"
    },
    {
      "inputs": [],
      "name": "organizerToken",
      "outputs": [
        {
          "internalType": "contract IERC721",
          "name": "",
          "type": "address"
        }
      ],
      "stateMutability": "view",
      "type": "function"
    },
    {
      "inputs": [],
      "name": "owner",
      "outputs": [
        {
          "internalType": "address",
          "name": "",
          "type": "address"
        }
      ],
      "stateMutability": "view",
      "type": "function"
    },
    {
      "inputs": [],
      "name": "pendingOwner",
      "outputs": [
        {
          "internalType": "address",
          "name": "",
          "type": "address"
        }
      ],
      "stateMutability": "view",
      "type": "function"
    },
    {
      "inputs": [],
      "name": "renounceOwnership",
      "outputs": [],
      "stateMutability": "nonpayable",
      "type": "function"
    },
    {
      "inputs": [
        {
          "internalType": "address",
          "name": "_implementation",
          "type": "address"
        }
      ],
      "name": "setImplementation",
      "outputs": [],
      "stateMutability": "nonpayable",
      "type": "function"
    },
    {
      "inputs": [
        {
          "internalType": "address",
          "name": "newOwner",
          "type": "address"
        }
      ],
      "name": "transferOwnership",
      "outputs": [],
      "stateMutability": "nonpayable",
      "type": "function"
    }
  ],
  "bytecode": "0x608060405234801561001057600080fd5b50610cfb806100206000396000f3fe608060405234801561001057600080fd5b50600436106100d45760003560e01c80638da5cb5b11610081578063ddc120af1161005b578063ddc120af1461018c578063e30c39781461019f578063f2fde38b146101a757600080fd5b80638da5cb5b1461015e578063997a0b8a14610166578063d784d4261461017957600080fd5b80635c60da1b116100b25780635c60da1b1461013b578063715018a61461014e57806379ba50971461015657600080fd5b80630b791430146100d9578063134e25821461011e578063485cc95514610126575b600080fd5b6101026100e7366004610905565b6002602052600090815260409020546001600160a01b031681565b6040516001600160a01b03909116815260200160405180910390f35b6101026101ba565b610139610134366004610935565b6101cc565b005b600054610102906001600160a01b031681565b61013961034b565b61013961035f565b6101026103ac565b600154610102906001600160a01b031681565b610139610187366004610968565b6103e1565b61010261019a366004610a2d565b610413565b61010261063b565b6101396101b5366004610968565b610664565b6000806101c56106e9565b5492915050565b7ff0c57e16840df040f15088dc2f81fe391c3923bec73e23a9662efc9c229c6a00805468010000000000000000810460ff16159067ffffffffffffffff166000811580156102175750825b905060008267ffffffffffffffff1660011480156102345750303b155b905081158015610242575080155b15610279576040517ff92ee8a900000000000000000000000000000000000000000000000000000000815260040160405180910390fd5b845467ffffffffffffffff1916600117855583156102ad57845468ff00000000000000001916680100000000000000001785555b6102b561071b565b600080546001600160a01b0319166001600160a01b0389161781556102d86106e9565b88905550600180546001600160a01b0319166001600160a01b038816179055831561034257845468ff000000000000000019168555604051600181527fc7f505b2f371ae2175ee4913f4499e1f2633a7b5936321eed1cdaeb6115181d29060200160405180910390a15b50505050505050565b610353610723565b61035d6000610755565b565b338061036961063b565b6001600160a01b0316146103a05760405163118cdaa760e01b81526001600160a01b03821660048201526024015b60405180910390fd5b6103a981610755565b50565b6000807f9016d09d72d40fdae2fd8ceac6b6234c7706214fd39c1cd1e609a0528c1993005b546001600160a01b031692915050565b6103e9610723565b600080546001600160a01b0319166001600160a01b03831617815561040c6106e9565b9190915550565b6001546040517f70a0823100000000000000000000000000000000000000000000000000000000815233600482015260009182916001600160a01b03909116906370a0823190602401602060405180830381865afa158015610479573d6000803e3d6000fd5b505050506040513d601f19601f8201168201806040525081019061049d9190610af7565b116104ea5760405162461bcd60e51b815260206004820152601060248201527f4e6f7420616e206f7267616e697a6572000000000000000000000000000000006044820152606401610397565b6000546104ff906001600160a01b0316610791565b905060006040518061010001604052808a815260200189815260200188815260200187815260200160008152602001868152602001858152602001848152509050816001600160a01b031663ffcecdef33836040518363ffffffff1660e01b815260040161056e929190610b56565b600060405180830381600087803b15801561058857600080fd5b505af115801561059c573d6000803e3d6000fd5b5050600380546000908152600260205260409081902080546001600160a01b0319166001600160a01b03881690811790915591549051919350339250907f99b2f02d9e428ce2d76c6c2f86c602e0218ee9597272038f94287c51581283bd90610612908e908e908e908b908f908f908f90610c10565b60405180910390a46003805490600061062a83610c93565b919050555050979650505050505050565b6000807f237e158222e3e6968b72b9db0d8043aacf074ad9f650f0d1606b4d82ee432c006103d1565b61066c610723565b7f237e158222e3e6968b72b9db0d8043aacf074ad9f650f0d1606b4d82ee432c0080546001600160a01b0319166001600160a01b03831690811782556106b06103ac565b6001600160a01b03167f38d16b8cac22d99fc7c124b9cd0de2d3fa1faef420bfe791d8c362d765e2270060405160405180910390a35050565b600061071660017f360894a13ba1a3210667c828492db98dca3e2076cc3735a920a3ca505d382bbd610cac565b919050565b61035d61082d565b3361072c6103ac565b6001600160a01b03161461035d5760405163118cdaa760e01b8152336004820152602401610397565b7f237e158222e3e6968b72b9db0d8043aacf074ad9f650f0d1606b4d82ee432c0080546001600160a01b031916815561078d82610894565b5050565b6000763d602d80600a3d3981f3363d3d373d3d3d363d730000008260601b60e81c176000526e5af43d82803e903d91602b57fd5bf38260781b17602052603760096000f090506001600160a01b0381166107165760405162461bcd60e51b815260206004820152601660248201527f455243313136373a20637265617465206661696c6564000000000000000000006044820152606401610397565b7ff0c57e16840df040f15088dc2f81fe391c3923bec73e23a9662efc9c229c6a005468010000000000000000900460ff1661035d576040517fd7e6bcf800000000000000000000000000000000000000000000000000000000815260040160405180910390fd5b7f9016d09d72d40fdae2fd8ceac6b6234c7706214fd39c1cd1e609a0528c19930080546001600160a01b031981166001600160a01b03848116918217845560405192169182907f8be0079c531659141344cd1fd0a4f28419497f9722a3daafe3b4186f6b6457e090600090a3505050565b60006020828403121561091757600080fd5b5035919050565b80356001600160a01b038116811461071657600080fd5b6000806040838503121561094857600080fd5b6109518361091e565b915061095f6020840161091e565b90509250929050565b60006020828403121561097a57600080fd5b6109838261091e565b9392505050565b634e487b7160e01b600052604160045260246000fd5b600082601f8301126109b157600080fd5b813567ffffffffffffffff808211156109cc576109cc61098a565b604051601f8301601f19908116603f011681019082821181831017156109f4576109f461098a565b81604052838152866020858801011115610a0d57600080fd5b836020870160208301376000602085830101528094505050505092915050565b600080600080600080600060e0888a031215610a4857600080fd5b873567ffffffffffffffff80821115610a6057600080fd5b610a6c8b838c016109a0565b985060208a0135915080821115610a8257600080fd5b610a8e8b838c016109a0565b975060408a0135915080821115610aa457600080fd5b610ab08b838c016109a0565b965060608a0135955060808a0135945060a08a0135935060c08a0135915080821115610adb57600080fd5b50610ae88a828b016109a0565b91505092959891949750929550565b600060208284031215610b0957600080fd5b5051919050565b6000815180845260005b81811015610b3657602081850181015186830182015201610b1a565b506000602082860101526020601f19601f83011685010191505092915050565b6001600160a01b03831681526040602082015260008251610100806040850152610b84610140850183610b10565b91506020850151603f1980868503016060870152610ba28483610b10565b93506040870151915080868503016080870152610bbf8483610b10565b9350606087015160a0870152608087015160c087015260a087015160e087015260c08701518387015260e0870151925080868503016101208701525050610c068282610b10565b9695505050505050565b60e081526000610c2360e083018a610b10565b8281036020840152610c35818a610b10565b90508281036040840152610c498189610b10565b90508281036060840152610c5d8188610b10565b6080840196909652505060a081019290925260c090910152949350505050565b634e487b7160e01b600052601160045260246000fd5b600060018201610ca557610ca5610c7d565b5060010190565b81810381811115610cbf57610cbf610c7d565b9291505056fea26469706673582212206c06f684c24704b99d44cea7125823e3fc9e6efa46e385c341e026afea8e01d264736f6c63430008180033",
  "linkReferences": {},
  "deployedLinkReferences": {}
}