{
  "_format": "hh-sol-artifact-1",
  "contractName": "EventFactory",
  "sourceName": "contracts/EventFactory.sol",
  "abi": [
    {
      "inputs": [],
      "name": "InvalidInitialization",
      "type": "error"
    },
    {
      "inputs": [],
      "name": "NotInitializing",
      "type": "error"
    },
    {
      "inputs": [
        {
          "internalType": "address",
          "name": "owner",
          "type": "address"
        }
      ],
      "name": "OwnableInvalidOwner",
      "type": "error"
    },
    {
      "inputs": [
        {
          "internalType": "address",
          "name": "account",
          "type": "address"
        }
      ],
      "name": "OwnableUnauthorizedAccount",
      "type": "error"
    },
    {
      "anonymous": false,
      "inputs": [
        {
          "indexed": true,
          "internalType": "uint256",
          "name": "eventId",
          "type": "uint256"
        },
        {
          "indexed": true,
          "internalType": "address",
          "name": "organizer",
          "type": "address"
        },
        {
          "indexed": true,
          "internalType": "address",
          "name": "eventContract",
          "type": "address"
        }
      ],
      "name": "EventCreated",
      "type": "event"
    },
    {
      "anonymous": false,
      "inputs": [
        {
          "indexed": false,
          "internalType": "uint64",
          "name": "version",
          "type": "uint64"
        }
      ],
      "name": "Initialized",
      "type": "event"
    },
    {
      "anonymous": false,
      "inputs": [
        {
          "indexed": true,
          "internalType": "address",
          "name": "previousOwner",
          "type": "address"
        },
        {
          "indexed": true,
          "internalType": "address",
          "name": "newOwner",
          "type": "address"
        }
      ],
      "name": "OwnershipTransferStarted",
      "type": "event"
    },
    {
      "anonymous": false,
      "inputs": [
        {
          "indexed": true,
          "internalType": "address",
          "name": "previousOwner",
          "type": "address"
        },
        {
          "indexed": true,
          "internalType": "address",
          "name": "newOwner",
          "type": "address"
        }
      ],
      "name": "OwnershipTransferred",
      "type": "event"
    },
    {
      "inputs": [],
      "name": "acceptOwnership",
      "outputs": [],
      "stateMutability": "nonpayable",
      "type": "function"
    },
    {
      "inputs": [
        {
          "internalType": "string",
          "name": "_name",
          "type": "string"
        },
        {
          "internalType": "string",
          "name": "_description",
          "type": "string"
        },
        {
          "internalType": "string",
          "name": "_location",
          "type": "string"
        },
        {
          "internalType": "uint256",
          "name": "_participantLimit",
          "type": "uint256"
        },
        {
          "internalType": "uint256",
          "name": "_startDate",
          "type": "uint256"
        },
        {
          "internalType": "uint256",
          "name": "_rewardCount",
          "type": "uint256"
        },
        {
          "internalType": "string",
          "name": "_baseUri",
          "type": "string"
        }
      ],
      "name": "createEvent",
      "outputs": [
        {
          "internalType": "address",
          "name": "eventContract",
          "type": "address"
        }
      ],
      "stateMutability": "nonpayable",
      "type": "function"
    },
    {
      "inputs": [
        {
          "internalType": "uint256",
          "name": "",
          "type": "uint256"
        }
      ],
      "name": "events",
      "outputs": [
        {
          "internalType": "address",
          "name": "",
          "type": "address"
        }
      ],
      "stateMutability": "view",
      "type": "function"
    },
    {
      "inputs": [],
      "name": "getStoredImplementation",
      "outputs": [
        {
          "internalType": "address",
          "name": "impl",
          "type": "address"
        }
      ],
      "stateMutability": "view",
      "type": "function"
    },
    {
      "inputs": [],
      "name": "implementation",
      "outputs": [
        {
          "internalType": "address",
          "name": "",
          "type": "address"
        }
      ],
      "stateMutability": "view",
      "type": "function"
    },
    {
      "inputs": [
        {
          "internalType": "address",
          "name": "_implementation",
          "type": "address"
        },
        {
          "internalType": "address",
          "name": "_organizerToken",
          "type": "address"
        }
      ],
      "name": "initialize",
      "outputs": [],
      "stateMutability": "nonpayable",
      "type": "function"
    },
    {
      "inputs": [],
      "name": "organizerToken",
      "outputs": [
        {
          "internalType": "contract IERC721",
          "name": "",
          "type": "address"
        }
      ],
      "stateMutability": "view",
      "type": "function"
    },
    {
      "inputs": [],
      "name": "owner",
      "outputs": [
        {
          "internalType": "address",
          "name": "",
          "type": "address"
        }
      ],
      "stateMutability": "view",
      "type": "function"
    },
    {
      "inputs": [],
      "name": "pendingOwner",
      "outputs": [
        {
          "internalType": "address",
          "name": "",
          "type": "address"
        }
      ],
      "stateMutability": "view",
      "type": "function"
    },
    {
      "inputs": [],
      "name": "renounceOwnership",
      "outputs": [],
      "stateMutability": "nonpayable",
      "type": "function"
    },
    {
      "inputs": [
        {
          "internalType": "address",
          "name": "_implementation",
          "type": "address"
        }
      ],
      "name": "setImplementation",
      "outputs": [],
      "stateMutability": "nonpayable",
      "type": "function"
    },
    {
      "inputs": [
        {
          "internalType": "address",
          "name": "newOwner",
          "type": "address"
        }
      ],
      "name": "transferOwnership",
      "outputs": [],
      "stateMutability": "nonpayable",
      "type": "function"
    }
  ],
  "bytecode": "0x608060405234801561001057600080fd5b50610c70806100206000396000f3fe608060405234801561001057600080fd5b50600436106100d45760003560e01c80638da5cb5b11610081578063ddc120af1161005b578063ddc120af1461018c578063e30c39781461019f578063f2fde38b146101a757600080fd5b80638da5cb5b1461015e578063997a0b8a14610166578063d784d4261461017957600080fd5b80635c60da1b116100b25780635c60da1b1461013b578063715018a61461014e57806379ba50971461015657600080fd5b80630b791430146100d9578063134e25821461011e578063485cc95514610126575b600080fd5b6101026100e73660046108e7565b6002602052600090815260409020546001600160a01b031681565b6040516001600160a01b03909116815260200160405180910390f35b6101026101ba565b610139610134366004610917565b6101cc565b005b600054610102906001600160a01b031681565b61013961034b565b61013961035f565b6101026103ac565b600154610102906001600160a01b031681565b61013961018736600461094a565b6103e1565b61010261019a366004610a0f565b610413565b61010261061d565b6101396101b536600461094a565b610646565b6000806101c56106cb565b5492915050565b7ff0c57e16840df040f15088dc2f81fe391c3923bec73e23a9662efc9c229c6a00805468010000000000000000810460ff16159067ffffffffffffffff166000811580156102175750825b905060008267ffffffffffffffff1660011480156102345750303b155b905081158015610242575080155b15610279576040517ff92ee8a900000000000000000000000000000000000000000000000000000000815260040160405180910390fd5b845467ffffffffffffffff1916600117855583156102ad57845468ff00000000000000001916680100000000000000001785555b6102b56106fd565b600080546001600160a01b0319166001600160a01b0389161781556102d86106cb565b88905550600180546001600160a01b0319166001600160a01b038816179055831561034257845468ff000000000000000019168555604051600181527fc7f505b2f371ae2175ee4913f4499e1f2633a7b5936321eed1cdaeb6115181d29060200160405180910390a15b50505050505050565b610353610705565b61035d6000610737565b565b338061036961061d565b6001600160a01b0316146103a05760405163118cdaa760e01b81526001600160a01b03821660048201526024015b60405180910390fd5b6103a981610737565b50565b6000807f9016d09d72d40fdae2fd8ceac6b6234c7706214fd39c1cd1e609a0528c1993005b546001600160a01b031692915050565b6103e9610705565b600080546001600160a01b0319166001600160a01b03831617815561040c6106cb565b9190915550565b6001546040517f70a0823100000000000000000000000000000000000000000000000000000000815233600482015260009182916001600160a01b03909116906370a0823190602401602060405180830381865afa158015610479573d6000803e3d6000fd5b505050506040513d601f19601f8201168201806040525081019061049d9190610ad9565b116104ea5760405162461bcd60e51b815260206004820152601060248201527f4e6f7420616e206f7267616e697a6572000000000000000000000000000000006044820152606401610397565b6000546104ff906001600160a01b0316610773565b905060006040518061010001604052808a815260200189815260200188815260200187815260200160008152602001868152602001858152602001848152509050816001600160a01b031663ffcecdef33836040518363ffffffff1660e01b815260040161056e929190610b38565b600060405180830381600087803b15801561058857600080fd5b505af115801561059c573d6000803e3d6000fd5b50506003805460009081526002602052604080822080546001600160a01b0319166001600160a01b03891690811790915592549051929450339350917fbc30926aa39d11d8e1c5c4cef558355357f816a6cd38de3bfb11f4f5cfc2691b9190a46003805490600061060c83610c08565b919050555050979650505050505050565b6000807f237e158222e3e6968b72b9db0d8043aacf074ad9f650f0d1606b4d82ee432c006103d1565b61064e610705565b7f237e158222e3e6968b72b9db0d8043aacf074ad9f650f0d1606b4d82ee432c0080546001600160a01b0319166001600160a01b03831690811782556106926103ac565b6001600160a01b03167f38d16b8cac22d99fc7c124b9cd0de2d3fa1faef420bfe791d8c362d765e2270060405160405180910390a35050565b60006106f860017f360894a13ba1a3210667c828492db98dca3e2076cc3735a920a3ca505d382bbd610c21565b919050565b61035d61080f565b3361070e6103ac565b6001600160a01b03161461035d5760405163118cdaa760e01b8152336004820152602401610397565b7f237e158222e3e6968b72b9db0d8043aacf074ad9f650f0d1606b4d82ee432c0080546001600160a01b031916815561076f82610876565b5050565b6000763d602d80600a3d3981f3363d3d373d3d3d363d730000008260601b60e81c176000526e5af43d82803e903d91602b57fd5bf38260781b17602052603760096000f090506001600160a01b0381166106f85760405162461bcd60e51b815260206004820152601660248201527f455243313136373a20637265617465206661696c6564000000000000000000006044820152606401610397565b7ff0c57e16840df040f15088dc2f81fe391c3923bec73e23a9662efc9c229c6a005468010000000000000000900460ff1661035d576040517fd7e6bcf800000000000000000000000000000000000000000000000000000000815260040160405180910390fd5b7f9016d09d72d40fdae2fd8ceac6b6234c7706214fd39c1cd1e609a0528c19930080546001600160a01b031981166001600160a01b03848116918217845560405192169182907f8be0079c531659141344cd1fd0a4f28419497f9722a3daafe3b4186f6b6457e090600090a3505050565b6000602082840312156108f957600080fd5b5035919050565b80356001600160a01b03811681146106f857600080fd5b6000806040838503121561092a57600080fd5b61093383610900565b915061094160208401610900565b90509250929050565b60006020828403121561095c57600080fd5b61096582610900565b9392505050565b634e487b7160e01b600052604160045260246000fd5b600082601f83011261099357600080fd5b813567ffffffffffffffff808211156109ae576109ae61096c565b604051601f8301601f19908116603f011681019082821181831017156109d6576109d661096c565b816040528381528660208588010111156109ef57600080fd5b836020870160208301376000602085830101528094505050505092915050565b600080600080600080600060e0888a031215610a2a57600080fd5b873567ffffffffffffffff80821115610a4257600080fd5b610a4e8b838c01610982565b985060208a0135915080821115610a6457600080fd5b610a708b838c01610982565b975060408a0135915080821115610a8657600080fd5b610a928b838c01610982565b965060608a0135955060808a0135945060a08a0135935060c08a0135915080821115610abd57600080fd5b50610aca8a828b01610982565b91505092959891949750929550565b600060208284031215610aeb57600080fd5b5051919050565b6000815180845260005b81811015610b1857602081850181015186830182015201610afc565b506000602082860101526020601f19601f83011685010191505092915050565b6001600160a01b03831681526040602082015260008251610100806040850152610b66610140850183610af2565b91506020850151603f1980868503016060870152610b848483610af2565b93506040870151915080868503016080870152610ba18483610af2565b9350606087015160a0870152608087015160c087015260a087015160e087015260c08701518387015260e0870151925080868503016101208701525050610be88282610af2565b9695505050505050565b634e487b7160e01b600052601160045260246000fd5b600060018201610c1a57610c1a610bf2565b5060010190565b81810381811115610c3457610c34610bf2565b9291505056fea26469706673582212205a0227ca17df1539e24cdb1eeafd59fc266510751e83e7aaef9bd2dae8d70bea64736f6c63430008180033",
  "linkReferences": {},
  "deployedLinkReferences": {}
}