{
  "_format": "hh-sol-artifact-1",
  "contractName": "EventImplementation",
  "sourceName": "contracts/EventImplementation.sol",
  "abi": [
    {
      "inputs": [
        {
          "internalType": "address",
          "name": "sender",
          "type": "address"
        },
        {
          "internalType": "uint256",
          "name": "tokenId",
          "type": "uint256"
        },
        {
          "internalType": "address",
          "name": "owner",
          "type": "address"
        }
      ],
      "name": "ERC721IncorrectOwner",
      "type": "error"
    },
    {
      "inputs": [
        {
          "internalType": "address",
          "name": "operator",
          "type": "address"
        },
        {
          "internalType": "uint256",
          "name": "tokenId",
          "type": "uint256"
        }
      ],
      "name": "ERC721InsufficientApproval",
      "type": "error"
    },
    {
      "inputs": [
        {
          "internalType": "address",
          "name": "approver",
          "type": "address"
        }
      ],
      "name": "ERC721InvalidApprover",
      "type": "error"
    },
    {
      "inputs": [
        {
          "internalType": "address",
          "name": "operator",
          "type": "address"
        }
      ],
      "name": "ERC721InvalidOperator",
      "type": "error"
    },
    {
      "inputs": [
        {
          "internalType": "address",
          "name": "owner",
          "type": "address"
        }
      ],
      "name": "ERC721InvalidOwner",
      "type": "error"
    },
    {
      "inputs": [
        {
          "internalType": "address",
          "name": "receiver",
          "type": "address"
        }
      ],
      "name": "ERC721InvalidReceiver",
      "type": "error"
    },
    {
      "inputs": [
        {
          "internalType": "address",
          "name": "sender",
          "type": "address"
        }
      ],
      "name": "ERC721InvalidSender",
      "type": "error"
    },
    {
      "inputs": [
        {
          "internalType": "uint256",
          "name": "tokenId",
          "type": "uint256"
        }
      ],
      "name": "ERC721NonexistentToken",
      "type": "error"
    },
    {
      "inputs": [],
      "name": "InvalidInitialization",
      "type": "error"
    },
    {
      "inputs": [],
      "name": "NotInitializing",
      "type": "error"
    },
    {
      "inputs": [
        {
          "internalType": "address",
          "name": "owner",
          "type": "address"
        }
      ],
      "name": "OwnableInvalidOwner",
      "type": "error"
    },
    {
      "inputs": [
        {
          "internalType": "address",
          "name": "account",
          "type": "address"
        }
      ],
      "name": "OwnableUnauthorizedAccount",
      "type": "error"
    },
    {
      "anonymous": false,
      "inputs": [
        {
          "indexed": true,
          "internalType": "address",
          "name": "owner",
          "type": "address"
        },
        {
          "indexed": true,
          "internalType": "address",
          "name": "approved",
          "type": "address"
        },
        {
          "indexed": true,
          "internalType": "uint256",
          "name": "tokenId",
          "type": "uint256"
        }
      ],
      "name": "Approval",
      "type": "event"
    },
    {
      "anonymous": false,
      "inputs": [
        {
          "indexed": true,
          "internalType": "address",
          "name": "owner",
          "type": "address"
        },
        {
          "indexed": true,
          "internalType": "address",
          "name": "operator",
          "type": "address"
        },
        {
          "indexed": false,
          "internalType": "bool",
          "name": "approved",
          "type": "bool"
        }
      ],
      "name": "ApprovalForAll",
      "type": "event"
    },
    {
      "anonymous": false,
      "inputs": [
        {
          "indexed": false,
          "internalType": "uint256",
          "name": "_fromTokenId",
          "type": "uint256"
        },
        {
          "indexed": false,
          "internalType": "uint256",
          "name": "_toTokenId",
          "type": "uint256"
        }
      ],
      "name": "BatchMetadataUpdate",
      "type": "event"
    },
    {
      "anonymous": false,
      "inputs": [
        {
          "indexed": false,
          "internalType": "uint256",
          "name": "participantCount",
          "type": "uint256"
        },
        {
          "indexed": false,
          "internalType": "uint256",
          "name": "rewardCount",
          "type": "uint256"
        }
      ],
      "name": "EventStarted",
      "type": "event"
    },
    {
      "anonymous": false,
      "inputs": [
        {
          "indexed": false,
          "internalType": "uint64",
          "name": "version",
          "type": "uint64"
        }
      ],
      "name": "Initialized",
      "type": "event"
    },
    {
      "anonymous": false,
      "inputs": [
        {
          "indexed": false,
          "internalType": "uint256",
          "name": "_tokenId",
          "type": "uint256"
        }
      ],
      "name": "MetadataUpdate",
      "type": "event"
    },
    {
      "anonymous": false,
      "inputs": [
        {
          "indexed": true,
          "internalType": "address",
          "name": "recipient",
          "type": "address"
        },
        {
          "indexed": false,
          "internalType": "uint256",
          "name": "tokenId",
          "type": "uint256"
        },
        {
          "indexed": false,
          "internalType": "string",
          "name": "metadataCID",
          "type": "string"
        }
      ],
      "name": "NFTMinted",
      "type": "event"
    },
    {
      "anonymous": false,
      "inputs": [
        {
          "indexed": true,
          "internalType": "address",
          "name": "previousOwner",
          "type": "address"
        },
        {
          "indexed": true,
          "internalType": "address",
          "name": "newOwner",
          "type": "address"
        }
      ],
      "name": "OwnershipTransferStarted",
      "type": "event"
    },
    {
      "anonymous": false,
      "inputs": [
        {
          "indexed": true,
          "internalType": "address",
          "name": "previousOwner",
          "type": "address"
        },
        {
          "indexed": true,
          "internalType": "address",
          "name": "newOwner",
          "type": "address"
        }
      ],
      "name": "OwnershipTransferred",
      "type": "event"
    },
    {
      "anonymous": false,
      "inputs": [
        {
          "indexed": true,
          "internalType": "address",
          "name": "participant",
          "type": "address"
        }
      ],
      "name": "ParticipantRegistered",
      "type": "event"
    },
    {
      "anonymous": false,
      "inputs": [
        {
          "indexed": true,
          "internalType": "address",
          "name": "participant",
          "type": "address"
        },
        {
          "indexed": false,
          "internalType": "address",
          "name": "scannedPerson",
          "type": "address"
        },
        {
          "indexed": false,
          "internalType": "uint256",
          "name": "newScanCount",
          "type": "uint256"
        }
      ],
      "name": "ScanRecorded",
      "type": "event"
    },
    {
      "anonymous": false,
      "inputs": [
        {
          "indexed": true,
          "internalType": "address",
          "name": "from",
          "type": "address"
        },
        {
          "indexed": true,
          "internalType": "address",
          "name": "to",
          "type": "address"
        },
        {
          "indexed": true,
          "internalType": "uint256",
          "name": "tokenId",
          "type": "uint256"
        }
      ],
      "name": "Transfer",
      "type": "event"
    },
    {
      "inputs": [],
      "name": "acceptOwnership",
      "outputs": [],
      "stateMutability": "nonpayable",
      "type": "function"
    },
    {
      "inputs": [
        {
          "internalType": "address",
          "name": "to",
          "type": "address"
        },
        {
          "internalType": "uint256",
          "name": "tokenId",
          "type": "uint256"
        }
      ],
      "name": "approve",
      "outputs": [],
      "stateMutability": "nonpayable",
      "type": "function"
    },
    {
      "inputs": [
        {
          "internalType": "address",
          "name": "owner",
          "type": "address"
        }
      ],
      "name": "balanceOf",
      "outputs": [
        {
          "internalType": "uint256",
          "name": "",
          "type": "uint256"
        }
      ],
      "stateMutability": "view",
      "type": "function"
    },
    {
      "inputs": [],
      "name": "eventData",
      "outputs": [
        {
          "internalType": "string",
          "name": "name",
          "type": "string"
        },
        {
          "internalType": "string",
          "name": "description",
          "type": "string"
        },
        {
          "internalType": "string",
          "name": "location",
          "type": "string"
        },
        {
          "internalType": "uint256",
          "name": "participantLimit",
          "type": "uint256"
        },
        {
          "internalType": "uint256",
          "name": "registeredParticipants",
          "type": "uint256"
        },
        {
          "internalType": "uint256",
          "name": "startDate",
          "type": "uint256"
        },
        {
          "internalType": "uint256",
          "name": "rewardCount",
          "type": "uint256"
        },
        {
          "internalType": "string",
          "name": "baseUri",
          "type": "string"
        }
      ],
      "stateMutability": "view",
      "type": "function"
    },
    {
      "inputs": [],
      "name": "eventStarted",
      "outputs": [
        {
          "internalType": "bool",
          "name": "",
          "type": "bool"
        }
      ],
      "stateMutability": "view",
      "type": "function"
    },
    {
      "inputs": [
        {
          "internalType": "uint256",
          "name": "tokenId",
          "type": "uint256"
        }
      ],
      "name": "getApproved",
      "outputs": [
        {
          "internalType": "address",
          "name": "",
          "type": "address"
        }
      ],
      "stateMutability": "view",
      "type": "function"
    },
    {
      "inputs": [],
      "name": "getMilestones",
      "outputs": [
        {
          "internalType": "uint256[]",
          "name": "",
          "type": "uint256[]"
        }
      ],
      "stateMutability": "view",
      "type": "function"
    },
    {
      "inputs": [
        {
          "internalType": "address",
          "name": "",
          "type": "address"
        },
        {
          "internalType": "uint256",
          "name": "",
          "type": "uint256"
        }
      ],
      "name": "hasMinted",
      "outputs": [
        {
          "internalType": "bool",
          "name": "",
          "type": "bool"
        }
      ],
      "stateMutability": "view",
      "type": "function"
    },
    {
      "inputs": [
        {
          "internalType": "address",
          "name": "creator",
          "type": "address"
        },
        {
          "components": [
            {
              "internalType": "string",
              "name": "name",
              "type": "string"
            },
            {
              "internalType": "string",
              "name": "description",
              "type": "string"
            },
            {
              "internalType": "string",
              "name": "location",
              "type": "string"
            },
            {
              "internalType": "uint256",
              "name": "participantLimit",
              "type": "uint256"
            },
            {
              "internalType": "uint256",
              "name": "registeredParticipants",
              "type": "uint256"
            },
            {
              "internalType": "uint256",
              "name": "startDate",
              "type": "uint256"
            },
            {
              "internalType": "uint256",
              "name": "rewardCount",
              "type": "uint256"
            },
            {
              "internalType": "string",
              "name": "baseUri",
              "type": "string"
            }
          ],
          "internalType": "struct EventImplementation.EventData",
          "name": "_eventData",
          "type": "tuple"
        }
      ],
      "name": "initialize",
      "outputs": [],
      "stateMutability": "nonpayable",
      "type": "function"
    },
    {
      "inputs": [
        {
          "internalType": "address",
          "name": "owner",
          "type": "address"
        },
        {
          "internalType": "address",
          "name": "operator",
          "type": "address"
        }
      ],
      "name": "isApprovedForAll",
      "outputs": [
        {
          "internalType": "bool",
          "name": "",
          "type": "bool"
        }
      ],
      "stateMutability": "view",
      "type": "function"
    },
    {
      "inputs": [
        {
          "internalType": "address",
          "name": "",
          "type": "address"
        }
      ],
      "name": "isParticipant",
      "outputs": [
        {
          "internalType": "bool",
          "name": "",
          "type": "bool"
        }
      ],
      "stateMutability": "view",
      "type": "function"
    },
    {
      "inputs": [
        {
          "internalType": "uint256",
          "name": "",
          "type": "uint256"
        }
      ],
      "name": "milestoneMap",
      "outputs": [
        {
          "internalType": "uint256",
          "name": "",
          "type": "uint256"
        }
      ],
      "stateMutability": "view",
      "type": "function"
    },
    {
      "inputs": [],
      "name": "mintNFT",
      "outputs": [],
      "stateMutability": "nonpayable",
      "type": "function"
    },
    {
      "inputs": [],
      "name": "name",
      "outputs": [
        {
          "internalType": "string",
          "name": "",
          "type": "string"
        }
      ],
      "stateMutability": "view",
      "type": "function"
    },
    {
      "inputs": [],
      "name": "owner",
      "outputs": [
        {
          "internalType": "address",
          "name": "",
          "type": "address"
        }
      ],
      "stateMutability": "view",
      "type": "function"
    },
    {
      "inputs": [
        {
          "internalType": "uint256",
          "name": "tokenId",
          "type": "uint256"
        }
      ],
      "name": "ownerOf",
      "outputs": [
        {
          "internalType": "address",
          "name": "",
          "type": "address"
        }
      ],
      "stateMutability": "view",
      "type": "function"
    },
    {
      "inputs": [],
      "name": "pendingOwner",
      "outputs": [
        {
          "internalType": "address",
          "name": "",
          "type": "address"
        }
      ],
      "stateMutability": "view",
      "type": "function"
    },
    {
      "inputs": [
        {
          "internalType": "address",
          "name": "scannedPerson",
          "type": "address"
        }
      ],
      "name": "recordScan",
      "outputs": [],
      "stateMutability": "nonpayable",
      "type": "function"
    },
    {
      "inputs": [],
      "name": "registerParticipant",
      "outputs": [],
      "stateMutability": "nonpayable",
      "type": "function"
    },
    {
      "inputs": [],
      "name": "renounceOwnership",
      "outputs": [],
      "stateMutability": "nonpayable",
      "type": "function"
    },
    {
      "inputs": [
        {
          "internalType": "address",
          "name": "from",
          "type": "address"
        },
        {
          "internalType": "address",
          "name": "to",
          "type": "address"
        },
        {
          "internalType": "uint256",
          "name": "tokenId",
          "type": "uint256"
        }
      ],
      "name": "safeTransferFrom",
      "outputs": [],
      "stateMutability": "nonpayable",
      "type": "function"
    },
    {
      "inputs": [
        {
          "internalType": "address",
          "name": "from",
          "type": "address"
        },
        {
          "internalType": "address",
          "name": "to",
          "type": "address"
        },
        {
          "internalType": "uint256",
          "name": "tokenId",
          "type": "uint256"
        },
        {
          "internalType": "bytes",
          "name": "data",
          "type": "bytes"
        }
      ],
      "name": "safeTransferFrom",
      "outputs": [],
      "stateMutability": "nonpayable",
      "type": "function"
    },
    {
      "inputs": [
        {
          "internalType": "address",
          "name": "",
          "type": "address"
        }
      ],
      "name": "scanCount",
      "outputs": [
        {
          "internalType": "uint256",
          "name": "",
          "type": "uint256"
        }
      ],
      "stateMutability": "view",
      "type": "function"
    },
    {
      "inputs": [
        {
          "internalType": "address",
          "name": "operator",
          "type": "address"
        },
        {
          "internalType": "bool",
          "name": "approved",
          "type": "bool"
        }
      ],
      "name": "setApprovalForAll",
      "outputs": [],
      "stateMutability": "nonpayable",
      "type": "function"
    },
    {
      "inputs": [],
      "name": "startEvent",
      "outputs": [],
      "stateMutability": "nonpayable",
      "type": "function"
    },
    {
      "inputs": [
        {
          "internalType": "bytes4",
          "name": "interfaceId",
          "type": "bytes4"
        }
      ],
      "name": "supportsInterface",
      "outputs": [
        {
          "internalType": "bool",
          "name": "",
          "type": "bool"
        }
      ],
      "stateMutability": "view",
      "type": "function"
    },
    {
      "inputs": [],
      "name": "symbol",
      "outputs": [
        {
          "internalType": "string",
          "name": "",
          "type": "string"
        }
      ],
      "stateMutability": "view",
      "type": "function"
    },
    {
      "inputs": [
        {
          "internalType": "uint256",
          "name": "tokenId",
          "type": "uint256"
        }
      ],
      "name": "tokenURI",
      "outputs": [
        {
          "internalType": "string",
          "name": "",
          "type": "string"
        }
      ],
      "stateMutability": "view",
      "type": "function"
    },
    {
      "inputs": [
        {
          "internalType": "address",
          "name": "from",
          "type": "address"
        },
        {
          "internalType": "address",
          "name": "to",
          "type": "address"
        },
        {
          "internalType": "uint256",
          "name": "tokenId",
          "type": "uint256"
        }
      ],
      "name": "transferFrom",
      "outputs": [],
      "stateMutability": "nonpayable",
      "type": "function"
    },
    {
      "inputs": [
        {
          "internalType": "address",
          "name": "newOwner",
          "type": "address"
        }
      ],
      "name": "transferOwnership",
      "outputs": [],
      "stateMutability": "nonpayable",
      "type": "function"
    }
  ],
  "bytecode": "0x608060405234801561001057600080fd5b50612bd8806100206000396000f3fe608060405234801561001057600080fd5b50600436106101da5760003560e01c806379ba509711610104578063ccfc811b116100a2578063f2fde38b11610071578063f2fde38b1461041e578063f8f1147d14610431578063fc7ce1cc1461045f578063ffcecdef1461047f57600080fd5b8063ccfc811b146103ab578063e2fd38e9146103b3578063e30c3978146103bb578063e985e9c5146103c357600080fd5b806395d89b41116100de57806395d89b411461036a578063a22cb46514610372578063b88d4fde14610385578063c87b56dd1461039857600080fd5b806379ba5097146103375780638da5cb5b1461033f578063929066f51461034757600080fd5b806330af5c561161017c578063629e4ed01161014b578063629e4ed0146102f45780636352211e1461030957806370a082311461031c578063715018a61461032f57600080fd5b806330af5c5614610293578063328e2ad8146102a057806335dc7e02146102b357806342842e0e146102e157600080fd5b8063095ea7b3116101b8578063095ea7b31461024757806314f710fe1461025c57806323b872dd14610264578063254641e41461027757600080fd5b806301ffc9a7146101df57806306fdde0314610207578063081812fc1461021c575b600080fd5b6101f26101ed366004612249565b610492565b60405190151581526020015b60405180910390f35b61020f6104d6565b6040516101fe91906122b6565b61022f61022a3660046122c9565b61058c565b6040516001600160a01b0390911681526020016101fe565b61025a6102553660046122fe565b6105d4565b005b61025a6105e3565b61025a610272366004612328565b6107e4565b61027f610888565b6040516101fe989796959493929190612364565b6001546101f29060ff1681565b61025a6102ae3660046123db565b610adc565b6102d36102c13660046123db565b600a6020526000908152604090205481565b6040519081526020016101fe565b61025a6102ef366004612328565b610c69565b6102fc610c89565b6040516101fe91906123f6565b61022f6103173660046122c9565b610d2f565b6102d361032a3660046123db565b610d3a565b61025a610dc1565b61025a610dd5565b61022f610e1a565b6101f26103553660046123db565b600c6020526000908152604090205460ff1681565b61020f610e4f565b61025a61038036600461243a565b610ea0565b61025a61039336600461248c565b610eab565b61020f6103a63660046122c9565b610ec3565b61025a610ff8565b61025a611110565b61022f6112a8565b6101f26103d1366004612568565b6001600160a01b0391821660009081527f80bb2b638cc20bc4d0a60d66940f3ab4a00c1d7b313497ca82fb0b4ab00793056020908152604080832093909416825291909152205460ff1690565b61025a61042c3660046123db565b6112d1565b6101f261043f3660046122fe565b600d60209081526000928352604080842090915290825290205460ff1681565b6102d361046d3660046122c9565b600b6020526000908152604090205481565b61025a61048d36600461259b565b611356565b60006001600160e01b031982167f490649060000000000000000000000000000000000000000000000000000000014806104d057506104d082611527565b92915050565b7f80bb2b638cc20bc4d0a60d66940f3ab4a00c1d7b313497ca82fb0b4ab00793008054606091908190610508906125e6565b80601f0160208091040260200160405190810160405280929190818152602001828054610534906125e6565b80156105815780601f1061055657610100808354040283529160200191610581565b820191906000526020600020905b81548152906001019060200180831161056457829003601f168201915b505050505091505090565b6000610597826115c2565b5060008281527f80bb2b638cc20bc4d0a60d66940f3ab4a00c1d7b313497ca82fb0b4ab007930460205260409020546001600160a01b03166104d0565b6105df82823361161a565b5050565b60015460ff1661063a5760405162461bcd60e51b815260206004820152601560248201527f4576656e7420686173206e6f742073746172746564000000000000000000000060448201526064015b60405180910390fd5b6006546106895760405162461bcd60e51b815260206004820152601a60248201527f4e6f207061727469636970616e747320726567697374657265640000000000006044820152606401610631565b60005b6008548110156107e1576000818152600b6020908152604080832054338452600a90925290912054108015906106dd5750336000908152600d6020908152604080832084845290915290205460ff16155b156107d95760085481106107335760405162461bcd60e51b815260206004820152601460248201527f496e76616c69642072657761726420696e6465780000000000000000000000006044820152606401610631565b6000600961074083611627565b604051602001610751929190612620565b604051602081830303815290604052905061076c3383611772565b610776828261178c565b336000818152600d6020908152604080832086845290915290819020805460ff19166001179055517fd35bb95e09c04b219e35047ce7b7b300e3384264ef84a40456943dbc0fc17c14906107cd90859085906126cf565b60405180910390a25050565b60010161068c565b50565b6001600160a01b03821661080e57604051633250574960e11b815260006004820152602401610631565b600061081b8383336117ff565b9050836001600160a01b0316816001600160a01b031614610882576040517f64283d7b0000000000000000000000000000000000000000000000000000000081526001600160a01b0380861660048301526024820184905282166044820152606401610631565b50505050565b600280548190610897906125e6565b80601f01602080910402602001604051908101604052809291908181526020018280546108c3906125e6565b80156109105780601f106108e557610100808354040283529160200191610910565b820191906000526020600020905b8154815290600101906020018083116108f357829003601f168201915b505050505090806001018054610925906125e6565b80601f0160208091040260200160405190810160405280929190818152602001828054610951906125e6565b801561099e5780601f106109735761010080835404028352916020019161099e565b820191906000526020600020905b81548152906001019060200180831161098157829003601f168201915b5050505050908060020180546109b3906125e6565b80601f01602080910402602001604051908101604052809291908181526020018280546109df906125e6565b8015610a2c5780601f10610a0157610100808354040283529160200191610a2c565b820191906000526020600020905b815481529060010190602001808311610a0f57829003601f168201915b505050505090806003015490806004015490806005015490806006015490806007018054610a59906125e6565b80601f0160208091040260200160405190810160405280929190818152602001828054610a85906125e6565b8015610ad25780601f10610aa757610100808354040283529160200191610ad2565b820191906000526020600020905b815481529060010190602001808311610ab557829003601f168201915b5050505050905088565b60015460ff16610b2e5760405162461bcd60e51b815260206004820152601560248201527f4576656e7420686173206e6f74207374617274656400000000000000000000006044820152606401610631565b6001600160a01b0381166000908152600c602052604090205460ff16610b965760405162461bcd60e51b815260206004820152601c60248201527f4e6f7420612072656769737465726564207061727469636970616e74000000006044820152606401610631565b336000908152600c602052604090205460ff16610bf55760405162461bcd60e51b815260206004820152601760248201527f596f752068617665206e6f7420726567697374657265640000000000000000006044820152606401610631565b336000908152600a60205260408120805491610c10836126fe565b9091555050336000818152600a60209081526040918290205482516001600160a01b0386168152918201527fd816c1317974b7515c519592c000a2daceb2c3438eccdde21317ce4f1e4dac72910160405180910390a250565b610c8483838360405180602001604052806000815250610eab565b505050565b60085460609060008167ffffffffffffffff811115610caa57610caa612476565b604051908082528060200260200182016040528015610cd3578160200160208202803683370190505b50905060015b828111610d28576000818152600b602052604090205482610cfb600184612717565b81518110610d0b57610d0b61272a565b602090810291909101015280610d20816126fe565b915050610cd9565b5092915050565b60006104d0826115c2565b60007f80bb2b638cc20bc4d0a60d66940f3ab4a00c1d7b313497ca82fb0b4ab00793006001600160a01b038316610da0576040517f89c62b6400000000000000000000000000000000000000000000000000000000815260006004820152602401610631565b6001600160a01b039092166000908152600390920160205250604090205490565b610dc9611940565b610dd36000611972565b565b3380610ddf6112a8565b6001600160a01b031614610e115760405163118cdaa760e01b81526001600160a01b0382166004820152602401610631565b6107e181611972565b6000807f9016d09d72d40fdae2fd8ceac6b6234c7706214fd39c1cd1e609a0528c1993005b546001600160a01b031692915050565b7f80bb2b638cc20bc4d0a60d66940f3ab4a00c1d7b313497ca82fb0b4ab007930180546060917f80bb2b638cc20bc4d0a60d66940f3ab4a00c1d7b313497ca82fb0b4ab007930091610508906125e6565b6105df3383836119aa565b610eb68484846107e4565b6108823385858585611a86565b60607f0542a41881ee128a365a727b282c86fa859579490b9bb45aab8503648c8e7900610eef836115c2565b5060008381526020829052604081208054610f09906125e6565b80601f0160208091040260200160405190810160405280929190818152602001828054610f35906125e6565b8015610f825780601f10610f5757610100808354040283529160200191610f82565b820191906000526020600020905b815481529060010190602001808311610f6557829003601f168201915b505050505090506000610fa060408051602081019091526000815290565b90508051600003610fb357509392505050565b815115610fe6578082604051602001610fcd929190612740565b6040516020818303038152906040529350505050919050565b610fef85611bb1565b95945050505050565b336000908152600c602052604090205460ff16156110585760405162461bcd60e51b815260206004820152601260248201527f416c7265616479207265676973746572656400000000000000000000000000006044820152606401610631565b600554158061106a5750600554600654105b6110b65760405162461bcd60e51b815260206004820152601960248201527f5061727469636970616e74206c696d69742072656163686564000000000000006044820152606401610631565b336000908152600c60205260408120805460ff1916600117905560068054916110de836126fe565b909155505060405133907fe11711cd714e06fbbbea301a8e90822f2f2ea4808e37e3adf06038f33c53ff2790600090a2565b611118611940565b60015460ff161561116b5760405162461bcd60e51b815260206004820152601560248201527f4576656e7420616c7265616479207374617274656400000000000000000000006044820152606401610631565b6006546111ba5760405162461bcd60e51b815260206004820152601a60248201527f4e6f207061727469636970616e747320726567697374657265640000000000006044820152606401610631565b6008546112095760405162461bcd60e51b815260206004820152601460248201527f496e76616c69642072657761726420636f756e740000000000000000000000006044820152606401610631565b6001805460ff1916811781555b6008548111611260576008546006546000919061123490849061276f565b61123e919061279c565b6000838152600b60205260409020555080611258816126fe565b915050611216565b506006546008546040517fcdf6c28a86381a4594f050e71e25ccded91501eb62c54f8f38f4e1de3f5a3fa79261129e92908252602082015260400190565b60405180910390a1565b6000807f237e158222e3e6968b72b9db0d8043aacf074ad9f650f0d1606b4d82ee432c00610e3f565b6112d9611940565b7f237e158222e3e6968b72b9db0d8043aacf074ad9f650f0d1606b4d82ee432c0080546001600160a01b0319166001600160a01b038316908117825561131d610e1a565b6001600160a01b03167f38d16b8cac22d99fc7c124b9cd0de2d3fa1faef420bfe791d8c362d765e2270060405160405180910390a35050565b7ff0c57e16840df040f15088dc2f81fe391c3923bec73e23a9662efc9c229c6a00805468010000000000000000810460ff16159067ffffffffffffffff166000811580156113a15750825b905060008267ffffffffffffffff1660011480156113be5750303b155b9050811580156113cc575080155b15611403576040517ff92ee8a900000000000000000000000000000000000000000000000000000000815260040160405180910390fd5b845467ffffffffffffffff19166001178555831561143757845468ff00000000000000001916680100000000000000001785555b61143f611c26565b6114bb61144c87806127b0565b8080601f0160208091040260200160405190810160405280939291908181526020018383808284376000920191909152505060408051808201909152600381527f4d594b000000000000000000000000000000000000000000000000000000000060208201529150611c2e9050565b6114c487611972565b8560026114d18282612906565b5050831561151e57845468ff000000000000000019168555604051600181527fc7f505b2f371ae2175ee4913f4499e1f2633a7b5936321eed1cdaeb6115181d29060200160405180910390a15b50505050505050565b60006001600160e01b031982167f80ac58cd00000000000000000000000000000000000000000000000000000000148061158a57506001600160e01b031982167f5b5e139f00000000000000000000000000000000000000000000000000000000145b806104d057507f01ffc9a7000000000000000000000000000000000000000000000000000000006001600160e01b03198316146104d0565b60008181527f80bb2b638cc20bc4d0a60d66940f3ab4a00c1d7b313497ca82fb0b4ab007930260205260408120546001600160a01b0316806104d057604051637e27328960e01b815260048101849052602401610631565b610c848383836001611c40565b60608160000361166a57505060408051808201909152600181527f3000000000000000000000000000000000000000000000000000000000000000602082015290565b8160005b8115611694578061167e816126fe565b915061168d9050600a8361279c565b915061166e565b60008167ffffffffffffffff8111156116af576116af612476565b6040519080825280601f01601f1916602001820160405280156116d9576020820181803683370190505b50905060006116e9600184612717565b90505b8515611769576116fd600a87612a4b565b611708906030612a5f565b60f81b828261171681612a72565b9350815181106117285761172861272a565b60200101907effffffffffffffffffffffffffffffffffffffffffffffffffffffffffffff1916908160001a905350611762600a8761279c565b95506116ec565b50949350505050565b6105df828260405180602001604052806000815250611dbf565b60008281527f0542a41881ee128a365a727b282c86fa859579490b9bb45aab8503648c8e7900602081905260409091206117c68382612a89565b506040518381527ff8e1a15aba9398e019f0b49df1a4fde98ee17ae345cb5f6b5e2c27f5033e8ce79060200160405180910390a1505050565b60008281527f80bb2b638cc20bc4d0a60d66940f3ab4a00c1d7b313497ca82fb0b4ab007930260205260408120547f80bb2b638cc20bc4d0a60d66940f3ab4a00c1d7b313497ca82fb0b4ab0079300906001600160a01b039081169084161561186d5761186d818587611dd7565b6001600160a01b038116156118ad5761188a600086600080611c40565b6001600160a01b0381166000908152600383016020526040902080546000190190555b6001600160a01b038616156118de576001600160a01b03861660009081526003830160205260409020805460010190555b600085815260028301602052604080822080546001600160a01b0319166001600160a01b038a811691821790925591518893918516917fddf252ad1be2c89b69c2b068fc378daa952ba7f163c4a11628f55a4df523b3ef91a495945050505050565b33611949610e1a565b6001600160a01b031614610dd35760405163118cdaa760e01b8152336004820152602401610631565b7f237e158222e3e6968b72b9db0d8043aacf074ad9f650f0d1606b4d82ee432c0080546001600160a01b03191681556105df82611e54565b7f80bb2b638cc20bc4d0a60d66940f3ab4a00c1d7b313497ca82fb0b4ab00793006001600160a01b038316611a16576040517f5b08ba180000000000000000000000000000000000000000000000000000000081526001600160a01b0384166004820152602401610631565b6001600160a01b038481166000818152600584016020908152604080832094881680845294825291829020805460ff191687151590811790915591519182527f17307eab39ab6107e8899845ad3d59bd9653f200f220920489ca2b5937696c31910160405180910390a350505050565b6001600160a01b0383163b15611baa57604051630a85bd0160e11b81526001600160a01b0384169063150b7a0290611ac8908890889087908790600401612b49565b6020604051808303816000875af1925050508015611b03575060408051601f3d908101601f19168201909252611b0091810190612b85565b60015b611b6c573d808015611b31576040519150601f19603f3d011682016040523d82523d6000602084013e611b36565b606091505b508051600003611b6457604051633250574960e11b81526001600160a01b0385166004820152602401610631565b805181602001fd5b6001600160e01b03198116630a85bd0160e11b14611ba857604051633250574960e11b81526001600160a01b0385166004820152602401610631565b505b5050505050565b6060611bbc826115c2565b506000611bd460408051602081019091526000815290565b90506000815111611bf45760405180602001604052806000815250611c1f565b80611bfe84611ec5565b604051602001611c0f929190612740565b6040516020818303038152906040525b9392505050565b610dd3611f65565b611c36611f65565b6105df8282611fcc565b7f80bb2b638cc20bc4d0a60d66940f3ab4a00c1d7b313497ca82fb0b4ab00793008180611c7557506001600160a01b03831615155b15611d8e576000611c85856115c2565b90506001600160a01b03841615801590611cb15750836001600160a01b0316816001600160a01b031614155b8015611d0257506001600160a01b0380821660009081527f80bb2b638cc20bc4d0a60d66940f3ab4a00c1d7b313497ca82fb0b4ab0079305602090815260408083209388168352929052205460ff16155b15611d44576040517fa9fbf51f0000000000000000000000000000000000000000000000000000000081526001600160a01b0385166004820152602401610631565b8215611d8c5784866001600160a01b0316826001600160a01b03167f8c5be1e5ebec7d5bd14f71427d1e84f3dd0314c0f7b2291e5b200ac8c7c3b92560405160405180910390a45b505b600093845260040160205250506040902080546001600160a01b0319166001600160a01b0392909216919091179055565b611dc9838361200f565b610c84336000858585611a86565b611de283838361208d565b610c84576001600160a01b038316611e1057604051637e27328960e01b815260048101829052602401610631565b6040517f177e802f0000000000000000000000000000000000000000000000000000000081526001600160a01b038316600482015260248101829052604401610631565b7f9016d09d72d40fdae2fd8ceac6b6234c7706214fd39c1cd1e609a0528c19930080546001600160a01b031981166001600160a01b03848116918217845560405192169182907f8be0079c531659141344cd1fd0a4f28419497f9722a3daafe3b4186f6b6457e090600090a3505050565b60606000611ed283612151565b600101905060008167ffffffffffffffff811115611ef257611ef2612476565b6040519080825280601f01601f191660200182016040528015611f1c576020820181803683370190505b5090508181016020015b600019017f3031323334353637383961626364656600000000000000000000000000000000600a86061a8153600a8504945084611f2657509392505050565b7ff0c57e16840df040f15088dc2f81fe391c3923bec73e23a9662efc9c229c6a005468010000000000000000900460ff16610dd3576040517fd7e6bcf800000000000000000000000000000000000000000000000000000000815260040160405180910390fd5b611fd4611f65565b7f80bb2b638cc20bc4d0a60d66940f3ab4a00c1d7b313497ca82fb0b4ab0079300806120008482612a89565b50600181016108828382612a89565b6001600160a01b03821661203957604051633250574960e11b815260006004820152602401610631565b6000612047838360006117ff565b90506001600160a01b03811615610c84576040517f73c6ac6e00000000000000000000000000000000000000000000000000000000815260006004820152602401610631565b60006001600160a01b038316158015906121495750826001600160a01b0316846001600160a01b0316148061210657506001600160a01b0380851660009081527f80bb2b638cc20bc4d0a60d66940f3ab4a00c1d7b313497ca82fb0b4ab0079305602090815260408083209387168352929052205460ff165b80612149575060008281527f80bb2b638cc20bc4d0a60d66940f3ab4a00c1d7b313497ca82fb0b4ab007930460205260409020546001600160a01b038481169116145b949350505050565b6000807a184f03e93ff9f4daa797ed6e38ed64bf6a1f010000000000000000831061219a577a184f03e93ff9f4daa797ed6e38ed64bf6a1f010000000000000000830492506040015b6d04ee2d6d415b85acef810000000083106121c6576d04ee2d6d415b85acef8100000000830492506020015b662386f26fc1000083106121e457662386f26fc10000830492506010015b6305f5e10083106121fc576305f5e100830492506008015b612710831061221057612710830492506004015b60648310612222576064830492506002015b600a83106104d05760010192915050565b6001600160e01b0319811681146107e157600080fd5b60006020828403121561225b57600080fd5b8135611c1f81612233565b60005b83811015612281578181015183820152602001612269565b50506000910152565b600081518084526122a2816020860160208601612266565b601f01601f19169290920160200192915050565b602081526000611c1f602083018461228a565b6000602082840312156122db57600080fd5b5035919050565b80356001600160a01b03811681146122f957600080fd5b919050565b6000806040838503121561231157600080fd5b61231a836122e2565b946020939093013593505050565b60008060006060848603121561233d57600080fd5b612346846122e2565b9250612354602085016122e2565b9150604084013590509250925092565b60006101008083526123788184018c61228a565b9050828103602084015261238c818b61228a565b905082810360408401526123a0818a61228a565b90508760608401528660808401528560a08401528460c084015282810360e08401526123cc818561228a565b9b9a5050505050505050505050565b6000602082840312156123ed57600080fd5b611c1f826122e2565b6020808252825182820181905260009190848201906040850190845b8181101561242e57835183529284019291840191600101612412565b50909695505050505050565b6000806040838503121561244d57600080fd5b612456836122e2565b91506020830135801515811461246b57600080fd5b809150509250929050565b634e487b7160e01b600052604160045260246000fd5b600080600080608085870312156124a257600080fd5b6124ab856122e2565b93506124b9602086016122e2565b925060408501359150606085013567ffffffffffffffff808211156124dd57600080fd5b818701915087601f8301126124f157600080fd5b81358181111561250357612503612476565b604051601f8201601f19908116603f0116810190838211818310171561252b5761252b612476565b816040528281528a602084870101111561254457600080fd5b82602086016020830137600060208483010152809550505050505092959194509250565b6000806040838503121561257b57600080fd5b612584836122e2565b9150612592602084016122e2565b90509250929050565b600080604083850312156125ae57600080fd5b6125b7836122e2565b9150602083013567ffffffffffffffff8111156125d357600080fd5b8301610100818603121561246b57600080fd5b600181811c908216806125fa57607f821691505b60208210810361261a57634e487b7160e01b600052602260045260246000fd5b50919050565b600080845461262e816125e6565b60018281168015612646576001811461265b5761268a565b60ff198416875282151583028701945061268a565b8860005260208060002060005b858110156126815781548a820152908401908201612668565b50505082870194505b50505050835161269e818360208801612266565b7f2e6a736f6e0000000000000000000000000000000000000000000000000000009101908152600501949350505050565b828152604060208201526000612149604083018461228a565b634e487b7160e01b600052601160045260246000fd5b600060018201612710576127106126e8565b5060010190565b818103818111156104d0576104d06126e8565b634e487b7160e01b600052603260045260246000fd5b60008351612752818460208801612266565b835190830190612766818360208801612266565b01949350505050565b80820281158282048414176104d0576104d06126e8565b634e487b7160e01b600052601260045260246000fd5b6000826127ab576127ab612786565b500490565b6000808335601e198436030181126127c757600080fd5b83018035915067ffffffffffffffff8211156127e257600080fd5b6020019150368190038213156127f757600080fd5b9250929050565b601f821115610c84576000816000526020600020601f850160051c810160208610156128275750805b601f850160051c820191505b81811015611ba857828155600101612833565b67ffffffffffffffff83111561285e5761285e612476565b6128728361286c83546125e6565b836127fe565b6000601f8411600181146128a6576000851561288e5750838201355b600019600387901b1c1916600186901b178355611baa565b600083815260209020601f19861690835b828110156128d757868501358255602094850194600190920191016128b7565b50868210156128f45760001960f88860031b161c19848701351681555b505060018560011b0183555050505050565b61291082836127b0565b67ffffffffffffffff81111561292857612928612476565b61293c8161293685546125e6565b856127fe565b6000601f82116001811461297057600083156129585750838201355b600019600385901b1c1916600184901b1785556129ca565b600085815260209020601f19841690835b828110156129a15786850135825560209485019460019092019101612981565b50848210156129be5760001960f88660031b161c19848701351681555b505060018360011b0185555b505050506129db60208301836127b0565b6129e9818360018601612846565b50506129f860408301836127b0565b612a06818360028601612846565b5050606082013560038201556080820135600482015560a0820135600582015560c08201356006820155612a3d60e08301836127b0565b610882818360078601612846565b600082612a5a57612a5a612786565b500690565b808201808211156104d0576104d06126e8565b600081612a8157612a816126e8565b506000190190565b815167ffffffffffffffff811115612aa357612aa3612476565b612ab781612ab184546125e6565b846127fe565b602080601f831160018114612aec5760008415612ad45750858301515b600019600386901b1c1916600185901b178555611ba8565b600085815260208120601f198616915b82811015612b1b57888601518255948401946001909101908401612afc565b5085821015612b395787850151600019600388901b60f8161c191681555b5050505050600190811b01905550565b60006001600160a01b03808716835280861660208401525083604083015260806060830152612b7b608083018461228a565b9695505050505050565b600060208284031215612b9757600080fd5b8151611c1f8161223356fea26469706673582212202dc60a68810f60a11b5ae5b1b197ee62453fac44b8b46ff0d195375616577a7564736f6c63430008180033",
  "linkReferences": {},
  "deployedLinkReferences": {}
}