{
  "_format": "hh-sol-artifact-1",
  "contractName": "EventImplementation",
  "sourceName": "contracts/EventImplementation.sol",
  "abi": [
    {
      "inputs": [
        {
          "internalType": "address",
          "name": "sender",
          "type": "address"
        },
        {
          "internalType": "uint256",
          "name": "tokenId",
          "type": "uint256"
        },
        {
          "internalType": "address",
          "name": "owner",
          "type": "address"
        }
      ],
      "name": "ERC721IncorrectOwner",
      "type": "error"
    },
    {
      "inputs": [
        {
          "internalType": "address",
          "name": "operator",
          "type": "address"
        },
        {
          "internalType": "uint256",
          "name": "tokenId",
          "type": "uint256"
        }
      ],
      "name": "ERC721InsufficientApproval",
      "type": "error"
    },
    {
      "inputs": [
        {
          "internalType": "address",
          "name": "approver",
          "type": "address"
        }
      ],
      "name": "ERC721InvalidApprover",
      "type": "error"
    },
    {
      "inputs": [
        {
          "internalType": "address",
          "name": "operator",
          "type": "address"
        }
      ],
      "name": "ERC721InvalidOperator",
      "type": "error"
    },
    {
      "inputs": [
        {
          "internalType": "address",
          "name": "owner",
          "type": "address"
        }
      ],
      "name": "ERC721InvalidOwner",
      "type": "error"
    },
    {
      "inputs": [
        {
          "internalType": "address",
          "name": "receiver",
          "type": "address"
        }
      ],
      "name": "ERC721InvalidReceiver",
      "type": "error"
    },
    {
      "inputs": [
        {
          "internalType": "address",
          "name": "sender",
          "type": "address"
        }
      ],
      "name": "ERC721InvalidSender",
      "type": "error"
    },
    {
      "inputs": [
        {
          "internalType": "uint256",
          "name": "tokenId",
          "type": "uint256"
        }
      ],
      "name": "ERC721NonexistentToken",
      "type": "error"
    },
    {
      "inputs": [],
      "name": "InvalidInitialization",
      "type": "error"
    },
    {
      "inputs": [],
      "name": "NotInitializing",
      "type": "error"
    },
    {
      "inputs": [
        {
          "internalType": "address",
          "name": "owner",
          "type": "address"
        }
      ],
      "name": "OwnableInvalidOwner",
      "type": "error"
    },
    {
      "inputs": [
        {
          "internalType": "address",
          "name": "account",
          "type": "address"
        }
      ],
      "name": "OwnableUnauthorizedAccount",
      "type": "error"
    },
    {
      "anonymous": false,
      "inputs": [
        {
          "indexed": true,
          "internalType": "address",
          "name": "owner",
          "type": "address"
        },
        {
          "indexed": true,
          "internalType": "address",
          "name": "approved",
          "type": "address"
        },
        {
          "indexed": true,
          "internalType": "uint256",
          "name": "tokenId",
          "type": "uint256"
        }
      ],
      "name": "Approval",
      "type": "event"
    },
    {
      "anonymous": false,
      "inputs": [
        {
          "indexed": true,
          "internalType": "address",
          "name": "owner",
          "type": "address"
        },
        {
          "indexed": true,
          "internalType": "address",
          "name": "operator",
          "type": "address"
        },
        {
          "indexed": false,
          "internalType": "bool",
          "name": "approved",
          "type": "bool"
        }
      ],
      "name": "ApprovalForAll",
      "type": "event"
    },
    {
      "anonymous": false,
      "inputs": [
        {
          "indexed": false,
          "internalType": "uint256",
          "name": "_fromTokenId",
          "type": "uint256"
        },
        {
          "indexed": false,
          "internalType": "uint256",
          "name": "_toTokenId",
          "type": "uint256"
        }
      ],
      "name": "BatchMetadataUpdate",
      "type": "event"
    },
    {
      "anonymous": false,
      "inputs": [
        {
          "indexed": false,
          "internalType": "uint256",
          "name": "participantCount",
          "type": "uint256"
        },
        {
          "indexed": false,
          "internalType": "uint256",
          "name": "rewardCount",
          "type": "uint256"
        }
      ],
      "name": "EventStarted",
      "type": "event"
    },
    {
      "anonymous": false,
      "inputs": [
        {
          "indexed": false,
          "internalType": "uint64",
          "name": "version",
          "type": "uint64"
        }
      ],
      "name": "Initialized",
      "type": "event"
    },
    {
      "anonymous": false,
      "inputs": [
        {
          "indexed": false,
          "internalType": "uint256",
          "name": "_tokenId",
          "type": "uint256"
        }
      ],
      "name": "MetadataUpdate",
      "type": "event"
    },
    {
      "anonymous": false,
      "inputs": [
        {
          "indexed": true,
          "internalType": "address",
          "name": "recipient",
          "type": "address"
        },
        {
          "indexed": false,
          "internalType": "uint256",
          "name": "tokenId",
          "type": "uint256"
        },
        {
          "indexed": false,
          "internalType": "string",
          "name": "metadataCID",
          "type": "string"
        }
      ],
      "name": "NFTMinted",
      "type": "event"
    },
    {
      "anonymous": false,
      "inputs": [
        {
          "indexed": true,
          "internalType": "address",
          "name": "previousOwner",
          "type": "address"
        },
        {
          "indexed": true,
          "internalType": "address",
          "name": "newOwner",
          "type": "address"
        }
      ],
      "name": "OwnershipTransferStarted",
      "type": "event"
    },
    {
      "anonymous": false,
      "inputs": [
        {
          "indexed": true,
          "internalType": "address",
          "name": "previousOwner",
          "type": "address"
        },
        {
          "indexed": true,
          "internalType": "address",
          "name": "newOwner",
          "type": "address"
        }
      ],
      "name": "OwnershipTransferred",
      "type": "event"
    },
    {
      "anonymous": false,
      "inputs": [
        {
          "indexed": true,
          "internalType": "address",
          "name": "participant",
          "type": "address"
        }
      ],
      "name": "ParticipantRegistered",
      "type": "event"
    },
    {
      "anonymous": false,
      "inputs": [
        {
          "indexed": true,
          "internalType": "address",
          "name": "participant",
          "type": "address"
        },
        {
          "indexed": false,
          "internalType": "address",
          "name": "scannedPerson",
          "type": "address"
        },
        {
          "indexed": false,
          "internalType": "uint256",
          "name": "newScanCount",
          "type": "uint256"
        }
      ],
      "name": "ScanRecorded",
      "type": "event"
    },
    {
      "anonymous": false,
      "inputs": [
        {
          "indexed": true,
          "internalType": "address",
          "name": "from",
          "type": "address"
        },
        {
          "indexed": true,
          "internalType": "address",
          "name": "to",
          "type": "address"
        },
        {
          "indexed": true,
          "internalType": "uint256",
          "name": "tokenId",
          "type": "uint256"
        }
      ],
      "name": "Transfer",
      "type": "event"
    },
    {
      "inputs": [],
      "name": "acceptOwnership",
      "outputs": [],
      "stateMutability": "nonpayable",
      "type": "function"
    },
    {
      "inputs": [
        {
          "internalType": "address",
          "name": "to",
          "type": "address"
        },
        {
          "internalType": "uint256",
          "name": "tokenId",
          "type": "uint256"
        }
      ],
      "name": "approve",
      "outputs": [],
      "stateMutability": "nonpayable",
      "type": "function"
    },
    {
      "inputs": [
        {
          "internalType": "address",
          "name": "owner",
          "type": "address"
        }
      ],
      "name": "balanceOf",
      "outputs": [
        {
          "internalType": "uint256",
          "name": "",
          "type": "uint256"
        }
      ],
      "stateMutability": "view",
      "type": "function"
    },
    {
      "inputs": [],
      "name": "eventData",
      "outputs": [
        {
          "internalType": "string",
          "name": "name",
          "type": "string"
        },
        {
          "internalType": "string",
          "name": "description",
          "type": "string"
        },
        {
          "internalType": "string",
          "name": "location",
          "type": "string"
        },
        {
          "internalType": "uint256",
          "name": "participantLimit",
          "type": "uint256"
        },
        {
          "internalType": "uint256",
          "name": "registeredParticipants",
          "type": "uint256"
        },
        {
          "internalType": "uint256",
          "name": "startDate",
          "type": "uint256"
        },
        {
          "internalType": "uint256",
          "name": "rewardCount",
          "type": "uint256"
        },
        {
          "internalType": "string",
          "name": "baseUri",
          "type": "string"
        }
      ],
      "stateMutability": "view",
      "type": "function"
    },
    {
      "inputs": [],
      "name": "eventStarted",
      "outputs": [
        {
          "internalType": "bool",
          "name": "",
          "type": "bool"
        }
      ],
      "stateMutability": "view",
      "type": "function"
    },
    {
      "inputs": [
        {
          "internalType": "uint256",
          "name": "tokenId",
          "type": "uint256"
        }
      ],
      "name": "getApproved",
      "outputs": [
        {
          "internalType": "address",
          "name": "",
          "type": "address"
        }
      ],
      "stateMutability": "view",
      "type": "function"
    },
    {
      "inputs": [],
      "name": "getMilestones",
      "outputs": [
        {
          "internalType": "uint256[]",
          "name": "",
          "type": "uint256[]"
        }
      ],
      "stateMutability": "view",
      "type": "function"
    },
    {
      "inputs": [
        {
          "internalType": "address",
          "name": "creator",
          "type": "address"
        },
        {
          "components": [
            {
              "internalType": "string",
              "name": "name",
              "type": "string"
            },
            {
              "internalType": "string",
              "name": "description",
              "type": "string"
            },
            {
              "internalType": "string",
              "name": "location",
              "type": "string"
            },
            {
              "internalType": "uint256",
              "name": "participantLimit",
              "type": "uint256"
            },
            {
              "internalType": "uint256",
              "name": "registeredParticipants",
              "type": "uint256"
            },
            {
              "internalType": "uint256",
              "name": "startDate",
              "type": "uint256"
            },
            {
              "internalType": "uint256",
              "name": "rewardCount",
              "type": "uint256"
            },
            {
              "internalType": "string",
              "name": "baseUri",
              "type": "string"
            }
          ],
          "internalType": "struct EventImplementation.EventData",
          "name": "_eventData",
          "type": "tuple"
        }
      ],
      "name": "initialize",
      "outputs": [],
      "stateMutability": "nonpayable",
      "type": "function"
    },
    {
      "inputs": [
        {
          "internalType": "address",
          "name": "owner",
          "type": "address"
        },
        {
          "internalType": "address",
          "name": "operator",
          "type": "address"
        }
      ],
      "name": "isApprovedForAll",
      "outputs": [
        {
          "internalType": "bool",
          "name": "",
          "type": "bool"
        }
      ],
      "stateMutability": "view",
      "type": "function"
    },
    {
      "inputs": [
        {
          "internalType": "address",
          "name": "",
          "type": "address"
        }
      ],
      "name": "isParticipant",
      "outputs": [
        {
          "internalType": "bool",
          "name": "",
          "type": "bool"
        }
      ],
      "stateMutability": "view",
      "type": "function"
    },
    {
      "inputs": [
        {
          "internalType": "uint256",
          "name": "",
          "type": "uint256"
        }
      ],
      "name": "milestoneMap",
      "outputs": [
        {
          "internalType": "uint256",
          "name": "",
          "type": "uint256"
        }
      ],
      "stateMutability": "view",
      "type": "function"
    },
    {
      "inputs": [],
      "name": "mintNFT",
      "outputs": [],
      "stateMutability": "nonpayable",
      "type": "function"
    },
    {
      "inputs": [],
      "name": "name",
      "outputs": [
        {
          "internalType": "string",
          "name": "",
          "type": "string"
        }
      ],
      "stateMutability": "view",
      "type": "function"
    },
    {
      "inputs": [],
      "name": "owner",
      "outputs": [
        {
          "internalType": "address",
          "name": "",
          "type": "address"
        }
      ],
      "stateMutability": "view",
      "type": "function"
    },
    {
      "inputs": [
        {
          "internalType": "uint256",
          "name": "tokenId",
          "type": "uint256"
        }
      ],
      "name": "ownerOf",
      "outputs": [
        {
          "internalType": "address",
          "name": "",
          "type": "address"
        }
      ],
      "stateMutability": "view",
      "type": "function"
    },
    {
      "inputs": [],
      "name": "pendingOwner",
      "outputs": [
        {
          "internalType": "address",
          "name": "",
          "type": "address"
        }
      ],
      "stateMutability": "view",
      "type": "function"
    },
    {
      "inputs": [
        {
          "internalType": "address",
          "name": "scannedPerson",
          "type": "address"
        }
      ],
      "name": "recordScan",
      "outputs": [],
      "stateMutability": "nonpayable",
      "type": "function"
    },
    {
      "inputs": [
        {
          "internalType": "address",
          "name": "participant",
          "type": "address"
        }
      ],
      "name": "registerParticipant",
      "outputs": [],
      "stateMutability": "nonpayable",
      "type": "function"
    },
    {
      "inputs": [],
      "name": "renounceOwnership",
      "outputs": [],
      "stateMutability": "nonpayable",
      "type": "function"
    },
    {
      "inputs": [
        {
          "internalType": "address",
          "name": "from",
          "type": "address"
        },
        {
          "internalType": "address",
          "name": "to",
          "type": "address"
        },
        {
          "internalType": "uint256",
          "name": "tokenId",
          "type": "uint256"
        }
      ],
      "name": "safeTransferFrom",
      "outputs": [],
      "stateMutability": "nonpayable",
      "type": "function"
    },
    {
      "inputs": [
        {
          "internalType": "address",
          "name": "from",
          "type": "address"
        },
        {
          "internalType": "address",
          "name": "to",
          "type": "address"
        },
        {
          "internalType": "uint256",
          "name": "tokenId",
          "type": "uint256"
        },
        {
          "internalType": "bytes",
          "name": "data",
          "type": "bytes"
        }
      ],
      "name": "safeTransferFrom",
      "outputs": [],
      "stateMutability": "nonpayable",
      "type": "function"
    },
    {
      "inputs": [
        {
          "internalType": "address",
          "name": "",
          "type": "address"
        }
      ],
      "name": "scanCount",
      "outputs": [
        {
          "internalType": "uint256",
          "name": "",
          "type": "uint256"
        }
      ],
      "stateMutability": "view",
      "type": "function"
    },
    {
      "inputs": [
        {
          "internalType": "address",
          "name": "operator",
          "type": "address"
        },
        {
          "internalType": "bool",
          "name": "approved",
          "type": "bool"
        }
      ],
      "name": "setApprovalForAll",
      "outputs": [],
      "stateMutability": "nonpayable",
      "type": "function"
    },
    {
      "inputs": [],
      "name": "startEvent",
      "outputs": [],
      "stateMutability": "nonpayable",
      "type": "function"
    },
    {
      "inputs": [
        {
          "internalType": "bytes4",
          "name": "interfaceId",
          "type": "bytes4"
        }
      ],
      "name": "supportsInterface",
      "outputs": [
        {
          "internalType": "bool",
          "name": "",
          "type": "bool"
        }
      ],
      "stateMutability": "view",
      "type": "function"
    },
    {
      "inputs": [],
      "name": "symbol",
      "outputs": [
        {
          "internalType": "string",
          "name": "",
          "type": "string"
        }
      ],
      "stateMutability": "view",
      "type": "function"
    },
    {
      "inputs": [
        {
          "internalType": "uint256",
          "name": "tokenId",
          "type": "uint256"
        }
      ],
      "name": "tokenURI",
      "outputs": [
        {
          "internalType": "string",
          "name": "",
          "type": "string"
        }
      ],
      "stateMutability": "view",
      "type": "function"
    },
    {
      "inputs": [
        {
          "internalType": "address",
          "name": "from",
          "type": "address"
        },
        {
          "internalType": "address",
          "name": "to",
          "type": "address"
        },
        {
          "internalType": "uint256",
          "name": "tokenId",
          "type": "uint256"
        }
      ],
      "name": "transferFrom",
      "outputs": [],
      "stateMutability": "nonpayable",
      "type": "function"
    },
    {
      "inputs": [
        {
          "internalType": "address",
          "name": "newOwner",
          "type": "address"
        }
      ],
      "name": "transferOwnership",
      "outputs": [],
      "stateMutability": "nonpayable",
      "type": "function"
    }
  ],
  "bytecode": "0x608060405234801561001057600080fd5b50612a03806100206000396000f3fe608060405234801561001057600080fd5b50600436106101cf5760003560e01c8063715018a611610104578063b88d4fde116100a2578063e985e9c511610071578063e985e9c5146103c3578063f2fde38b1461041e578063fc7ce1cc14610431578063ffcecdef1461045157600080fd5b8063b88d4fde1461038d578063c87b56dd146103a0578063e2fd38e9146103b3578063e30c3978146103bb57600080fd5b80638da5cb5b116100de5780638da5cb5b14610347578063929066f51461034f57806395d89b4114610372578063a22cb4651461037a57600080fd5b8063715018a61461032457806379ba50971461032c5780637cc9e4f01461033457600080fd5b806330af5c561161017157806342842e0e1161014b57806342842e0e146102d6578063629e4ed0146102e95780636352211e146102fe57806370a082311461031157600080fd5b806330af5c5614610288578063328e2ad81461029557806335dc7e02146102a857600080fd5b8063095ea7b3116101ad578063095ea7b31461023c57806314f710fe1461025157806323b872dd14610259578063254641e41461026c57600080fd5b806301ffc9a7146101d457806306fdde03146101fc578063081812fc14610211575b600080fd5b6101e76101e23660046120b5565b610464565b60405190151581526020015b60405180910390f35b6102046104a8565b6040516101f39190612122565b61022461021f366004612135565b61055e565b6040516001600160a01b0390911681526020016101f3565b61024f61024a36600461216a565b6105a6565b005b61024f6105b5565b61024f610267366004612194565b610774565b610274610818565b6040516101f39897969594939291906121d0565b6001546101e79060ff1681565b61024f6102a3366004612247565b610a6c565b6102c86102b6366004612247565b600a6020526000908152604090205481565b6040519081526020016101f3565b61024f6102e4366004612194565b610bf9565b6102f1610c19565b6040516101f39190612262565b61022461030c366004612135565b610cbf565b6102c861031f366004612247565b610cca565b61024f610d51565b61024f610d65565b61024f610342366004612247565b610dad565b610224610ee9565b6101e761035d366004612247565b600c6020526000908152604090205460ff1681565b610204610f1e565b61024f6103883660046122a6565b610f6f565b61024f61039b3660046122f8565b610f7a565b6102046103ae366004612135565b610f92565b61024f6110c7565b61022461125f565b6101e76103d13660046123d4565b6001600160a01b0391821660009081527f80bb2b638cc20bc4d0a60d66940f3ab4a00c1d7b313497ca82fb0b4ab00793056020908152604080832093909416825291909152205460ff1690565b61024f61042c366004612247565b611288565b6102c861043f366004612135565b600b6020526000908152604090205481565b61024f61045f366004612407565b61130d565b60006001600160e01b031982167f490649060000000000000000000000000000000000000000000000000000000014806104a257506104a2826114de565b92915050565b7f80bb2b638cc20bc4d0a60d66940f3ab4a00c1d7b313497ca82fb0b4ab007930080546060919081906104da90612452565b80601f016020809104026020016040519081016040528092919081815260200182805461050690612452565b80156105535780601f1061052857610100808354040283529160200191610553565b820191906000526020600020905b81548152906001019060200180831161053657829003601f168201915b505050505091505090565b600061056982611579565b5060008281527f80bb2b638cc20bc4d0a60d66940f3ab4a00c1d7b313497ca82fb0b4ab007930460205260409020546001600160a01b03166104a2565b6105b18282336115d1565b5050565b60015460ff1661060c5760405162461bcd60e51b815260206004820152601560248201527f4576656e7420686173206e6f742073746172746564000000000000000000000060448201526064015b60405180910390fd5b6008546000541061065f5760405162461bcd60e51b815260206004820152601260248201527f416c6c2072657761726473206d696e74656400000000000000000000000000006044820152606401610603565b6000805461066e9060016124a2565b6000818152600b6020908152604080832054338452600a9092529091205491925011156106dd5760405162461bcd60e51b815260206004820152601560248201527f4d696c6573746f6e65206e6f74207265616368656400000000000000000000006044820152606401610603565b6040516000906106f49060099084906020016124b5565b604051602081830303815290604052905061070f33836115de565b61071982826115f8565b60008054908061072883612556565b9190505550336001600160a01b03167fd35bb95e09c04b219e35047ce7b7b300e3384264ef84a40456943dbc0fc17c14838360405161076892919061256f565b60405180910390a25050565b6001600160a01b03821661079e57604051633250574960e11b815260006004820152602401610603565b60006107ab83833361166b565b9050836001600160a01b0316816001600160a01b031614610812576040517f64283d7b0000000000000000000000000000000000000000000000000000000081526001600160a01b0380861660048301526024820184905282166044820152606401610603565b50505050565b60028054819061082790612452565b80601f016020809104026020016040519081016040528092919081815260200182805461085390612452565b80156108a05780601f10610875576101008083540402835291602001916108a0565b820191906000526020600020905b81548152906001019060200180831161088357829003601f168201915b5050505050908060010180546108b590612452565b80601f01602080910402602001604051908101604052809291908181526020018280546108e190612452565b801561092e5780601f106109035761010080835404028352916020019161092e565b820191906000526020600020905b81548152906001019060200180831161091157829003601f168201915b50505050509080600201805461094390612452565b80601f016020809104026020016040519081016040528092919081815260200182805461096f90612452565b80156109bc5780601f10610991576101008083540402835291602001916109bc565b820191906000526020600020905b81548152906001019060200180831161099f57829003601f168201915b5050505050908060030154908060040154908060050154908060060154908060070180546109e990612452565b80601f0160208091040260200160405190810160405280929190818152602001828054610a1590612452565b8015610a625780601f10610a3757610100808354040283529160200191610a62565b820191906000526020600020905b815481529060010190602001808311610a4557829003601f168201915b5050505050905088565b60015460ff16610abe5760405162461bcd60e51b815260206004820152601560248201527f4576656e7420686173206e6f74207374617274656400000000000000000000006044820152606401610603565b6001600160a01b0381166000908152600c602052604090205460ff16610b265760405162461bcd60e51b815260206004820152601c60248201527f4e6f7420612072656769737465726564207061727469636970616e74000000006044820152606401610603565b336000908152600c602052604090205460ff16610b855760405162461bcd60e51b815260206004820152601760248201527f596f752068617665206e6f7420726567697374657265640000000000000000006044820152606401610603565b336000908152600a60205260408120805491610ba083612556565b9091555050336000818152600a60209081526040918290205482516001600160a01b0386168152918201527fd816c1317974b7515c519592c000a2daceb2c3438eccdde21317ce4f1e4dac72910160405180910390a250565b610c1483838360405180602001604052806000815250610f7a565b505050565b60085460609060008167ffffffffffffffff811115610c3a57610c3a6122e2565b604051908082528060200260200182016040528015610c63578160200160208202803683370190505b50905060015b828111610cb8576000818152600b602052604090205482610c8b600184612588565b81518110610c9b57610c9b61259b565b602090810291909101015280610cb081612556565b915050610c69565b5092915050565b60006104a282611579565b60007f80bb2b638cc20bc4d0a60d66940f3ab4a00c1d7b313497ca82fb0b4ab00793006001600160a01b038316610d30576040517f89c62b6400000000000000000000000000000000000000000000000000000000815260006004820152602401610603565b6001600160a01b039092166000908152600390920160205250604090205490565b610d596117ac565b610d6360006117de565b565b3380610d6f61125f565b6001600160a01b031614610da15760405163118cdaa760e01b81526001600160a01b0382166004820152602401610603565b610daa816117de565b50565b610db56117ac565b6001600160a01b0381166000908152600c602052604090205460ff1615610e1e5760405162461bcd60e51b815260206004820152601260248201527f416c7265616479207265676973746572656400000000000000000000000000006044820152606401610603565b6005541580610e305750600554600654105b610e7c5760405162461bcd60e51b815260206004820152601960248201527f5061727469636970616e74206c696d69742072656163686564000000000000006044820152606401610603565b6001600160a01b0381166000908152600c60205260408120805460ff191660011790556006805491610ead83612556565b90915550506040516001600160a01b038216907fe11711cd714e06fbbbea301a8e90822f2f2ea4808e37e3adf06038f33c53ff2790600090a250565b6000807f9016d09d72d40fdae2fd8ceac6b6234c7706214fd39c1cd1e609a0528c1993005b546001600160a01b031692915050565b7f80bb2b638cc20bc4d0a60d66940f3ab4a00c1d7b313497ca82fb0b4ab007930180546060917f80bb2b638cc20bc4d0a60d66940f3ab4a00c1d7b313497ca82fb0b4ab0079300916104da90612452565b6105b1338383611816565b610f85848484610774565b61081233858585856118f2565b60607f0542a41881ee128a365a727b282c86fa859579490b9bb45aab8503648c8e7900610fbe83611579565b5060008381526020829052604081208054610fd890612452565b80601f016020809104026020016040519081016040528092919081815260200182805461100490612452565b80156110515780601f1061102657610100808354040283529160200191611051565b820191906000526020600020905b81548152906001019060200180831161103457829003601f168201915b50505050509050600061106f60408051602081019091526000815290565b9050805160000361108257509392505050565b8151156110b557808260405160200161109c9291906125b1565b6040516020818303038152906040529350505050919050565b6110be85611a1d565b95945050505050565b6110cf6117ac565b60015460ff16156111225760405162461bcd60e51b815260206004820152601560248201527f4576656e7420616c7265616479207374617274656400000000000000000000006044820152606401610603565b6006546111715760405162461bcd60e51b815260206004820152601a60248201527f4e6f207061727469636970616e747320726567697374657265640000000000006044820152606401610603565b6008546111c05760405162461bcd60e51b815260206004820152601460248201527f496e76616c69642072657761726420636f756e740000000000000000000000006044820152606401610603565b6001805460ff1916811781555b600854811161121757600854600654600091906111eb9084906125e0565b6111f591906125f7565b6000838152600b6020526040902055508061120f81612556565b9150506111cd565b506006546008546040517fcdf6c28a86381a4594f050e71e25ccded91501eb62c54f8f38f4e1de3f5a3fa79261125592908252602082015260400190565b60405180910390a1565b6000807f237e158222e3e6968b72b9db0d8043aacf074ad9f650f0d1606b4d82ee432c00610f0e565b6112906117ac565b7f237e158222e3e6968b72b9db0d8043aacf074ad9f650f0d1606b4d82ee432c0080546001600160a01b0319166001600160a01b03831690811782556112d4610ee9565b6001600160a01b03167f38d16b8cac22d99fc7c124b9cd0de2d3fa1faef420bfe791d8c362d765e2270060405160405180910390a35050565b7ff0c57e16840df040f15088dc2f81fe391c3923bec73e23a9662efc9c229c6a00805468010000000000000000810460ff16159067ffffffffffffffff166000811580156113585750825b905060008267ffffffffffffffff1660011480156113755750303b155b905081158015611383575080155b156113ba576040517ff92ee8a900000000000000000000000000000000000000000000000000000000815260040160405180910390fd5b845467ffffffffffffffff1916600117855583156113ee57845468ff00000000000000001916680100000000000000001785555b6113f6611a92565b6114726114038780612619565b8080601f0160208091040260200160405190810160405280939291908181526020018383808284376000920191909152505060408051808201909152600381527f4d594b000000000000000000000000000000000000000000000000000000000060208201529150611a9a9050565b61147b876117de565b856002611488828261276f565b505083156114d557845468ff000000000000000019168555604051600181527fc7f505b2f371ae2175ee4913f4499e1f2633a7b5936321eed1cdaeb6115181d29060200160405180910390a15b50505050505050565b60006001600160e01b031982167f80ac58cd00000000000000000000000000000000000000000000000000000000148061154157506001600160e01b031982167f5b5e139f00000000000000000000000000000000000000000000000000000000145b806104a257507f01ffc9a7000000000000000000000000000000000000000000000000000000006001600160e01b03198316146104a2565b60008181527f80bb2b638cc20bc4d0a60d66940f3ab4a00c1d7b313497ca82fb0b4ab007930260205260408120546001600160a01b0316806104a257604051637e27328960e01b815260048101849052602401610603565b610c148383836001611aac565b6105b1828260405180602001604052806000815250611c2b565b60008281527f0542a41881ee128a365a727b282c86fa859579490b9bb45aab8503648c8e79006020819052604090912061163283826128b4565b506040518381527ff8e1a15aba9398e019f0b49df1a4fde98ee17ae345cb5f6b5e2c27f5033e8ce79060200160405180910390a1505050565b60008281527f80bb2b638cc20bc4d0a60d66940f3ab4a00c1d7b313497ca82fb0b4ab007930260205260408120547f80bb2b638cc20bc4d0a60d66940f3ab4a00c1d7b313497ca82fb0b4ab0079300906001600160a01b03908116908416156116d9576116d9818587611c43565b6001600160a01b03811615611719576116f6600086600080611aac565b6001600160a01b0381166000908152600383016020526040902080546000190190555b6001600160a01b0386161561174a576001600160a01b03861660009081526003830160205260409020805460010190555b600085815260028301602052604080822080546001600160a01b0319166001600160a01b038a811691821790925591518893918516917fddf252ad1be2c89b69c2b068fc378daa952ba7f163c4a11628f55a4df523b3ef91a495945050505050565b336117b5610ee9565b6001600160a01b031614610d635760405163118cdaa760e01b8152336004820152602401610603565b7f237e158222e3e6968b72b9db0d8043aacf074ad9f650f0d1606b4d82ee432c0080546001600160a01b03191681556105b182611cc0565b7f80bb2b638cc20bc4d0a60d66940f3ab4a00c1d7b313497ca82fb0b4ab00793006001600160a01b038316611882576040517f5b08ba180000000000000000000000000000000000000000000000000000000081526001600160a01b0384166004820152602401610603565b6001600160a01b038481166000818152600584016020908152604080832094881680845294825291829020805460ff191687151590811790915591519182527f17307eab39ab6107e8899845ad3d59bd9653f200f220920489ca2b5937696c31910160405180910390a350505050565b6001600160a01b0383163b15611a1657604051630a85bd0160e11b81526001600160a01b0384169063150b7a0290611934908890889087908790600401612974565b6020604051808303816000875af192505050801561196f575060408051601f3d908101601f1916820190925261196c918101906129b0565b60015b6119d8573d80801561199d576040519150601f19603f3d011682016040523d82523d6000602084013e6119a2565b606091505b5080516000036119d057604051633250574960e11b81526001600160a01b0385166004820152602401610603565b805181602001fd5b6001600160e01b03198116630a85bd0160e11b14611a1457604051633250574960e11b81526001600160a01b0385166004820152602401610603565b505b5050505050565b6060611a2882611579565b506000611a4060408051602081019091526000815290565b90506000815111611a605760405180602001604052806000815250611a8b565b80611a6a84611d31565b604051602001611a7b9291906125b1565b6040516020818303038152906040525b9392505050565b610d63611dd1565b611aa2611dd1565b6105b18282611e38565b7f80bb2b638cc20bc4d0a60d66940f3ab4a00c1d7b313497ca82fb0b4ab00793008180611ae157506001600160a01b03831615155b15611bfa576000611af185611579565b90506001600160a01b03841615801590611b1d5750836001600160a01b0316816001600160a01b031614155b8015611b6e57506001600160a01b0380821660009081527f80bb2b638cc20bc4d0a60d66940f3ab4a00c1d7b313497ca82fb0b4ab0079305602090815260408083209388168352929052205460ff16155b15611bb0576040517fa9fbf51f0000000000000000000000000000000000000000000000000000000081526001600160a01b0385166004820152602401610603565b8215611bf85784866001600160a01b0316826001600160a01b03167f8c5be1e5ebec7d5bd14f71427d1e84f3dd0314c0f7b2291e5b200ac8c7c3b92560405160405180910390a45b505b600093845260040160205250506040902080546001600160a01b0319166001600160a01b0392909216919091179055565b611c358383611e7b565b610c143360008585856118f2565b611c4e838383611ef9565b610c14576001600160a01b038316611c7c57604051637e27328960e01b815260048101829052602401610603565b6040517f177e802f0000000000000000000000000000000000000000000000000000000081526001600160a01b038316600482015260248101829052604401610603565b7f9016d09d72d40fdae2fd8ceac6b6234c7706214fd39c1cd1e609a0528c19930080546001600160a01b031981166001600160a01b03848116918217845560405192169182907f8be0079c531659141344cd1fd0a4f28419497f9722a3daafe3b4186f6b6457e090600090a3505050565b60606000611d3e83611fbd565b600101905060008167ffffffffffffffff811115611d5e57611d5e6122e2565b6040519080825280601f01601f191660200182016040528015611d88576020820181803683370190505b5090508181016020015b600019017f3031323334353637383961626364656600000000000000000000000000000000600a86061a8153600a8504945084611d9257509392505050565b7ff0c57e16840df040f15088dc2f81fe391c3923bec73e23a9662efc9c229c6a005468010000000000000000900460ff16610d63576040517fd7e6bcf800000000000000000000000000000000000000000000000000000000815260040160405180910390fd5b611e40611dd1565b7f80bb2b638cc20bc4d0a60d66940f3ab4a00c1d7b313497ca82fb0b4ab007930080611e6c84826128b4565b506001810161081283826128b4565b6001600160a01b038216611ea557604051633250574960e11b815260006004820152602401610603565b6000611eb38383600061166b565b90506001600160a01b03811615610c14576040517f73c6ac6e00000000000000000000000000000000000000000000000000000000815260006004820152602401610603565b60006001600160a01b03831615801590611fb55750826001600160a01b0316846001600160a01b03161480611f7257506001600160a01b0380851660009081527f80bb2b638cc20bc4d0a60d66940f3ab4a00c1d7b313497ca82fb0b4ab0079305602090815260408083209387168352929052205460ff165b80611fb5575060008281527f80bb2b638cc20bc4d0a60d66940f3ab4a00c1d7b313497ca82fb0b4ab007930460205260409020546001600160a01b038481169116145b949350505050565b6000807a184f03e93ff9f4daa797ed6e38ed64bf6a1f0100000000000000008310612006577a184f03e93ff9f4daa797ed6e38ed64bf6a1f010000000000000000830492506040015b6d04ee2d6d415b85acef81000000008310612032576d04ee2d6d415b85acef8100000000830492506020015b662386f26fc10000831061205057662386f26fc10000830492506010015b6305f5e1008310612068576305f5e100830492506008015b612710831061207c57612710830492506004015b6064831061208e576064830492506002015b600a83106104a25760010192915050565b6001600160e01b031981168114610daa57600080fd5b6000602082840312156120c757600080fd5b8135611a8b8161209f565b60005b838110156120ed5781810151838201526020016120d5565b50506000910152565b6000815180845261210e8160208601602086016120d2565b601f01601f19169290920160200192915050565b602081526000611a8b60208301846120f6565b60006020828403121561214757600080fd5b5035919050565b80356001600160a01b038116811461216557600080fd5b919050565b6000806040838503121561217d57600080fd5b6121868361214e565b946020939093013593505050565b6000806000606084860312156121a957600080fd5b6121b28461214e565b92506121c06020850161214e565b9150604084013590509250925092565b60006101008083526121e48184018c6120f6565b905082810360208401526121f8818b6120f6565b9050828103604084015261220c818a6120f6565b90508760608401528660808401528560a08401528460c084015282810360e084015261223881856120f6565b9b9a5050505050505050505050565b60006020828403121561225957600080fd5b611a8b8261214e565b6020808252825182820181905260009190848201906040850190845b8181101561229a5783518352928401929184019160010161227e565b50909695505050505050565b600080604083850312156122b957600080fd5b6122c28361214e565b9150602083013580151581146122d757600080fd5b809150509250929050565b634e487b7160e01b600052604160045260246000fd5b6000806000806080858703121561230e57600080fd5b6123178561214e565b93506123256020860161214e565b925060408501359150606085013567ffffffffffffffff8082111561234957600080fd5b818701915087601f83011261235d57600080fd5b81358181111561236f5761236f6122e2565b604051601f8201601f19908116603f01168101908382118183101715612397576123976122e2565b816040528281528a60208487010111156123b057600080fd5b82602086016020830137600060208483010152809550505050505092959194509250565b600080604083850312156123e757600080fd5b6123f08361214e565b91506123fe6020840161214e565b90509250929050565b6000806040838503121561241a57600080fd5b6124238361214e565b9150602083013567ffffffffffffffff81111561243f57600080fd5b830161010081860312156122d757600080fd5b600181811c9082168061246657607f821691505b60208210810361248657634e487b7160e01b600052602260045260246000fd5b50919050565b634e487b7160e01b600052601160045260246000fd5b808201808211156104a2576104a261248c565b60008084546124c381612452565b600182811680156124db57600181146124f05761251f565b60ff198416875282151583028701945061251f565b8860005260208060002060005b858110156125165781548a8201529084019082016124fd565b50505082870194505b5050509381527f2e6a736f6e0000000000000000000000000000000000000000000000000000006020820152602501949350505050565b6000600182016125685761256861248c565b5060010190565b828152604060208201526000611fb560408301846120f6565b818103818111156104a2576104a261248c565b634e487b7160e01b600052603260045260246000fd5b600083516125c38184602088016120d2565b8351908301906125d78183602088016120d2565b01949350505050565b80820281158282048414176104a2576104a261248c565b60008261261457634e487b7160e01b600052601260045260246000fd5b500490565b6000808335601e1984360301811261263057600080fd5b83018035915067ffffffffffffffff82111561264b57600080fd5b60200191503681900382131561266057600080fd5b9250929050565b601f821115610c14576000816000526020600020601f850160051c810160208610156126905750805b601f850160051c820191505b81811015611a145782815560010161269c565b67ffffffffffffffff8311156126c7576126c76122e2565b6126db836126d58354612452565b83612667565b6000601f84116001811461270f57600085156126f75750838201355b600019600387901b1c1916600186901b178355611a16565b600083815260209020601f19861690835b828110156127405786850135825560209485019460019092019101612720565b508682101561275d5760001960f88860031b161c19848701351681555b505060018560011b0183555050505050565b6127798283612619565b67ffffffffffffffff811115612791576127916122e2565b6127a58161279f8554612452565b85612667565b6000601f8211600181146127d957600083156127c15750838201355b600019600385901b1c1916600184901b178555612833565b600085815260209020601f19841690835b8281101561280a57868501358255602094850194600190920191016127ea565b50848210156128275760001960f88660031b161c19848701351681555b505060018360011b0185555b505050506128446020830183612619565b6128528183600186016126af565b50506128616040830183612619565b61286f8183600286016126af565b5050606082013560038201556080820135600482015560a0820135600582015560c082013560068201556128a660e0830183612619565b6108128183600786016126af565b815167ffffffffffffffff8111156128ce576128ce6122e2565b6128e2816128dc8454612452565b84612667565b602080601f83116001811461291757600084156128ff5750858301515b600019600386901b1c1916600185901b178555611a14565b600085815260208120601f198616915b8281101561294657888601518255948401946001909101908401612927565b50858210156129645787850151600019600388901b60f8161c191681555b5050505050600190811b01905550565b60006001600160a01b038087168352808616602084015250836040830152608060608301526129a660808301846120f6565b9695505050505050565b6000602082840312156129c257600080fd5b8151611a8b8161209f56fea2646970667358221220b018e9bd17eff8efdde3f87df74b5efbfc86466ea158187e25501c87c87755fa64736f6c63430008180033",
  "linkReferences": {},
  "deployedLinkReferences": {}
}