{
  "_format": "hh-sol-artifact-1",
  "contractName": "MatchManager",
  "sourceName": "contracts/MatchManager.sol",
  "abi": [
    {
      "anonymous": false,
      "inputs": [
        {
          "indexed": false,
          "internalType": "uint256",
          "name": "battleId",
          "type": "uint256"
        },
        {
          "indexed": false,
          "internalType": "address",
          "name": "attacker",
          "type": "address"
        },
        {
          "indexed": false,
          "internalType": "uint256",
          "name": "damage",
          "type": "uint256"
        },
        {
          "indexed": false,
          "internalType": "address",
          "name": "target",
          "type": "address"
        },
        {
          "indexed": false,
          "internalType": "uint256",
          "name": "remainingHp",
          "type": "uint256"
        }
      ],
      "name": "Attack",
      "type": "event"
    },
    {
      "anonymous": false,
      "inputs": [
        {
          "indexed": false,
          "internalType": "uint256",
          "name": "battleId",
          "type": "uint256"
        },
        {
          "indexed": true,
          "internalType": "address",
          "name": "winner",
          "type": "address"
        }
      ],
      "name": "BattleEnded",
      "type": "event"
    },
    {
      "anonymous": false,
      "inputs": [
        {
          "indexed": false,
          "internalType": "uint256",
          "name": "battleId",
          "type": "uint256"
        },
        {
          "indexed": true,
          "internalType": "address",
          "name": "player1",
          "type": "address"
        },
        {
          "indexed": true,
          "internalType": "address",
          "name": "player2",
          "type": "address"
        }
      ],
      "name": "BattleStarted",
      "type": "event"
    },
    {
      "inputs": [
        {
          "internalType": "uint256",
          "name": "_battleId",
          "type": "uint256"
        },
        {
          "internalType": "uint256",
          "name": "attacker_damage",
          "type": "uint256"
        }
      ],
      "name": "attack",
      "outputs": [],
      "stateMutability": "nonpayable",
      "type": "function"
    },
    {
      "inputs": [],
      "name": "battleCounter",
      "outputs": [
        {
          "internalType": "uint256",
          "name": "",
          "type": "uint256"
        }
      ],
      "stateMutability": "view",
      "type": "function"
    },
    {
      "inputs": [
        {
          "internalType": "uint256",
          "name": "",
          "type": "uint256"
        }
      ],
      "name": "battles",
      "outputs": [
        {
          "components": [
            {
              "internalType": "address",
              "name": "playerAddress",
              "type": "address"
            },
            {
              "internalType": "uint256",
              "name": "hp",
              "type": "uint256"
            },
            {
              "internalType": "uint256",
              "name": "minDamage",
              "type": "uint256"
            },
            {
              "internalType": "uint256",
              "name": "maxDamage",
              "type": "uint256"
            }
          ],
          "internalType": "struct MatchManager.Player",
          "name": "player1",
          "type": "tuple"
        },
        {
          "components": [
            {
              "internalType": "address",
              "name": "playerAddress",
              "type": "address"
            },
            {
              "internalType": "uint256",
              "name": "hp",
              "type": "uint256"
            },
            {
              "internalType": "uint256",
              "name": "minDamage",
              "type": "uint256"
            },
            {
              "internalType": "uint256",
              "name": "maxDamage",
              "type": "uint256"
            }
          ],
          "internalType": "struct MatchManager.Player",
          "name": "player2",
          "type": "tuple"
        },
        {
          "internalType": "address",
          "name": "currentTurn",
          "type": "address"
        },
        {
          "internalType": "bool",
          "name": "active",
          "type": "bool"
        }
      ],
      "stateMutability": "view",
      "type": "function"
    },
    {
      "inputs": [
        {
          "internalType": "uint256",
          "name": "_battleId",
          "type": "uint256"
        }
      ],
      "name": "getHP",
      "outputs": [
        {
          "internalType": "uint256",
          "name": "p1HP",
          "type": "uint256"
        },
        {
          "internalType": "uint256",
          "name": "p2HP",
          "type": "uint256"
        }
      ],
      "stateMutability": "view",
      "type": "function"
    },
    {
      "inputs": [
        {
          "internalType": "address",
          "name": "_opponent",
          "type": "address"
        },
        {
          "internalType": "uint256",
          "name": "_player1MinDmg",
          "type": "uint256"
        },
        {
          "internalType": "uint256",
          "name": "_player1MaxDmg",
          "type": "uint256"
        },
        {
          "internalType": "uint256",
          "name": "_player2MinDmg",
          "type": "uint256"
        },
        {
          "internalType": "uint256",
          "name": "_player2MaxDmg",
          "type": "uint256"
        }
      ],
      "name": "startBattle",
      "outputs": [],
      "stateMutability": "nonpayable",
      "type": "function"
    }
  ],
  "bytecode": "0x608060405234801561001057600080fd5b506106e6806100206000396000f3fe608060405234801561001057600080fd5b50600436106100675760003560e01c8063a8d9f1aa11610050578063a8d9f1aa146101c0578063a9b9be3f146101d5578063e1fa7638146101ec57600080fd5b8063606d2e961461006c57806387d187ee14610180575b600080fd5b61010f61007a3660046105c4565b6000602081815291815260409081902081516080808201845282546001600160a01b039081168352600184015483870152600284015483860152600384015460608085019190915285519283018652600485015482168352600585015496830196909652600684015494820194909452600783015494810194909452600890910154909291811690600160a01b900460ff1684565b6040805185516001600160a01b0390811682526020808801518184015287840151838501526060978801518884015286518216608084015286015160a08301529185015160c0820152949093015160e085015291166101008301521515610120820152610140015b60405180910390f35b6101ab61018e3660046105c4565b600090815260208190526040902060018101546005909101549091565b60408051928352602083019190915201610177565b6101d36101ce3660046105dd565b6101ff565b005b6101de60015481565b604051908152602001610177565b6101d36101fa36600461062d565b610388565b6001805490600061020f8361067e565b90915550506040805161010081018252336080808301828152606460a0850181905260c085018a905260e08501899052908452845191820185526001600160a01b038a811680845260208481019390935283870189905260608085018990528387019485528688018681526001828901818152815460009081528088528b9020995180518b5490881673ffffffffffffffffffffffffffffffffffffffff19918216178c55818901518c850155818d015160028d01559085015160038c01559751805160048c01805491891691909a16179098559587015160058a0155868a015160068a015595909101516007880155516008909601805493511515600160a01b027fffffffffffffffffffffff0000000000000000000000000000000000000000009094169690921695909517919091179055549251919290917ffee930d10a180af369f35c753cbe7758b669fd187447cae2f147a9156c0757d0916103799190815260200190565b60405180910390a35050505050565b60008281526020819052604090206008810154600160a01b900460ff166103f65760405162461bcd60e51b815260206004820152601160248201527f426174746c652068617320656e6465642e00000000000000000000000000000060448201526064015b60405180910390fd5b60088101546001600160a01b031633146104525760405162461bcd60e51b815260206004820152600e60248201527f4e6f7420796f7572207475726e2100000000000000000000000000000000000060448201526064016103ed565b80546000906001600160a01b0316331461046f5781600401610471565b815b82549091506000906001600160a01b0316331461048e5782610493565b826004015b90508060010154841061051757600060018201556008830180547fffffffffffffffffffffff00ffffffffffffffffffffffffffffffffffffffff16905581546040518681526001600160a01b03909116907f31441bdee20d4f2b04147c4adc8cb7987cd9a676c7774dfc5540a7897d0781f89060200160405180910390a26105bd565b8381600101600082825461052b9190610697565b909155505080546001820154604080518881523360208201529081018790526001600160a01b03909216606083015260808201527ff530f0e99d022872410ca75e21c2d00762d9942d483e385715be157e8217fe2d9060a00160405180910390a1805460088401805473ffffffffffffffffffffffffffffffffffffffff19166001600160a01b039092169190911790555b5050505050565b6000602082840312156105d657600080fd5b5035919050565b600080600080600060a086880312156105f557600080fd5b85356001600160a01b038116811461060c57600080fd5b97602087013597506040870135966060810135965060800135945092505050565b6000806040838503121561064057600080fd5b50508035926020909101359150565b7f4e487b7100000000000000000000000000000000000000000000000000000000600052601160045260246000fd5b6000600182016106905761069061064f565b5060010190565b818103818111156106aa576106aa61064f565b9291505056fea2646970667358221220d4fc6de10f2393a3d2122cf3ca9d96ae94fd486d6799ed3387dae0764ae46e7264736f6c63430008180033",
  "linkReferences": {},
  "deployedLinkReferences": {}
}