{
  "_format": "hh-sol-artifact-1",
  "contractName": "MatchManager",
  "sourceName": "contracts/MatchManager.sol",
  "abi": [
    {
      "anonymous": false,
      "inputs": [
        {
          "indexed": false,
          "internalType": "uint256",
          "name": "battleId",
          "type": "uint256"
        },
        {
          "indexed": false,
          "internalType": "address",
          "name": "attacker",
          "type": "address"
        },
        {
          "indexed": false,
          "internalType": "uint256",
          "name": "damage",
          "type": "uint256"
        },
        {
          "indexed": false,
          "internalType": "address",
          "name": "target",
          "type": "address"
        },
        {
          "indexed": false,
          "internalType": "uint256",
          "name": "remainingHp",
          "type": "uint256"
        }
      ],
      "name": "Attack",
      "type": "event"
    },
    {
      "anonymous": false,
      "inputs": [
        {
          "indexed": false,
          "internalType": "uint256",
          "name": "battleId",
          "type": "uint256"
        },
        {
          "indexed": true,
          "internalType": "address",
          "name": "winner",
          "type": "address"
        }
      ],
      "name": "BattleEnded",
      "type": "event"
    },
    {
      "anonymous": false,
      "inputs": [
        {
          "indexed": false,
          "internalType": "uint256",
          "name": "battleId",
          "type": "uint256"
        },
        {
          "indexed": true,
          "internalType": "address",
          "name": "player1",
          "type": "address"
        },
        {
          "indexed": true,
          "internalType": "address",
          "name": "player2",
          "type": "address"
        },
        {
          "indexed": false,
          "internalType": "uint256",
          "name": "player1MinDmg",
          "type": "uint256"
        },
        {
          "indexed": false,
          "internalType": "uint256",
          "name": "player1MaxDmg",
          "type": "uint256"
        },
        {
          "indexed": false,
          "internalType": "uint256",
          "name": "player2MinDmg",
          "type": "uint256"
        },
        {
          "indexed": false,
          "internalType": "uint256",
          "name": "player2MaxDmg",
          "type": "uint256"
        }
      ],
      "name": "BattleStarted",
      "type": "event"
    },
    {
      "inputs": [
        {
          "internalType": "uint256",
          "name": "_battleId",
          "type": "uint256"
        },
        {
          "internalType": "uint256",
          "name": "attacker_damage",
          "type": "uint256"
        }
      ],
      "name": "attack",
      "outputs": [],
      "stateMutability": "nonpayable",
      "type": "function"
    },
    {
      "inputs": [],
      "name": "battleCounter",
      "outputs": [
        {
          "internalType": "uint256",
          "name": "",
          "type": "uint256"
        }
      ],
      "stateMutability": "view",
      "type": "function"
    },
    {
      "inputs": [
        {
          "internalType": "uint256",
          "name": "",
          "type": "uint256"
        }
      ],
      "name": "battles",
      "outputs": [
        {
          "components": [
            {
              "internalType": "address",
              "name": "playerAddress",
              "type": "address"
            },
            {
              "internalType": "uint256",
              "name": "hp",
              "type": "uint256"
            },
            {
              "internalType": "uint256",
              "name": "minDamage",
              "type": "uint256"
            },
            {
              "internalType": "uint256",
              "name": "maxDamage",
              "type": "uint256"
            }
          ],
          "internalType": "struct MatchManager.Player",
          "name": "player1",
          "type": "tuple"
        },
        {
          "components": [
            {
              "internalType": "address",
              "name": "playerAddress",
              "type": "address"
            },
            {
              "internalType": "uint256",
              "name": "hp",
              "type": "uint256"
            },
            {
              "internalType": "uint256",
              "name": "minDamage",
              "type": "uint256"
            },
            {
              "internalType": "uint256",
              "name": "maxDamage",
              "type": "uint256"
            }
          ],
          "internalType": "struct MatchManager.Player",
          "name": "player2",
          "type": "tuple"
        },
        {
          "internalType": "address",
          "name": "currentTurn",
          "type": "address"
        },
        {
          "internalType": "bool",
          "name": "active",
          "type": "bool"
        }
      ],
      "stateMutability": "view",
      "type": "function"
    },
    {
      "inputs": [
        {
          "internalType": "uint256",
          "name": "_battleId",
          "type": "uint256"
        }
      ],
      "name": "getHP",
      "outputs": [
        {
          "internalType": "uint256",
          "name": "p1HP",
          "type": "uint256"
        },
        {
          "internalType": "uint256",
          "name": "p2HP",
          "type": "uint256"
        }
      ],
      "stateMutability": "view",
      "type": "function"
    },
    {
      "inputs": [
        {
          "internalType": "address",
          "name": "_opponent",
          "type": "address"
        },
        {
          "internalType": "uint256",
          "name": "_player1MinDmg",
          "type": "uint256"
        },
        {
          "internalType": "uint256",
          "name": "_player1MaxDmg",
          "type": "uint256"
        },
        {
          "internalType": "uint256",
          "name": "_player2MinDmg",
          "type": "uint256"
        },
        {
          "internalType": "uint256",
          "name": "_player2MaxDmg",
          "type": "uint256"
        }
      ],
      "name": "startBattle",
      "outputs": [],
      "stateMutability": "nonpayable",
      "type": "function"
    }
  ],
  "bytecode": "0x608060405234801561001057600080fd5b506106f8806100206000396000f3fe608060405234801561001057600080fd5b50600436106100675760003560e01c8063a8d9f1aa11610050578063a8d9f1aa146101c0578063a9b9be3f146101d5578063e1fa7638146101ec57600080fd5b8063606d2e961461006c57806387d187ee14610180575b600080fd5b61010f61007a3660046105d6565b6000602081815291815260409081902081516080808201845282546001600160a01b039081168352600184015483870152600284015483860152600384015460608085019190915285519283018652600485015482168352600585015496830196909652600684015494820194909452600783015494810194909452600890910154909291811690600160a01b900460ff1684565b6040805185516001600160a01b0390811682526020808801518184015287840151838501526060978801518884015286518216608084015286015160a08301529185015160c0820152949093015160e085015291166101008301521515610120820152610140015b60405180910390f35b6101ab61018e3660046105d6565b600090815260208190526040902060018101546005909101549091565b60408051928352602083019190915201610177565b6101d36101ce3660046105ef565b6101ff565b005b6101de60015481565b604051908152602001610177565b6101d36101fa36600461063f565b61039a565b6001805490600061020f83610690565b90915550506040805161010081018252336080808301828152606460a080860182905260c086018b905260e086018a9052918552855180840187526001600160a01b038c81168083526020808401949094528289018b905260608084018b9052848901938452888a018881526001828b01818152815460009081528089528d90209b5180518d5490881673ffffffffffffffffffffffffffffffffffffffff19918216178e55818a01518e850155818f015160028f01559085015160038e01559651805160048e01805491891691909916179097558688015160058d0155868d015160068d01559583015160078c015590516008909a01805495511515600160a01b027fffffffffffffffffffffff0000000000000000000000000000000000000000009096169a9094169990991793909317909155955487519081529182018b9052958101899052948501879052908401859052919290917f33f7228e39b9baa3b6291d824a18c889606332f4ef9449a748b76174e7f4aeaf910160405180910390a35050505050565b60008281526020819052604090206008810154600160a01b900460ff166104085760405162461bcd60e51b815260206004820152601160248201527f426174746c652068617320656e6465642e00000000000000000000000000000060448201526064015b60405180910390fd5b60088101546001600160a01b031633146104645760405162461bcd60e51b815260206004820152600e60248201527f4e6f7420796f7572207475726e2100000000000000000000000000000000000060448201526064016103ff565b80546000906001600160a01b031633146104815781600401610483565b815b82549091506000906001600160a01b031633146104a057826104a5565b826004015b90508060010154841061052957600060018201556008830180547fffffffffffffffffffffff00ffffffffffffffffffffffffffffffffffffffff16905581546040518681526001600160a01b03909116907f31441bdee20d4f2b04147c4adc8cb7987cd9a676c7774dfc5540a7897d0781f89060200160405180910390a26105cf565b8381600101600082825461053d91906106a9565b909155505080546001820154604080518881523360208201529081018790526001600160a01b03909216606083015260808201527ff530f0e99d022872410ca75e21c2d00762d9942d483e385715be157e8217fe2d9060a00160405180910390a1805460088401805473ffffffffffffffffffffffffffffffffffffffff19166001600160a01b039092169190911790555b5050505050565b6000602082840312156105e857600080fd5b5035919050565b600080600080600060a0868803121561060757600080fd5b85356001600160a01b038116811461061e57600080fd5b97602087013597506040870135966060810135965060800135945092505050565b6000806040838503121561065257600080fd5b50508035926020909101359150565b7f4e487b7100000000000000000000000000000000000000000000000000000000600052601160045260246000fd5b6000600182016106a2576106a2610661565b5060010190565b818103818111156106bc576106bc610661565b9291505056fea2646970667358221220e35b272c82795a6046e910868b2f8f9a6cfc464fa7ffd0cea3b076acc90e59f164736f6c63430008180033",
  "linkReferences": {},
  "deployedLinkReferences": {}
}