{
  "_format": "hh-sol-artifact-1",
  "contractName": "OrganizerToken",
  "sourceName": "contracts/OrganiserToken.sol",
  "abi": [
    {
      "inputs": [
        {
          "internalType": "string",
          "name": "baseURI",
          "type": "string"
        }
      ],
      "stateMutability": "nonpayable",
      "type": "constructor"
    },
    {
      "inputs": [
        {
          "internalType": "address",
          "name": "sender",
          "type": "address"
        },
        {
          "internalType": "uint256",
          "name": "tokenId",
          "type": "uint256"
        },
        {
          "internalType": "address",
          "name": "owner",
          "type": "address"
        }
      ],
      "name": "ERC721IncorrectOwner",
      "type": "error"
    },
    {
      "inputs": [
        {
          "internalType": "address",
          "name": "operator",
          "type": "address"
        },
        {
          "internalType": "uint256",
          "name": "tokenId",
          "type": "uint256"
        }
      ],
      "name": "ERC721InsufficientApproval",
      "type": "error"
    },
    {
      "inputs": [
        {
          "internalType": "address",
          "name": "approver",
          "type": "address"
        }
      ],
      "name": "ERC721InvalidApprover",
      "type": "error"
    },
    {
      "inputs": [
        {
          "internalType": "address",
          "name": "operator",
          "type": "address"
        }
      ],
      "name": "ERC721InvalidOperator",
      "type": "error"
    },
    {
      "inputs": [
        {
          "internalType": "address",
          "name": "owner",
          "type": "address"
        }
      ],
      "name": "ERC721InvalidOwner",
      "type": "error"
    },
    {
      "inputs": [
        {
          "internalType": "address",
          "name": "receiver",
          "type": "address"
        }
      ],
      "name": "ERC721InvalidReceiver",
      "type": "error"
    },
    {
      "inputs": [
        {
          "internalType": "address",
          "name": "sender",
          "type": "address"
        }
      ],
      "name": "ERC721InvalidSender",
      "type": "error"
    },
    {
      "inputs": [
        {
          "internalType": "uint256",
          "name": "tokenId",
          "type": "uint256"
        }
      ],
      "name": "ERC721NonexistentToken",
      "type": "error"
    },
    {
      "inputs": [
        {
          "internalType": "address",
          "name": "owner",
          "type": "address"
        }
      ],
      "name": "OwnableInvalidOwner",
      "type": "error"
    },
    {
      "inputs": [
        {
          "internalType": "address",
          "name": "account",
          "type": "address"
        }
      ],
      "name": "OwnableUnauthorizedAccount",
      "type": "error"
    },
    {
      "anonymous": false,
      "inputs": [
        {
          "indexed": true,
          "internalType": "address",
          "name": "owner",
          "type": "address"
        },
        {
          "indexed": true,
          "internalType": "address",
          "name": "approved",
          "type": "address"
        },
        {
          "indexed": true,
          "internalType": "uint256",
          "name": "tokenId",
          "type": "uint256"
        }
      ],
      "name": "Approval",
      "type": "event"
    },
    {
      "anonymous": false,
      "inputs": [
        {
          "indexed": true,
          "internalType": "address",
          "name": "owner",
          "type": "address"
        },
        {
          "indexed": true,
          "internalType": "address",
          "name": "operator",
          "type": "address"
        },
        {
          "indexed": false,
          "internalType": "bool",
          "name": "approved",
          "type": "bool"
        }
      ],
      "name": "ApprovalForAll",
      "type": "event"
    },
    {
      "anonymous": false,
      "inputs": [
        {
          "indexed": true,
          "internalType": "address",
          "name": "organizer",
          "type": "address"
        },
        {
          "indexed": false,
          "internalType": "uint256",
          "name": "tokenId",
          "type": "uint256"
        }
      ],
      "name": "OrganizerBurned",
      "type": "event"
    },
    {
      "anonymous": false,
      "inputs": [
        {
          "indexed": true,
          "internalType": "address",
          "name": "organizer",
          "type": "address"
        },
        {
          "indexed": false,
          "internalType": "uint256",
          "name": "tokenId",
          "type": "uint256"
        }
      ],
      "name": "OrganizerMinted",
      "type": "event"
    },
    {
      "anonymous": false,
      "inputs": [
        {
          "indexed": true,
          "internalType": "address",
          "name": "previousOwner",
          "type": "address"
        },
        {
          "indexed": true,
          "internalType": "address",
          "name": "newOwner",
          "type": "address"
        }
      ],
      "name": "OwnershipTransferred",
      "type": "event"
    },
    {
      "anonymous": false,
      "inputs": [
        {
          "indexed": true,
          "internalType": "address",
          "name": "from",
          "type": "address"
        },
        {
          "indexed": true,
          "internalType": "address",
          "name": "to",
          "type": "address"
        },
        {
          "indexed": true,
          "internalType": "uint256",
          "name": "tokenId",
          "type": "uint256"
        }
      ],
      "name": "Transfer",
      "type": "event"
    },
    {
      "inputs": [
        {
          "internalType": "address",
          "name": "to",
          "type": "address"
        },
        {
          "internalType": "uint256",
          "name": "tokenId",
          "type": "uint256"
        }
      ],
      "name": "approve",
      "outputs": [],
      "stateMutability": "nonpayable",
      "type": "function"
    },
    {
      "inputs": [
        {
          "internalType": "address",
          "name": "owner",
          "type": "address"
        }
      ],
      "name": "balanceOf",
      "outputs": [
        {
          "internalType": "uint256",
          "name": "",
          "type": "uint256"
        }
      ],
      "stateMutability": "view",
      "type": "function"
    },
    {
      "inputs": [
        {
          "internalType": "uint256",
          "name": "tokenId",
          "type": "uint256"
        }
      ],
      "name": "burn",
      "outputs": [],
      "stateMutability": "nonpayable",
      "type": "function"
    },
    {
      "inputs": [
        {
          "internalType": "uint256",
          "name": "tokenId",
          "type": "uint256"
        }
      ],
      "name": "getApproved",
      "outputs": [
        {
          "internalType": "address",
          "name": "",
          "type": "address"
        }
      ],
      "stateMutability": "view",
      "type": "function"
    },
    {
      "inputs": [
        {
          "internalType": "address",
          "name": "",
          "type": "address"
        }
      ],
      "name": "hasToken",
      "outputs": [
        {
          "internalType": "bool",
          "name": "",
          "type": "bool"
        }
      ],
      "stateMutability": "view",
      "type": "function"
    },
    {
      "inputs": [
        {
          "internalType": "address",
          "name": "owner",
          "type": "address"
        },
        {
          "internalType": "address",
          "name": "operator",
          "type": "address"
        }
      ],
      "name": "isApprovedForAll",
      "outputs": [
        {
          "internalType": "bool",
          "name": "",
          "type": "bool"
        }
      ],
      "stateMutability": "view",
      "type": "function"
    },
    {
      "inputs": [
        {
          "internalType": "address",
          "name": "to",
          "type": "address"
        }
      ],
      "name": "mint",
      "outputs": [],
      "stateMutability": "nonpayable",
      "type": "function"
    },
    {
      "inputs": [],
      "name": "name",
      "outputs": [
        {
          "internalType": "string",
          "name": "",
          "type": "string"
        }
      ],
      "stateMutability": "view",
      "type": "function"
    },
    {
      "inputs": [],
      "name": "owner",
      "outputs": [
        {
          "internalType": "address",
          "name": "",
          "type": "address"
        }
      ],
      "stateMutability": "view",
      "type": "function"
    },
    {
      "inputs": [
        {
          "internalType": "uint256",
          "name": "tokenId",
          "type": "uint256"
        }
      ],
      "name": "ownerOf",
      "outputs": [
        {
          "internalType": "address",
          "name": "",
          "type": "address"
        }
      ],
      "stateMutability": "view",
      "type": "function"
    },
    {
      "inputs": [],
      "name": "renounceOwnership",
      "outputs": [],
      "stateMutability": "nonpayable",
      "type": "function"
    },
    {
      "inputs": [
        {
          "internalType": "address",
          "name": "from",
          "type": "address"
        },
        {
          "internalType": "address",
          "name": "to",
          "type": "address"
        },
        {
          "internalType": "uint256",
          "name": "tokenId",
          "type": "uint256"
        }
      ],
      "name": "safeTransferFrom",
      "outputs": [],
      "stateMutability": "nonpayable",
      "type": "function"
    },
    {
      "inputs": [
        {
          "internalType": "address",
          "name": "from",
          "type": "address"
        },
        {
          "internalType": "address",
          "name": "to",
          "type": "address"
        },
        {
          "internalType": "uint256",
          "name": "tokenId",
          "type": "uint256"
        },
        {
          "internalType": "bytes",
          "name": "data",
          "type": "bytes"
        }
      ],
      "name": "safeTransferFrom",
      "outputs": [],
      "stateMutability": "nonpayable",
      "type": "function"
    },
    {
      "inputs": [
        {
          "internalType": "address",
          "name": "operator",
          "type": "address"
        },
        {
          "internalType": "bool",
          "name": "approved",
          "type": "bool"
        }
      ],
      "name": "setApprovalForAll",
      "outputs": [],
      "stateMutability": "nonpayable",
      "type": "function"
    },
    {
      "inputs": [
        {
          "internalType": "bytes4",
          "name": "interfaceId",
          "type": "bytes4"
        }
      ],
      "name": "supportsInterface",
      "outputs": [
        {
          "internalType": "bool",
          "name": "",
          "type": "bool"
        }
      ],
      "stateMutability": "view",
      "type": "function"
    },
    {
      "inputs": [],
      "name": "symbol",
      "outputs": [
        {
          "internalType": "string",
          "name": "",
          "type": "string"
        }
      ],
      "stateMutability": "view",
      "type": "function"
    },
    {
      "inputs": [
        {
          "internalType": "uint256",
          "name": "tokenId",
          "type": "uint256"
        }
      ],
      "name": "tokenURI",
      "outputs": [
        {
          "internalType": "string",
          "name": "",
          "type": "string"
        }
      ],
      "stateMutability": "view",
      "type": "function"
    },
    {
      "inputs": [
        {
          "internalType": "address",
          "name": "from",
          "type": "address"
        },
        {
          "internalType": "address",
          "name": "to",
          "type": "address"
        },
        {
          "internalType": "uint256",
          "name": "tokenId",
          "type": "uint256"
        }
      ],
      "name": "transferFrom",
      "outputs": [],
      "stateMutability": "nonpayable",
      "type": "function"
    },
    {
      "inputs": [
        {
          "internalType": "address",
          "name": "newOwner",
          "type": "address"
        }
      ],
      "name": "transferOwnership",
      "outputs": [],
      "stateMutability": "nonpayable",
      "type": "function"
    }
  ],
  "bytecode": "0x60806040523480156200001157600080fd5b506040516200180e3803806200180e833981016040819052620000349162000163565b336040518060400160405280601581526020017f4576656e74204f7267616e697a657220546f6b656e0000000000000000000000815250604051806040016040528060038152602001621153d560ea1b8152508160009081620000989190620002c9565b506001620000a78282620002c9565b5050506001600160a01b038116620000d957604051631e4fbdf760e01b81526000600482015260240160405180910390fd5b620000e481620000fb565b506008620000f38282620002c9565b505062000395565b600680546001600160a01b038381166001600160a01b0319831681179093556040519116919082907f8be0079c531659141344cd1fd0a4f28419497f9722a3daafe3b4186f6b6457e090600090a35050565b634e487b7160e01b600052604160045260246000fd5b600060208083850312156200017757600080fd5b82516001600160401b03808211156200018f57600080fd5b818501915085601f830112620001a457600080fd5b815181811115620001b957620001b96200014d565b604051601f8201601f19908116603f01168101908382118183101715620001e457620001e46200014d565b816040528281528886848701011115620001fd57600080fd5b600093505b8284101562000221578484018601518185018701529285019262000202565b600086848301015280965050505050505092915050565b600181811c908216806200024d57607f821691505b6020821081036200026e57634e487b7160e01b600052602260045260246000fd5b50919050565b601f821115620002c4576000816000526020600020601f850160051c810160208610156200029f5750805b601f850160051c820191505b81811015620002c057828155600101620002ab565b5050505b505050565b81516001600160401b03811115620002e557620002e56200014d565b620002fd81620002f6845462000238565b8462000274565b602080601f8311600181146200033557600084156200031c5750858301515b600019600386901b1c1916600185901b178555620002c0565b600085815260208120601f198616915b82811015620003665788860151825594840194600190910190840162000345565b5085821015620003855787850151600019600388901b60f8161c191681555b5050505050600190811b01905550565b61146980620003a56000396000f3fe608060405234801561001057600080fd5b50600436106101515760003560e01c806370a08231116100cd578063a22cb46511610081578063c87b56dd11610066578063c87b56dd146102bd578063e985e9c5146102d0578063f2fde38b1461030c57600080fd5b8063a22cb46514610297578063b88d4fde146102aa57600080fd5b80638da5cb5b116100b25780638da5cb5b1461025b57806395d89b411461026c5780639bb0f5991461027457600080fd5b806370a0823114610232578063715018a61461025357600080fd5b806323b872dd1161012457806342966c681161010957806342966c68146101f95780636352211e1461020c5780636a6278421461021f57600080fd5b806323b872dd146101d357806342842e0e146101e657600080fd5b806301ffc9a71461015657806306fdde031461017e578063081812fc14610193578063095ea7b3146101be575b600080fd5b61016961016436600461101f565b61031f565b60405190151581526020015b60405180910390f35b6101866103bc565b6040516101759190611089565b6101a66101a136600461109c565b61044e565b6040516001600160a01b039091168152602001610175565b6101d16101cc3660046110d1565b610477565b005b6101d16101e13660046110fb565b610486565b6101d16101f43660046110fb565b61052f565b6101d161020736600461109c565b61054f565b6101a661021a36600461109c565b6105cb565b6101d161022d366004611137565b6105d6565b610245610240366004611137565b6106bd565b604051908152602001610175565b6101d161071e565b6006546001600160a01b03166101a6565b610186610732565b610169610282366004611137565b60096020526000908152604090205460ff1681565b6101d16102a5366004611152565b610741565b6101d16102b83660046111a4565b61074c565b6101866102cb36600461109c565b610764565b6101696102de366004611280565b6001600160a01b03918216600090815260056020908152604080832093909416825291909152205460ff1690565b6101d161031a366004611137565b6107f3565b60006001600160e01b031982167f80ac58cd00000000000000000000000000000000000000000000000000000000148061038257506001600160e01b031982167f5b5e139f00000000000000000000000000000000000000000000000000000000145b806103b657507f01ffc9a7000000000000000000000000000000000000000000000000000000006001600160e01b03198316145b92915050565b6060600080546103cb906112b3565b80601f01602080910402602001604051908101604052809291908181526020018280546103f7906112b3565b80156104445780601f1061041957610100808354040283529160200191610444565b820191906000526020600020905b81548152906001019060200180831161042757829003601f168201915b5050505050905090565b60006104598261084a565b506000828152600460205260409020546001600160a01b03166103b6565b610482828233610883565b5050565b6001600160a01b0382166104b557604051633250574960e11b8152600060048201526024015b60405180910390fd5b60006104c2838333610890565b9050836001600160a01b0316816001600160a01b031614610529576040517f64283d7b0000000000000000000000000000000000000000000000000000000081526001600160a01b03808616600483015260248201849052821660448201526064016104ac565b50505050565b61054a8383836040518060200160405280600081525061074c565b505050565b610557610942565b6000610562826105cb565b905061056d82610988565b6001600160a01b03811660008181526009602052604090819020805460ff19169055517f3dfb50c37a1aa6a6a18e5e19e2e9a87c77b96646f25861a6c916ed3c440b96b6906105bf9085815260200190565b60405180910390a25050565b60006103b68261084a565b6105de610942565b6001600160a01b03811660009081526009602052604090205460ff16156106475760405162461bcd60e51b815260206004820152601460248201527f416c726561647920616e206f7267616e697a657200000000000000000000000060448201526064016104ac565b6007805460009182610658836112ed565b91905055905061066882826109c3565b6001600160a01b03821660008181526009602052604090819020805460ff19166001179055517f4d6d14c0e3e94def060052adc32f8e99740e55406a0addf8c56dbc7504a06319906105bf9084815260200190565b60006001600160a01b038216610702576040517f89c62b64000000000000000000000000000000000000000000000000000000008152600060048201526024016104ac565b506001600160a01b031660009081526003602052604090205490565b610726610942565b61073060006109dd565b565b6060600180546103cb906112b3565b610482338383610a3c565b610757848484610486565b6105293385858585610af4565b6000818152600260205260409020546060906001600160a01b03166107cb5760405162461bcd60e51b815260206004820152601460248201527f546f6b656e20646f6573206e6f7420657869737400000000000000000000000060448201526064016104ac565b60086040516020016107dd9190611314565b6040516020818303038152906040529050919050565b6107fb610942565b6001600160a01b03811661083e576040517f1e4fbdf7000000000000000000000000000000000000000000000000000000008152600060048201526024016104ac565b610847816109dd565b50565b6000818152600260205260408120546001600160a01b0316806103b657604051637e27328960e01b8152600481018490526024016104ac565b61054a8383836001610c1f565b6000828152600260205260408120546001600160a01b03168015806108bc57506001600160a01b038516155b61092e5760405162461bcd60e51b815260206004820152602160248201527f536f756c626f756e643a205472616e7366657273206172652064697361626c6560448201527f640000000000000000000000000000000000000000000000000000000000000060648201526084016104ac565b610939858585610d6a565b95945050505050565b6006546001600160a01b03163314610730576040517f118cdaa70000000000000000000000000000000000000000000000000000000081523360048201526024016104ac565b60006109976000836000610890565b90506001600160a01b03811661048257604051637e27328960e01b8152600481018390526024016104ac565b610482828260405180602001604052806000815250610e70565b600680546001600160a01b0383811673ffffffffffffffffffffffffffffffffffffffff19831681179093556040519116919082907f8be0079c531659141344cd1fd0a4f28419497f9722a3daafe3b4186f6b6457e090600090a35050565b6001600160a01b038216610a87576040517f5b08ba180000000000000000000000000000000000000000000000000000000081526001600160a01b03831660048201526024016104ac565b6001600160a01b03838116600081815260056020908152604080832094871680845294825291829020805460ff191686151590811790915591519182527f17307eab39ab6107e8899845ad3d59bd9653f200f220920489ca2b5937696c31910160405180910390a3505050565b6001600160a01b0383163b15610c1857604051630a85bd0160e11b81526001600160a01b0384169063150b7a0290610b369088908890879087906004016113da565b6020604051808303816000875af1925050508015610b71575060408051601f3d908101601f19168201909252610b6e91810190611416565b60015b610bda573d808015610b9f576040519150601f19603f3d011682016040523d82523d6000602084013e610ba4565b606091505b508051600003610bd257604051633250574960e11b81526001600160a01b03851660048201526024016104ac565b805181602001fd5b6001600160e01b03198116630a85bd0160e11b14610c1657604051633250574960e11b81526001600160a01b03851660048201526024016104ac565b505b5050505050565b8080610c3357506001600160a01b03821615155b15610d2d576000610c438461084a565b90506001600160a01b03831615801590610c6f5750826001600160a01b0316816001600160a01b031614155b8015610ca157506001600160a01b0380821660009081526005602090815260408083209387168352929052205460ff16155b15610ce3576040517fa9fbf51f0000000000000000000000000000000000000000000000000000000081526001600160a01b03841660048201526024016104ac565b8115610d2b5783856001600160a01b0316826001600160a01b03167f8c5be1e5ebec7d5bd14f71427d1e84f3dd0314c0f7b2291e5b200ac8c7c3b92560405160405180910390a45b505b50506000908152600460205260409020805473ffffffffffffffffffffffffffffffffffffffff19166001600160a01b0392909216919091179055565b6000828152600260205260408120546001600160a01b0390811690831615610d9757610d97818486610e88565b6001600160a01b03811615610dd557610db4600085600080610c1f565b6001600160a01b038116600090815260036020526040902080546000190190555b6001600160a01b03851615610e04576001600160a01b0385166000908152600360205260409020805460010190555b600084815260026020526040808220805473ffffffffffffffffffffffffffffffffffffffff19166001600160a01b0389811691821790925591518793918516917fddf252ad1be2c89b69c2b068fc378daa952ba7f163c4a11628f55a4df523b3ef91a4949350505050565b610e7a8383610f05565b61054a336000858585610af4565b610e93838383610f83565b61054a576001600160a01b038316610ec157604051637e27328960e01b8152600481018290526024016104ac565b6040517f177e802f0000000000000000000000000000000000000000000000000000000081526001600160a01b0383166004820152602481018290526044016104ac565b6001600160a01b038216610f2f57604051633250574960e11b8152600060048201526024016104ac565b6000610f3d83836000610890565b90506001600160a01b0381161561054a576040517f73c6ac6e000000000000000000000000000000000000000000000000000000008152600060048201526024016104ac565b60006001600160a01b038316158015906110015750826001600160a01b0316846001600160a01b03161480610fdd57506001600160a01b0380851660009081526005602090815260408083209387168352929052205460ff165b8061100157506000828152600460205260409020546001600160a01b038481169116145b949350505050565b6001600160e01b03198116811461084757600080fd5b60006020828403121561103157600080fd5b813561103c81611009565b9392505050565b6000815180845260005b818110156110695760208185018101518683018201520161104d565b506000602082860101526020601f19601f83011685010191505092915050565b60208152600061103c6020830184611043565b6000602082840312156110ae57600080fd5b5035919050565b80356001600160a01b03811681146110cc57600080fd5b919050565b600080604083850312156110e457600080fd5b6110ed836110b5565b946020939093013593505050565b60008060006060848603121561111057600080fd5b611119846110b5565b9250611127602085016110b5565b9150604084013590509250925092565b60006020828403121561114957600080fd5b61103c826110b5565b6000806040838503121561116557600080fd5b61116e836110b5565b91506020830135801515811461118357600080fd5b809150509250929050565b634e487b7160e01b600052604160045260246000fd5b600080600080608085870312156111ba57600080fd5b6111c3856110b5565b93506111d1602086016110b5565b925060408501359150606085013567ffffffffffffffff808211156111f557600080fd5b818701915087601f83011261120957600080fd5b81358181111561121b5761121b61118e565b604051601f8201601f19908116603f011681019083821181831017156112435761124361118e565b816040528281528a602084870101111561125c57600080fd5b82602086016020830137600060208483010152809550505050505092959194509250565b6000806040838503121561129357600080fd5b61129c836110b5565b91506112aa602084016110b5565b90509250929050565b600181811c908216806112c757607f821691505b6020821081036112e757634e487b7160e01b600052602260045260246000fd5b50919050565b60006001820161130d57634e487b7160e01b600052601160045260246000fd5b5060010190565b60008083548160018260011c9150600183168061133257607f831692505b6020808410820361135157634e487b7160e01b86526022600452602486fd5b818015611365576001811461137a576113a7565b60ff19861689528415158502890196506113a7565b60008a81526020902060005b8681101561139f5781548b820152908501908301611386565b505084890196505b505050505050611001817f302e6a736f6e0000000000000000000000000000000000000000000000000000815260060190565b60006001600160a01b0380871683528086166020840152508360408301526080606083015261140c6080830184611043565b9695505050505050565b60006020828403121561142857600080fd5b815161103c8161100956fea26469706673582212200170d32411adffff42d97d2454761c66846351399bf6b80bcd3cb436fe15dc7e64736f6c63430008180033",
  "linkReferences": {},
  "deployedLinkReferences": {}
}