{
  "_format": "hh-sol-artifact-1",
  "contractName": "CeloPaymaster",
  "sourceName": "contracts/CeloPaymaster.sol",
  "abi": [
    {
      "inputs": [
        {
          "internalType": "contract IEntryPoint",
          "name": "_entryPoint",
          "type": "address"
        },
        {
          "internalType": "address",
          "name": "_verifyingSigner",
          "type": "address"
        }
      ],
      "stateMutability": "nonpayable",
      "type": "constructor"
    },
    {
      "inputs": [],
      "name": "ECDSAInvalidSignature",
      "type": "error"
    },
    {
      "inputs": [
        {
          "internalType": "uint256",
          "name": "length",
          "type": "uint256"
        }
      ],
      "name": "ECDSAInvalidSignatureLength",
      "type": "error"
    },
    {
      "inputs": [
        {
          "internalType": "bytes32",
          "name": "s",
          "type": "bytes32"
        }
      ],
      "name": "ECDSAInvalidSignatureS",
      "type": "error"
    },
    {
      "inputs": [
        {
          "internalType": "address",
          "name": "owner",
          "type": "address"
        }
      ],
      "name": "OwnableInvalidOwner",
      "type": "error"
    },
    {
      "inputs": [
        {
          "internalType": "address",
          "name": "account",
          "type": "address"
        }
      ],
      "name": "OwnableUnauthorizedAccount",
      "type": "error"
    },
    {
      "anonymous": false,
      "inputs": [
        {
          "indexed": true,
          "internalType": "address",
          "name": "previousOwner",
          "type": "address"
        },
        {
          "indexed": true,
          "internalType": "address",
          "name": "newOwner",
          "type": "address"
        }
      ],
      "name": "OwnershipTransferred",
      "type": "event"
    },
    {
      "anonymous": false,
      "inputs": [
        {
          "indexed": false,
          "internalType": "address",
          "name": "newSigner",
          "type": "address"
        }
      ],
      "name": "VerifyingSignerUpdated",
      "type": "event"
    },
    {
      "inputs": [
        {
          "internalType": "uint32",
          "name": "unstakeDelaySec",
          "type": "uint32"
        }
      ],
      "name": "addStake",
      "outputs": [],
      "stateMutability": "payable",
      "type": "function"
    },
    {
      "inputs": [],
      "name": "deposit",
      "outputs": [],
      "stateMutability": "payable",
      "type": "function"
    },
    {
      "inputs": [],
      "name": "entryPoint",
      "outputs": [
        {
          "internalType": "contract IEntryPoint",
          "name": "",
          "type": "address"
        }
      ],
      "stateMutability": "view",
      "type": "function"
    },
    {
      "inputs": [],
      "name": "getDeposit",
      "outputs": [
        {
          "internalType": "uint256",
          "name": "",
          "type": "uint256"
        }
      ],
      "stateMutability": "view",
      "type": "function"
    },
    {
      "inputs": [
        {
          "components": [
            {
              "internalType": "address",
              "name": "sender",
              "type": "address"
            },
            {
              "internalType": "uint256",
              "name": "nonce",
              "type": "uint256"
            },
            {
              "internalType": "bytes",
              "name": "initCode",
              "type": "bytes"
            },
            {
              "internalType": "bytes",
              "name": "callData",
              "type": "bytes"
            },
            {
              "internalType": "bytes32",
              "name": "accountGasLimits",
              "type": "bytes32"
            },
            {
              "internalType": "uint256",
              "name": "preVerificationGas",
              "type": "uint256"
            },
            {
              "internalType": "bytes32",
              "name": "gasFees",
              "type": "bytes32"
            },
            {
              "internalType": "bytes",
              "name": "paymasterAndData",
              "type": "bytes"
            },
            {
              "internalType": "bytes",
              "name": "signature",
              "type": "bytes"
            }
          ],
          "internalType": "struct PackedUserOperation",
          "name": "userOp",
          "type": "tuple"
        },
        {
          "internalType": "uint48",
          "name": "validUntil",
          "type": "uint48"
        },
        {
          "internalType": "uint48",
          "name": "validAfter",
          "type": "uint48"
        }
      ],
      "name": "getTypedDataHash",
      "outputs": [
        {
          "internalType": "bytes32",
          "name": "",
          "type": "bytes32"
        }
      ],
      "stateMutability": "view",
      "type": "function"
    },
    {
      "inputs": [],
      "name": "owner",
      "outputs": [
        {
          "internalType": "address",
          "name": "",
          "type": "address"
        }
      ],
      "stateMutability": "view",
      "type": "function"
    },
    {
      "inputs": [
        {
          "components": [
            {
              "internalType": "address",
              "name": "sender",
              "type": "address"
            },
            {
              "internalType": "uint256",
              "name": "nonce",
              "type": "uint256"
            },
            {
              "internalType": "bytes",
              "name": "initCode",
              "type": "bytes"
            },
            {
              "internalType": "bytes",
              "name": "callData",
              "type": "bytes"
            },
            {
              "internalType": "bytes32",
              "name": "accountGasLimits",
              "type": "bytes32"
            },
            {
              "internalType": "uint256",
              "name": "preVerificationGas",
              "type": "uint256"
            },
            {
              "internalType": "bytes32",
              "name": "gasFees",
              "type": "bytes32"
            },
            {
              "internalType": "bytes",
              "name": "paymasterAndData",
              "type": "bytes"
            },
            {
              "internalType": "bytes",
              "name": "signature",
              "type": "bytes"
            }
          ],
          "internalType": "struct PackedUserOperation",
          "name": "userOp",
          "type": "tuple"
        }
      ],
      "name": "pack",
      "outputs": [
        {
          "internalType": "bytes",
          "name": "ret",
          "type": "bytes"
        }
      ],
      "stateMutability": "pure",
      "type": "function"
    },
    {
      "inputs": [
        {
          "internalType": "bytes",
          "name": "paymasterAndData",
          "type": "bytes"
        }
      ],
      "name": "parsePaymasterAndData",
      "outputs": [
        {
          "internalType": "uint48",
          "name": "validUntil",
          "type": "uint48"
        },
        {
          "internalType": "uint48",
          "name": "validAfter",
          "type": "uint48"
        },
        {
          "internalType": "bytes",
          "name": "signature",
          "type": "bytes"
        }
      ],
      "stateMutability": "pure",
      "type": "function"
    },
    {
      "inputs": [
        {
          "internalType": "enum IPaymaster.PostOpMode",
          "name": "mode",
          "type": "uint8"
        },
        {
          "internalType": "bytes",
          "name": "context",
          "type": "bytes"
        },
        {
          "internalType": "uint256",
          "name": "actualGasCost",
          "type": "uint256"
        },
        {
          "internalType": "uint256",
          "name": "actualUserOpFeePerGas",
          "type": "uint256"
        }
      ],
      "name": "postOp",
      "outputs": [],
      "stateMutability": "nonpayable",
      "type": "function"
    },
    {
      "inputs": [],
      "name": "renounceOwnership",
      "outputs": [],
      "stateMutability": "nonpayable",
      "type": "function"
    },
    {
      "inputs": [
        {
          "internalType": "address",
          "name": "",
          "type": "address"
        }
      ],
      "name": "senderNonce",
      "outputs": [
        {
          "internalType": "uint256",
          "name": "",
          "type": "uint256"
        }
      ],
      "stateMutability": "view",
      "type": "function"
    },
    {
      "inputs": [
        {
          "internalType": "address",
          "name": "_newSigner",
          "type": "address"
        }
      ],
      "name": "setVerifyingSigner",
      "outputs": [],
      "stateMutability": "nonpayable",
      "type": "function"
    },
    {
      "inputs": [
        {
          "internalType": "address",
          "name": "newOwner",
          "type": "address"
        }
      ],
      "name": "transferOwnership",
      "outputs": [],
      "stateMutability": "nonpayable",
      "type": "function"
    },
    {
      "inputs": [],
      "name": "unlockStake",
      "outputs": [],
      "stateMutability": "nonpayable",
      "type": "function"
    },
    {
      "inputs": [
        {
          "components": [
            {
              "internalType": "address",
              "name": "sender",
              "type": "address"
            },
            {
              "internalType": "uint256",
              "name": "nonce",
              "type": "uint256"
            },
            {
              "internalType": "bytes",
              "name": "initCode",
              "type": "bytes"
            },
            {
              "internalType": "bytes",
              "name": "callData",
              "type": "bytes"
            },
            {
              "internalType": "bytes32",
              "name": "accountGasLimits",
              "type": "bytes32"
            },
            {
              "internalType": "uint256",
              "name": "preVerificationGas",
              "type": "uint256"
            },
            {
              "internalType": "bytes32",
              "name": "gasFees",
              "type": "bytes32"
            },
            {
              "internalType": "bytes",
              "name": "paymasterAndData",
              "type": "bytes"
            },
            {
              "internalType": "bytes",
              "name": "signature",
              "type": "bytes"
            }
          ],
          "internalType": "struct PackedUserOperation",
          "name": "userOp",
          "type": "tuple"
        },
        {
          "internalType": "bytes32",
          "name": "userOpHash",
          "type": "bytes32"
        },
        {
          "internalType": "uint256",
          "name": "maxCost",
          "type": "uint256"
        }
      ],
      "name": "validatePaymasterUserOp",
      "outputs": [
        {
          "internalType": "bytes",
          "name": "context",
          "type": "bytes"
        },
        {
          "internalType": "uint256",
          "name": "validationData",
          "type": "uint256"
        }
      ],
      "stateMutability": "nonpayable",
      "type": "function"
    },
    {
      "inputs": [],
      "name": "verifyingSigner",
      "outputs": [
        {
          "internalType": "address",
          "name": "",
          "type": "address"
        }
      ],
      "stateMutability": "view",
      "type": "function"
    },
    {
      "inputs": [
        {
          "internalType": "address payable",
          "name": "withdrawAddress",
          "type": "address"
        }
      ],
      "name": "withdrawStake",
      "outputs": [],
      "stateMutability": "nonpayable",
      "type": "function"
    },
    {
      "inputs": [
        {
          "internalType": "address payable",
          "name": "withdrawAddress",
          "type": "address"
        },
        {
          "internalType": "uint256",
          "name": "amount",
          "type": "uint256"
        }
      ],
      "name": "withdrawTo",
      "outputs": [],
      "stateMutability": "nonpayable",
      "type": "function"
    }
  ],
  "bytecode": "0x60a06040523480156200001157600080fd5b50604051620016d9380380620016d98339810160408190526200003491620001ca565b8133806200005d57604051631e4fbdf760e01b8152600060048201526024015b60405180910390fd5b6200006881620000a1565b506200007481620000f1565b6001600160a01b03908116608052600180546001600160a01b031916929091169190911790555062000234565b600080546001600160a01b038381166001600160a01b0319831681178455604051919092169283917f8be0079c531659141344cd1fd0a4f28419497f9722a3daafe3b4186f6b6457e09190a35050565b6040516301ffc9a760e01b815263122a0e9b60e31b60048201526001600160a01b038216906301ffc9a790602401602060405180830381865afa1580156200013d573d6000803e3d6000fd5b505050506040513d601f19601f8201168201806040525081019062000163919062000209565b620001b15760405162461bcd60e51b815260206004820152601e60248201527f49456e747279506f696e7420696e74657266616365206d69736d617463680000604482015260640162000054565b50565b6001600160a01b0381168114620001b157600080fd5b60008060408385031215620001de57600080fd5b8251620001eb81620001b4565b6020840151909250620001fe81620001b4565b809150509250929050565b6000602082840312156200021c57600080fd5b815180151581146200022d57600080fd5b9392505050565b60805161145862000281600039600081816102eb015281816103db0152818161048b015281816106690152818161071c015281816107a50152818161084b0152610a0401526114586000f3fe6080604052600436106101295760003560e01c806399810065116100a5578063c23a5cea11610074578063d0e30db011610059578063d0e30db014610357578063f2fde38b1461035f578063f5cba98c1461037f57600080fd5b8063c23a5cea14610322578063c399ec881461034257600080fd5b8063998100651461027e5780639c90b443146102ac578063b0d691fe146102d9578063bb9fe6bf1461030d57600080fd5b80635c17fdc0116100fc5780637c627b21116100e15780637c627b21146102105780638da5cb5b1461023057806394d4ad601461024e57600080fd5b80635c17fdc0146101ce578063715018a6146101fb57600080fd5b80630396cb601461012e578063205c28781461014357806323d9ac9b1461016357806352b7512c146101a0575b600080fd5b61014161013c366004610fc9565b61039f565b005b34801561014f57600080fd5b5061014161015e36600461100b565b610444565b34801561016f57600080fd5b50600154610183906001600160a01b031681565b6040516001600160a01b0390911681526020015b60405180910390f35b3480156101ac57600080fd5b506101c06101bb366004611050565b6104cf565b6040516101979291906110e4565b3480156101da57600080fd5b506101ee6101e9366004611106565b6104f3565b6040516101979190611143565b34801561020757600080fd5b50610141610531565b34801561021c57600080fd5b5061014161022b36600461119f565b610545565b34801561023c57600080fd5b506000546001600160a01b0316610183565b34801561025a57600080fd5b5061026e61026936600461120a565b610561565b604051610197949392919061124c565b34801561028a57600080fd5b5061029e6102993660046112b3565b61059e565b604051908152602001610197565b3480156102b857600080fd5b5061029e6102c7366004611311565b60026020526000908152604090205481565b3480156102e557600080fd5b506101837f000000000000000000000000000000000000000000000000000000000000000081565b34801561031957600080fd5b5061014161065f565b34801561032e57600080fd5b5061014161033d366004611311565b6106dc565b34801561034e57600080fd5b5061029e610774565b61014161081d565b34801561036b57600080fd5b5061014161037a366004611311565b610898565b34801561038b57600080fd5b5061014161039a366004611311565b6108f4565b6103a76109b3565b6040517f0396cb6000000000000000000000000000000000000000000000000000000000815263ffffffff821660048201527f00000000000000000000000000000000000000000000000000000000000000006001600160a01b031690630396cb609034906024016000604051808303818588803b15801561042857600080fd5b505af115801561043c573d6000803e3d6000fd5b505050505050565b61044c6109b3565b6040517f205c28780000000000000000000000000000000000000000000000000000000081526001600160a01b038381166004830152602482018390527f0000000000000000000000000000000000000000000000000000000000000000169063205c287890604401600060405180830381600087803b15801561042857600080fd5b606060006104db6109f9565b6104e6858585610a71565b915091505b935093915050565b606036600061050560e085018561132e565b915091508360208184030360405194506020810185016040528085528082602087013750505050919050565b6105396109b3565b6105436000610c9c565b565b61054d6109f9565b61055a8585858585610cf9565b5050505050565b6000803681610574605460148789611375565b810190610581919061139f565b90945092506105938560548189611375565b949793965094505050565b60007f128a8b4a662b9922edce8126490d989d1649a0b6692722bdb4eac21f9ba80c8b6105ca856104f3565b805190602001204630600260006105df8a3590565b6001600160a01b039081168252602080830193909352604091820160002054825193840197909752908201949094526060810192909252909116608082015260a081019190915265ffffffffffff80851660c0830152831660e0820152610100016040516020818303038152906040528051906020012090509392505050565b6106676109b3565b7f00000000000000000000000000000000000000000000000000000000000000006001600160a01b031663bb9fe6bf6040518163ffffffff1660e01b8152600401600060405180830381600087803b1580156106c257600080fd5b505af11580156106d6573d6000803e3d6000fd5b50505050565b6106e46109b3565b6040517fc23a5cea0000000000000000000000000000000000000000000000000000000081526001600160a01b0382811660048301527f0000000000000000000000000000000000000000000000000000000000000000169063c23a5cea90602401600060405180830381600087803b15801561076057600080fd5b505af115801561055a573d6000803e3d6000fd5b6040517f70a082310000000000000000000000000000000000000000000000000000000081523060048201526000907f00000000000000000000000000000000000000000000000000000000000000006001600160a01b0316906370a0823190602401602060405180830381865afa1580156107f4573d6000803e3d6000fd5b505050506040513d601f19601f8201168201806040525081019061081891906113d2565b905090565b6040517fb760faf90000000000000000000000000000000000000000000000000000000081523060048201527f00000000000000000000000000000000000000000000000000000000000000006001600160a01b03169063b760faf99034906024016000604051808303818588803b15801561076057600080fd5b6108a06109b3565b6001600160a01b0381166108e8576040517f1e4fbdf7000000000000000000000000000000000000000000000000000000008152600060048201526024015b60405180910390fd5b6108f181610c9c565b50565b6108fc6109b3565b6001600160a01b0381166109525760405162461bcd60e51b815260206004820152600e60248201527f496e76616c6964207369676e657200000000000000000000000000000000000060448201526064016108df565b6001805473ffffffffffffffffffffffffffffffffffffffff19166001600160a01b0383169081179091556040519081527f51d754ac8f7adf515a023f2c423e01ef97817c1af33cb63b36f1fe12fde2d91a9060200160405180910390a150565b6000546001600160a01b03163314610543576040517f118cdaa70000000000000000000000000000000000000000000000000000000081523360048201526024016108df565b336001600160a01b037f000000000000000000000000000000000000000000000000000000000000000016146105435760405162461bcd60e51b815260206004820152601560248201527f53656e646572206e6f7420456e747279506f696e74000000000000000000000060448201526064016108df565b6060600080803681610a8961026960e08b018b61132e565b929650909450925090506040811480610aa25750604181145b610b16576040805162461bcd60e51b81526020600482015260248101919091527f566572696679696e675061796d61737465723a20696e76616c6964207369676e60448201527f6174757265206c656e67746820696e207061796d6173746572416e644461746160648201526084016108df565b6000610b59610b268b878761059e565b7f19457468657265756d205369676e6564204d6573736167653a0a3332000000006000908152601c91909152603c902090565b6001600160a01b038b3516600090815260026020526040902054909150610b819060016113eb565b8a6020013514610bd35760405162461bcd60e51b815260206004820152600d60248201527f496e76616c6964206e6f6e63650000000000000000000000000000000000000060448201526064016108df565b6001600160a01b038a35166000908152600260209081526040918290208c82013590558151601f8501829004820281018201909252838252610c319183918690869081908401838280828437600092019190915250610d4192505050565b6001546001600160a01b03908116911614610c7157610c5260018686610d6d565b60405180602001604052806000815250909650965050505050506104eb565b610c7d60008686610d6d565b6040805160208101909152600081529b909a5098505050505050505050565b600080546001600160a01b0383811673ffffffffffffffffffffffffffffffffffffffff19831681178455604051919092169283917f8be0079c531659141344cd1fd0a4f28419497f9722a3daafe3b4186f6b6457e09190a35050565b60405162461bcd60e51b815260206004820152600d60248201527f6d757374206f766572726964650000000000000000000000000000000000000060448201526064016108df565b600080600080610d518686610da5565b925092509250610d618282610df2565b50909150505b92915050565b600060d08265ffffffffffff16901b60a08465ffffffffffff16901b85610d95576000610d98565b60015b60ff161717949350505050565b60008060008351604103610ddf5760208401516040850151606086015160001a610dd188828585610efa565b955095509550505050610deb565b50508151600091506002905b9250925092565b6000826003811115610e0657610e0661140c565b03610e0f575050565b6001826003811115610e2357610e2361140c565b03610e5a576040517ff645eedf00000000000000000000000000000000000000000000000000000000815260040160405180910390fd5b6002826003811115610e6e57610e6e61140c565b03610ea8576040517ffce698f7000000000000000000000000000000000000000000000000000000008152600481018290526024016108df565b6003826003811115610ebc57610ebc61140c565b03610ef6576040517fd78bce0c000000000000000000000000000000000000000000000000000000008152600481018290526024016108df565b5050565b600080807f7fffffffffffffffffffffffffffffff5d576e7357a4501ddfe92f46681b20a0841115610f355750600091506003905082610fbf565b604080516000808252602082018084528a905260ff891692820192909252606081018790526080810186905260019060a0016020604051602081039080840390855afa158015610f89573d6000803e3d6000fd5b5050604051601f1901519150506001600160a01b038116610fb557506000925060019150829050610fbf565b9250600091508190505b9450945094915050565b600060208284031215610fdb57600080fd5b813563ffffffff81168114610fef57600080fd5b9392505050565b6001600160a01b03811681146108f157600080fd5b6000806040838503121561101e57600080fd5b823561102981610ff6565b946020939093013593505050565b6000610120828403121561104a57600080fd5b50919050565b60008060006060848603121561106557600080fd5b833567ffffffffffffffff81111561107c57600080fd5b61108886828701611037565b9660208601359650604090950135949350505050565b6000815180845260005b818110156110c4576020818501810151868301820152016110a8565b506000602082860101526020601f19601f83011685010191505092915050565b6040815260006110f7604083018561109e565b90508260208301529392505050565b60006020828403121561111857600080fd5b813567ffffffffffffffff81111561112f57600080fd5b61113b84828501611037565b949350505050565b602081526000610fef602083018461109e565b60008083601f84011261116857600080fd5b50813567ffffffffffffffff81111561118057600080fd5b60208301915083602082850101111561119857600080fd5b9250929050565b6000806000806000608086880312156111b757600080fd5b8535600381106111c657600080fd5b9450602086013567ffffffffffffffff8111156111e257600080fd5b6111ee88828901611156565b9699909850959660408101359660609091013595509350505050565b6000806020838503121561121d57600080fd5b823567ffffffffffffffff81111561123457600080fd5b61124085828601611156565b90969095509350505050565b600065ffffffffffff808716835280861660208401525060606040830152826060830152828460808401376000608084840101526080601f19601f850116830101905095945050505050565b803565ffffffffffff811681146112ae57600080fd5b919050565b6000806000606084860312156112c857600080fd5b833567ffffffffffffffff8111156112df57600080fd5b6112eb86828701611037565b9350506112fa60208501611298565b915061130860408501611298565b90509250925092565b60006020828403121561132357600080fd5b8135610fef81610ff6565b6000808335601e1984360301811261134557600080fd5b83018035915067ffffffffffffffff82111561136057600080fd5b60200191503681900382131561119857600080fd5b6000808585111561138557600080fd5b8386111561139257600080fd5b5050820193919092039150565b600080604083850312156113b257600080fd5b6113bb83611298565b91506113c960208401611298565b90509250929050565b6000602082840312156113e457600080fd5b5051919050565b80820180821115610d6757634e487b7160e01b600052601160045260246000fd5b634e487b7160e01b600052602160045260246000fdfea2646970667358221220e9596e9771a828fb8b220cc7352f5ec15a258d4f057e0f0d2e75f0eb7511b84264736f6c63430008180033",
  "linkReferences": {},
  "deployedLinkReferences": {}
}