{
  "contracts/MatchManager.sol": {
    "MatchManager": {
      "abi": [
        {
          "anonymous": false,
          "inputs": [
            {
              "indexed": false,
              "internalType": "uint256",
              "name": "battleId",
              "type": "uint256"
            },
            {
              "indexed": false,
              "internalType": "address",
              "name": "attacker",
              "type": "address"
            },
            {
              "indexed": false,
              "internalType": "uint256",
              "name": "damage",
              "type": "uint256"
            },
            {
              "indexed": false,
              "internalType": "address",
              "name": "target",
              "type": "address"
            },
            {
              "indexed": false,
              "internalType": "uint256",
              "name": "remainingHp",
              "type": "uint256"
            }
          ],
          "name": "Attack",
          "type": "event"
        },
        {
          "anonymous": false,
          "inputs": [
            {
              "indexed": false,
              "internalType": "uint256",
              "name": "battleId",
              "type": "uint256"
            },
            {
              "indexed": true,
              "internalType": "address",
              "name": "winner",
              "type": "address"
            }
          ],
          "name": "BattleEnded",
          "type": "event"
        },
        {
          "anonymous": false,
          "inputs": [
            {
              "indexed": false,
              "internalType": "uint256",
              "name": "battleId",
              "type": "uint256"
            },
            {
              "indexed": true,
              "internalType": "address",
              "name": "player1",
              "type": "address"
            },
            {
              "indexed": true,
              "internalType": "address",
              "name": "player2",
              "type": "address"
            }
          ],
          "name": "BattleStarted",
          "type": "event"
        },
        {
          "inputs": [
            {
              "internalType": "uint256",
              "name": "_battleId",
              "type": "uint256"
            }
          ],
          "name": "attack",
          "outputs": [],
          "stateMutability": "nonpayable",
          "type": "function"
        },
        {
          "inputs": [],
          "name": "battleCounter",
          "outputs": [
            {
              "internalType": "uint256",
              "name": "",
              "type": "uint256"
            }
          ],
          "stateMutability": "view",
          "type": "function"
        },
        {
          "inputs": [
            {
              "internalType": "uint256",
              "name": "",
              "type": "uint256"
            }
          ],
          "name": "battles",
          "outputs": [
            {
              "components": [
                {
                  "internalType": "address",
                  "name": "playerAddress",
                  "type": "address"
                },
                {
                  "internalType": "uint256",
                  "name": "hp",
                  "type": "uint256"
                },
                {
                  "internalType": "uint256",
                  "name": "minDamage",
                  "type": "uint256"
                },
                {
                  "internalType": "uint256",
                  "name": "maxDamage",
                  "type": "uint256"
                }
              ],
              "internalType": "struct MatchManager.Player",
              "name": "player1",
              "type": "tuple"
            },
            {
              "components": [
                {
                  "internalType": "address",
                  "name": "playerAddress",
                  "type": "address"
                },
                {
                  "internalType": "uint256",
                  "name": "hp",
                  "type": "uint256"
                },
                {
                  "internalType": "uint256",
                  "name": "minDamage",
                  "type": "uint256"
                },
                {
                  "internalType": "uint256",
                  "name": "maxDamage",
                  "type": "uint256"
                }
              ],
              "internalType": "struct MatchManager.Player",
              "name": "player2",
              "type": "tuple"
            },
            {
              "internalType": "address",
              "name": "currentTurn",
              "type": "address"
            },
            {
              "internalType": "bool",
              "name": "active",
              "type": "bool"
            }
          ],
          "stateMutability": "view",
          "type": "function"
        },
        {
          "inputs": [
            {
              "internalType": "uint256",
              "name": "_battleId",
              "type": "uint256"
            }
          ],
          "name": "getHP",
          "outputs": [
            {
              "internalType": "uint256",
              "name": "p1HP",
              "type": "uint256"
            },
            {
              "internalType": "uint256",
              "name": "p2HP",
              "type": "uint256"
            }
          ],
          "stateMutability": "view",
          "type": "function"
        },
        {
          "inputs": [
            {
              "internalType": "address",
              "name": "_opponent",
              "type": "address"
            },
            {
              "internalType": "uint256",
              "name": "_player1MinDmg",
              "type": "uint256"
            },
            {
              "internalType": "uint256",
              "name": "_player1MaxDmg",
              "type": "uint256"
            },
            {
              "internalType": "uint256",
              "name": "_player2MinDmg",
              "type": "uint256"
            },
            {
              "internalType": "uint256",
              "name": "_player2MaxDmg",
              "type": "uint256"
            }
          ],
          "name": "startBattle",
          "outputs": [],
          "stateMutability": "nonpayable",
          "type": "function"
        }
      ],
      "evm": {
        "bytecode": {
          "linkReferences": {},
          "object": "608060405234801561001057600080fd5b506110f1806100206000396000f3fe608060405234801561001057600080fd5b50600436106100575760003560e01c8063606d2e961461005c57806364dd891a1461008f57806387d187ee146100ab578063a8d9f1aa146100dc578063a9b9be3f146100f8575b600080fd5b61007660048036038101906100719190610a7a565b610116565b6040516100869493929190610b76565b60405180910390f35b6100a960048036038101906100a49190610a7a565b61026f565b005b6100c560048036038101906100c09190610a7a565b610625565b6040516100d3929190610bcd565b60405180910390f35b6100f660048036038101906100f19190610c22565b610658565b005b6101006108e4565b60405161010d9190610c9d565b60405180910390f35b6000602052806000526040600020600091509050806000016040518060800160405290816000820160009054906101000a900473ffffffffffffffffffffffffffffffffffffffff1673ffffffffffffffffffffffffffffffffffffffff1673ffffffffffffffffffffffffffffffffffffffff168152602001600182015481526020016002820154815260200160038201548152505090806004016040518060800160405290816000820160009054906101000a900473ffffffffffffffffffffffffffffffffffffffff1673ffffffffffffffffffffffffffffffffffffffff1673ffffffffffffffffffffffffffffffffffffffff1681526020016001820154815260200160028201548152602001600382015481525050908060080160009054906101000a900473ffffffffffffffffffffffffffffffffffffffff16908060080160149054906101000a900460ff16905084565b600080600083815260200190815260200160002090508060080160149054906101000a900460ff166102d6576040517f08c379a00000000000000000000000000000000000000000000000000000000081526004016102cd90610d15565b60405180910390fd5b8060080160009054906101000a900473ffffffffffffffffffffffffffffffffffffffff1673ffffffffffffffffffffffffffffffffffffffff163373ffffffffffffffffffffffffffffffffffffffff1614610368576040517f08c379a000000000000000000000000000000000000000000000000000000000815260040161035f90610d81565b60405180910390fd5b60008160000160000160009054906101000a900473ffffffffffffffffffffffffffffffffffffffff1673ffffffffffffffffffffffffffffffffffffffff163373ffffffffffffffffffffffffffffffffffffffff16146103cd57816004016103d2565b816000015b905060008260000160000160009054906101000a900473ffffffffffffffffffffffffffffffffffffffff1673ffffffffffffffffffffffffffffffffffffffff163373ffffffffffffffffffffffffffffffffffffffff1614610439578260000161043e565b826004015b9050600061044a6108ea565b905060006001846002015485600301546104649190610dd0565b61046e9190610e04565b826104799190610e67565b84600201546104889190610e04565b905082600101548110610533576000836001018190555060008560080160146101000a81548160ff0219169083151502179055508360000160009054906101000a900473ffffffffffffffffffffffffffffffffffffffff1673ffffffffffffffffffffffffffffffffffffffff167f31441bdee20d4f2b04147c4adc8cb7987cd9a676c7774dfc5540a7897d0781f8876040516105269190610c9d565b60405180910390a261061d565b808360010160008282546105479190610dd0565b925050819055507ff530f0e99d022872410ca75e21c2d00762d9942d483e385715be157e8217fe2d8633838660000160009054906101000a900473ffffffffffffffffffffffffffffffffffffffff1687600101546040516105ad959493929190610e98565b60405180910390a18260000160009054906101000a900473ffffffffffffffffffffffffffffffffffffffff168560080160006101000a81548173ffffffffffffffffffffffffffffffffffffffff021916908373ffffffffffffffffffffffffffffffffffffffff1602179055505b505050505050565b60008060008060008581526020019081526020016000209050806000016001015481600401600101549250925050915091565b6001600081548092919061066b90610eeb565b9190505550604051806080016040528060405180608001604052803373ffffffffffffffffffffffffffffffffffffffff1681526020016064815260200187815260200186815250815260200160405180608001604052808873ffffffffffffffffffffffffffffffffffffffff168152602001606481526020018581526020018481525081526020013373ffffffffffffffffffffffffffffffffffffffff16815260200160011515815250600080600154815260200190815260200160002060008201518160000160008201518160000160006101000a81548173ffffffffffffffffffffffffffffffffffffffff021916908373ffffffffffffffffffffffffffffffffffffffff160217905550602082015181600101556040820151816002015560608201518160030155505060208201518160040160008201518160000160006101000a81548173ffffffffffffffffffffffffffffffffffffffff021916908373ffffffffffffffffffffffffffffffffffffffff160217905550602082015181600101556040820151816002015560608201518160030155505060408201518160080160006101000a81548173ffffffffffffffffffffffffffffffffffffffff021916908373ffffffffffffffffffffffffffffffffffffffff16021790555060608201518160080160146101000a81548160ff0219169083151502179055509050508473ffffffffffffffffffffffffffffffffffffffff163373ffffffffffffffffffffffffffffffffffffffff167ffee930d10a180af369f35c753cbe7758b669fd187447cae2f147a9156c0757d06001546040516108d59190610c9d565b60405180910390a35050505050565b60015481565b6000617a694603610928574244604051602001610908929190610f54565b6040516020818303038152906040528051906020012060001c9050610a3c565b61ce1073ffffffffffffffffffffffffffffffffffffffff1663dd92723360405160200161095590610fd7565b604051602081830303815290604052805190602001206040518263ffffffff1660e01b81526004016109879190611005565b602060405180830381865afa1580156109a4573d6000803e3d6000fd5b505050506040513d601f19601f820116820180604052508101906109c89190611035565b73ffffffffffffffffffffffffffffffffffffffff16635ec01e4d6040518163ffffffff1660e01b8152600401602060405180830381865afa158015610a12573d6000803e3d6000fd5b505050506040513d601f19601f82011682018060405250810190610a36919061108e565b60001c90505b90565b600080fd5b6000819050919050565b610a5781610a44565b8114610a6257600080fd5b50565b600081359050610a7481610a4e565b92915050565b600060208284031215610a9057610a8f610a3f565b5b6000610a9e84828501610a65565b91505092915050565b600073ffffffffffffffffffffffffffffffffffffffff82169050919050565b6000610ad282610aa7565b9050919050565b610ae281610ac7565b82525050565b610af181610a44565b82525050565b608082016000820151610b0d6000850182610ad9565b506020820151610b206020850182610ae8565b506040820151610b336040850182610ae8565b506060820151610b466060850182610ae8565b50505050565b610b5581610ac7565b82525050565b60008115159050919050565b610b7081610b5b565b82525050565b600061014082019050610b8c6000830187610af7565b610b996080830186610af7565b610ba7610100830185610b4c565b610bb5610120830184610b67565b95945050505050565b610bc781610a44565b82525050565b6000604082019050610be26000830185610bbe565b610bef6020830184610bbe565b9392505050565b610bff81610ac7565b8114610c0a57600080fd5b50565b600081359050610c1c81610bf6565b92915050565b600080600080600060a08688031215610c3e57610c3d610a3f565b5b6000610c4c88828901610c0d565b9550506020610c5d88828901610a65565b9450506040610c6e88828901610a65565b9350506060610c7f88828901610a65565b9250506080610c9088828901610a65565b9150509295509295909350565b6000602082019050610cb26000830184610bbe565b92915050565b600082825260208201905092915050565b7f426174746c652068617320656e6465642e000000000000000000000000000000600082015250565b6000610cff601183610cb8565b9150610d0a82610cc9565b602082019050919050565b60006020820190508181036000830152610d2e81610cf2565b9050919050565b7f4e6f7420796f7572207475726e21000000000000000000000000000000000000600082015250565b6000610d6b600e83610cb8565b9150610d7682610d35565b602082019050919050565b60006020820190508181036000830152610d9a81610d5e565b9050919050565b7f4e487b7100000000000000000000000000000000000000000000000000000000600052601160045260246000fd5b6000610ddb82610a44565b9150610de683610a44565b9250828203905081811115610dfe57610dfd610da1565b5b92915050565b6000610e0f82610a44565b9150610e1a83610a44565b9250828201905080821115610e3257610e31610da1565b5b92915050565b7f4e487b7100000000000000000000000000000000000000000000000000000000600052601260045260246000fd5b6000610e7282610a44565b9150610e7d83610a44565b925082610e8d57610e8c610e38565b5b828206905092915050565b600060a082019050610ead6000830188610bbe565b610eba6020830187610b4c565b610ec76040830186610bbe565b610ed46060830185610b4c565b610ee16080830184610bbe565b9695505050505050565b6000610ef682610a44565b91507fffffffffffffffffffffffffffffffffffffffffffffffffffffffffffffffff8203610f2857610f27610da1565b5b600182019050919050565b6000819050919050565b610f4e610f4982610a44565b610f33565b82525050565b6000610f608285610f3d565b602082019150610f708284610f3d565b6020820191508190509392505050565b600081905092915050565b7f52616e646f6d0000000000000000000000000000000000000000000000000000600082015250565b6000610fc1600683610f80565b9150610fcc82610f8b565b600682019050919050565b6000610fe282610fb4565b9150819050919050565b6000819050919050565b610fff81610fec565b82525050565b600060208201905061101a6000830184610ff6565b92915050565b60008151905061102f81610bf6565b92915050565b60006020828403121561104b5761104a610a3f565b5b600061105984828501611020565b91505092915050565b61106b81610fec565b811461107657600080fd5b50565b60008151905061108881611062565b92915050565b6000602082840312156110a4576110a3610a3f565b5b60006110b284828501611079565b9150509291505056fea26469706673582212206157ab9704a87e9e6d8b06da5f42d8c6f7ee79608314d46d317f4f039d67044e64736f6c63430008180033",
          "opcodes": "PUSH1 0x80 PUSH1 0x40 MSTORE CALLVALUE DUP1 ISZERO PUSH2 0x10 JUMPI PUSH1 0x0 DUP1 REVERT JUMPDEST POP PUSH2 0x10F1 DUP1 PUSH2 0x20 PUSH1 0x0 CODECOPY PUSH1 0x0 RETURN INVALID PUSH1 0x80 PUSH1 0x40 MSTORE CALLVALUE DUP1 ISZERO PUSH2 0x10 JUMPI PUSH1 0x0 DUP1 REVERT JUMPDEST POP PUSH1 0x4 CALLDATASIZE LT PUSH2 0x57 JUMPI PUSH1 0x0 CALLDATALOAD PUSH1 0xE0 SHR DUP1 PUSH4 0x606D2E96 EQ PUSH2 0x5C JUMPI DUP1 PUSH4 0x64DD891A EQ PUSH2 0x8F JUMPI DUP1 PUSH4 0x87D187EE EQ PUSH2 0xAB JUMPI DUP1 PUSH4 0xA8D9F1AA EQ PUSH2 0xDC JUMPI DUP1 PUSH4 0xA9B9BE3F EQ PUSH2 0xF8 JUMPI JUMPDEST PUSH1 0x0 DUP1 REVERT JUMPDEST PUSH2 0x76 PUSH1 0x4 DUP1 CALLDATASIZE SUB DUP2 ADD SWAP1 PUSH2 0x71 SWAP2 SWAP1 PUSH2 0xA7A JUMP JUMPDEST PUSH2 0x116 JUMP JUMPDEST PUSH1 0x40 MLOAD PUSH2 0x86 SWAP5 SWAP4 SWAP3 SWAP2 SWAP1 PUSH2 0xB76 JUMP JUMPDEST PUSH1 0x40 MLOAD DUP1 SWAP2 SUB SWAP1 RETURN JUMPDEST PUSH2 0xA9 PUSH1 0x4 DUP1 CALLDATASIZE SUB DUP2 ADD SWAP1 PUSH2 0xA4 SWAP2 SWAP1 PUSH2 0xA7A JUMP JUMPDEST PUSH2 0x26F JUMP JUMPDEST STOP JUMPDEST PUSH2 0xC5 PUSH1 0x4 DUP1 CALLDATASIZE SUB DUP2 ADD SWAP1 PUSH2 0xC0 SWAP2 SWAP1 PUSH2 0xA7A JUMP JUMPDEST PUSH2 0x625 JUMP JUMPDEST PUSH1 0x40 MLOAD PUSH2 0xD3 SWAP3 SWAP2 SWAP1 PUSH2 0xBCD JUMP JUMPDEST PUSH1 0x40 MLOAD DUP1 SWAP2 SUB SWAP1 RETURN JUMPDEST PUSH2 0xF6 PUSH1 0x4 DUP1 CALLDATASIZE SUB DUP2 ADD SWAP1 PUSH2 0xF1 SWAP2 SWAP1 PUSH2 0xC22 JUMP JUMPDEST PUSH2 0x658 JUMP JUMPDEST STOP JUMPDEST PUSH2 0x100 PUSH2 0x8E4 JUMP JUMPDEST PUSH1 0x40 MLOAD PUSH2 0x10D SWAP2 SWAP1 PUSH2 0xC9D JUMP JUMPDEST PUSH1 0x40 MLOAD DUP1 SWAP2 SUB SWAP1 RETURN JUMPDEST PUSH1 0x0 PUSH1 0x20 MSTORE DUP1 PUSH1 0x0 MSTORE PUSH1 0x40 PUSH1 0x0 KECCAK256 PUSH1 0x0 SWAP2 POP SWAP1 POP DUP1 PUSH1 0x0 ADD PUSH1 0x40 MLOAD DUP1 PUSH1 0x80 ADD PUSH1 0x40 MSTORE SWAP1 DUP2 PUSH1 0x0 DUP3 ADD PUSH1 0x0 SWAP1 SLOAD SWAP1 PUSH2 0x100 EXP SWAP1 DIV PUSH20 0xFFFFFFFFFFFFFFFFFFFFFFFFFFFFFFFFFFFFFFFF AND PUSH20 0xFFFFFFFFFFFFFFFFFFFFFFFFFFFFFFFFFFFFFFFF AND PUSH20 0xFFFFFFFFFFFFFFFFFFFFFFFFFFFFFFFFFFFFFFFF AND DUP2 MSTORE PUSH1 0x20 ADD PUSH1 0x1 DUP3 ADD SLOAD DUP2 MSTORE PUSH1 0x20 ADD PUSH1 0x2 DUP3 ADD SLOAD DUP2 MSTORE PUSH1 0x20 ADD PUSH1 0x3 DUP3 ADD SLOAD DUP2 MSTORE POP POP SWAP1 DUP1 PUSH1 0x4 ADD PUSH1 0x40 MLOAD DUP1 PUSH1 0x80 ADD PUSH1 0x40 MSTORE SWAP1 DUP2 PUSH1 0x0 DUP3 ADD PUSH1 0x0 SWAP1 SLOAD SWAP1 PUSH2 0x100 EXP SWAP1 DIV PUSH20 0xFFFFFFFFFFFFFFFFFFFFFFFFFFFFFFFFFFFFFFFF AND PUSH20 0xFFFFFFFFFFFFFFFFFFFFFFFFFFFFFFFFFFFFFFFF AND PUSH20 0xFFFFFFFFFFFFFFFFFFFFFFFFFFFFFFFFFFFFFFFF AND DUP2 MSTORE PUSH1 0x20 ADD PUSH1 0x1 DUP3 ADD SLOAD DUP2 MSTORE PUSH1 0x20 ADD PUSH1 0x2 DUP3 ADD SLOAD DUP2 MSTORE PUSH1 0x20 ADD PUSH1 0x3 DUP3 ADD SLOAD DUP2 MSTORE POP POP SWAP1 DUP1 PUSH1 0x8 ADD PUSH1 0x0 SWAP1 SLOAD SWAP1 PUSH2 0x100 EXP SWAP1 DIV PUSH20 0xFFFFFFFFFFFFFFFFFFFFFFFFFFFFFFFFFFFFFFFF AND SWAP1 DUP1 PUSH1 0x8 ADD PUSH1 0x14 SWAP1 SLOAD SWAP1 PUSH2 0x100 EXP SWAP1 DIV PUSH1 0xFF AND SWAP1 POP DUP5 JUMP JUMPDEST PUSH1 0x0 DUP1 PUSH1 0x0 DUP4 DUP2 MSTORE PUSH1 0x20 ADD SWAP1 DUP2 MSTORE PUSH1 0x20 ADD PUSH1 0x0 KECCAK256 SWAP1 POP DUP1 PUSH1 0x8 ADD PUSH1 0x14 SWAP1 SLOAD SWAP1 PUSH2 0x100 EXP SWAP1 DIV PUSH1 0xFF AND PUSH2 0x2D6 JUMPI PUSH1 0x40 MLOAD PUSH32 0x8C379A000000000000000000000000000000000000000000000000000000000 DUP2 MSTORE PUSH1 0x4 ADD PUSH2 0x2CD SWAP1 PUSH2 0xD15 JUMP JUMPDEST PUSH1 0x40 MLOAD DUP1 SWAP2 SUB SWAP1 REVERT JUMPDEST DUP1 PUSH1 0x8 ADD PUSH1 0x0 SWAP1 SLOAD SWAP1 PUSH2 0x100 EXP SWAP1 DIV PUSH20 0xFFFFFFFFFFFFFFFFFFFFFFFFFFFFFFFFFFFFFFFF AND PUSH20 0xFFFFFFFFFFFFFFFFFFFFFFFFFFFFFFFFFFFFFFFF AND CALLER PUSH20 0xFFFFFFFFFFFFFFFFFFFFFFFFFFFFFFFFFFFFFFFF AND EQ PUSH2 0x368 JUMPI PUSH1 0x40 MLOAD PUSH32 0x8C379A000000000000000000000000000000000000000000000000000000000 DUP2 MSTORE PUSH1 0x4 ADD PUSH2 0x35F SWAP1 PUSH2 0xD81 JUMP JUMPDEST PUSH1 0x40 MLOAD DUP1 SWAP2 SUB SWAP1 REVERT JUMPDEST PUSH1 0x0 DUP2 PUSH1 0x0 ADD PUSH1 0x0 ADD PUSH1 0x0 SWAP1 SLOAD SWAP1 PUSH2 0x100 EXP SWAP1 DIV PUSH20 0xFFFFFFFFFFFFFFFFFFFFFFFFFFFFFFFFFFFFFFFF AND PUSH20 0xFFFFFFFFFFFFFFFFFFFFFFFFFFFFFFFFFFFFFFFF AND CALLER PUSH20 0xFFFFFFFFFFFFFFFFFFFFFFFFFFFFFFFFFFFFFFFF AND EQ PUSH2 0x3CD JUMPI DUP2 PUSH1 0x4 ADD PUSH2 0x3D2 JUMP JUMPDEST DUP2 PUSH1 0x0 ADD JUMPDEST SWAP1 POP PUSH1 0x0 DUP3 PUSH1 0x0 ADD PUSH1 0x0 ADD PUSH1 0x0 SWAP1 SLOAD SWAP1 PUSH2 0x100 EXP SWAP1 DIV PUSH20 0xFFFFFFFFFFFFFFFFFFFFFFFFFFFFFFFFFFFFFFFF AND PUSH20 0xFFFFFFFFFFFFFFFFFFFFFFFFFFFFFFFFFFFFFFFF AND CALLER PUSH20 0xFFFFFFFFFFFFFFFFFFFFFFFFFFFFFFFFFFFFFFFF AND EQ PUSH2 0x439 JUMPI DUP3 PUSH1 0x0 ADD PUSH2 0x43E JUMP JUMPDEST DUP3 PUSH1 0x4 ADD JUMPDEST SWAP1 POP PUSH1 0x0 PUSH2 0x44A PUSH2 0x8EA JUMP JUMPDEST SWAP1 POP PUSH1 0x0 PUSH1 0x1 DUP5 PUSH1 0x2 ADD SLOAD DUP6 PUSH1 0x3 ADD SLOAD PUSH2 0x464 SWAP2 SWAP1 PUSH2 0xDD0 JUMP JUMPDEST PUSH2 0x46E SWAP2 SWAP1 PUSH2 0xE04 JUMP JUMPDEST DUP3 PUSH2 0x479 SWAP2 SWAP1 PUSH2 0xE67 JUMP JUMPDEST DUP5 PUSH1 0x2 ADD SLOAD PUSH2 0x488 SWAP2 SWAP1 PUSH2 0xE04 JUMP JUMPDEST SWAP1 POP DUP3 PUSH1 0x1 ADD SLOAD DUP2 LT PUSH2 0x533 JUMPI PUSH1 0x0 DUP4 PUSH1 0x1 ADD DUP2 SWAP1 SSTORE POP PUSH1 0x0 DUP6 PUSH1 0x8 ADD PUSH1 0x14 PUSH2 0x100 EXP DUP2 SLOAD DUP2 PUSH1 0xFF MUL NOT AND SWAP1 DUP4 ISZERO ISZERO MUL OR SWAP1 SSTORE POP DUP4 PUSH1 0x0 ADD PUSH1 0x0 SWAP1 SLOAD SWAP1 PUSH2 0x100 EXP SWAP1 DIV PUSH20 0xFFFFFFFFFFFFFFFFFFFFFFFFFFFFFFFFFFFFFFFF AND PUSH20 0xFFFFFFFFFFFFFFFFFFFFFFFFFFFFFFFFFFFFFFFF AND PUSH32 0x31441BDEE20D4F2B04147C4ADC8CB7987CD9A676C7774DFC5540A7897D0781F8 DUP8 PUSH1 0x40 MLOAD PUSH2 0x526 SWAP2 SWAP1 PUSH2 0xC9D JUMP JUMPDEST PUSH1 0x40 MLOAD DUP1 SWAP2 SUB SWAP1 LOG2 PUSH2 0x61D JUMP JUMPDEST DUP1 DUP4 PUSH1 0x1 ADD PUSH1 0x0 DUP3 DUP3 SLOAD PUSH2 0x547 SWAP2 SWAP1 PUSH2 0xDD0 JUMP JUMPDEST SWAP3 POP POP DUP2 SWAP1 SSTORE POP PUSH32 0xF530F0E99D022872410CA75E21C2D00762D9942D483E385715BE157E8217FE2D DUP7 CALLER DUP4 DUP7 PUSH1 0x0 ADD PUSH1 0x0 SWAP1 SLOAD SWAP1 PUSH2 0x100 EXP SWAP1 DIV PUSH20 0xFFFFFFFFFFFFFFFFFFFFFFFFFFFFFFFFFFFFFFFF AND DUP8 PUSH1 0x1 ADD SLOAD PUSH1 0x40 MLOAD PUSH2 0x5AD SWAP6 SWAP5 SWAP4 SWAP3 SWAP2 SWAP1 PUSH2 0xE98 JUMP JUMPDEST PUSH1 0x40 MLOAD DUP1 SWAP2 SUB SWAP1 LOG1 DUP3 PUSH1 0x0 ADD PUSH1 0x0 SWAP1 SLOAD SWAP1 PUSH2 0x100 EXP SWAP1 DIV PUSH20 0xFFFFFFFFFFFFFFFFFFFFFFFFFFFFFFFFFFFFFFFF AND DUP6 PUSH1 0x8 ADD PUSH1 0x0 PUSH2 0x100 EXP DUP2 SLOAD DUP2 PUSH20 0xFFFFFFFFFFFFFFFFFFFFFFFFFFFFFFFFFFFFFFFF MUL NOT AND SWAP1 DUP4 PUSH20 0xFFFFFFFFFFFFFFFFFFFFFFFFFFFFFFFFFFFFFFFF AND MUL OR SWAP1 SSTORE POP JUMPDEST POP POP POP POP POP POP JUMP JUMPDEST PUSH1 0x0 DUP1 PUSH1 0x0 DUP1 PUSH1 0x0 DUP6 DUP2 MSTORE PUSH1 0x20 ADD SWAP1 DUP2 MSTORE PUSH1 0x20 ADD PUSH1 0x0 KECCAK256 SWAP1 POP DUP1 PUSH1 0x0 ADD PUSH1 0x1 ADD SLOAD DUP2 PUSH1 0x4 ADD PUSH1 0x1 ADD SLOAD SWAP3 POP SWAP3 POP POP SWAP2 POP SWAP2 JUMP JUMPDEST PUSH1 0x1 PUSH1 0x0 DUP2 SLOAD DUP1 SWAP3 SWAP2 SWAP1 PUSH2 0x66B SWAP1 PUSH2 0xEEB JUMP JUMPDEST SWAP2 SWAP1 POP SSTORE POP PUSH1 0x40 MLOAD DUP1 PUSH1 0x80 ADD PUSH1 0x40 MSTORE DUP1 PUSH1 0x40 MLOAD DUP1 PUSH1 0x80 ADD PUSH1 0x40 MSTORE DUP1 CALLER PUSH20 0xFFFFFFFFFFFFFFFFFFFFFFFFFFFFFFFFFFFFFFFF AND DUP2 MSTORE PUSH1 0x20 ADD PUSH1 0x64 DUP2 MSTORE PUSH1 0x20 ADD DUP8 DUP2 MSTORE PUSH1 0x20 ADD DUP7 DUP2 MSTORE POP DUP2 MSTORE PUSH1 0x20 ADD PUSH1 0x40 MLOAD DUP1 PUSH1 0x80 ADD PUSH1 0x40 MSTORE DUP1 DUP9 PUSH20 0xFFFFFFFFFFFFFFFFFFFFFFFFFFFFFFFFFFFFFFFF AND DUP2 MSTORE PUSH1 0x20 ADD PUSH1 0x64 DUP2 MSTORE PUSH1 0x20 ADD DUP6 DUP2 MSTORE PUSH1 0x20 ADD DUP5 DUP2 MSTORE POP DUP2 MSTORE PUSH1 0x20 ADD CALLER PUSH20 0xFFFFFFFFFFFFFFFFFFFFFFFFFFFFFFFFFFFFFFFF AND DUP2 MSTORE PUSH1 0x20 ADD PUSH1 0x1 ISZERO ISZERO DUP2 MSTORE POP PUSH1 0x0 DUP1 PUSH1 0x1 SLOAD DUP2 MSTORE PUSH1 0x20 ADD SWAP1 DUP2 MSTORE PUSH1 0x20 ADD PUSH1 0x0 KECCAK256 PUSH1 0x0 DUP3 ADD MLOAD DUP2 PUSH1 0x0 ADD PUSH1 0x0 DUP3 ADD MLOAD DUP2 PUSH1 0x0 ADD PUSH1 0x0 PUSH2 0x100 EXP DUP2 SLOAD DUP2 PUSH20 0xFFFFFFFFFFFFFFFFFFFFFFFFFFFFFFFFFFFFFFFF MUL NOT AND SWAP1 DUP4 PUSH20 0xFFFFFFFFFFFFFFFFFFFFFFFFFFFFFFFFFFFFFFFF AND MUL OR SWAP1 SSTORE POP PUSH1 0x20 DUP3 ADD MLOAD DUP2 PUSH1 0x1 ADD SSTORE PUSH1 0x40 DUP3 ADD MLOAD DUP2 PUSH1 0x2 ADD SSTORE PUSH1 0x60 DUP3 ADD MLOAD DUP2 PUSH1 0x3 ADD SSTORE POP POP PUSH1 0x20 DUP3 ADD MLOAD DUP2 PUSH1 0x4 ADD PUSH1 0x0 DUP3 ADD MLOAD DUP2 PUSH1 0x0 ADD PUSH1 0x0 PUSH2 0x100 EXP DUP2 SLOAD DUP2 PUSH20 0xFFFFFFFFFFFFFFFFFFFFFFFFFFFFFFFFFFFFFFFF MUL NOT AND SWAP1 DUP4 PUSH20 0xFFFFFFFFFFFFFFFFFFFFFFFFFFFFFFFFFFFFFFFF AND MUL OR SWAP1 SSTORE POP PUSH1 0x20 DUP3 ADD MLOAD DUP2 PUSH1 0x1 ADD SSTORE PUSH1 0x40 DUP3 ADD MLOAD DUP2 PUSH1 0x2 ADD SSTORE PUSH1 0x60 DUP3 ADD MLOAD DUP2 PUSH1 0x3 ADD SSTORE POP POP PUSH1 0x40 DUP3 ADD MLOAD DUP2 PUSH1 0x8 ADD PUSH1 0x0 PUSH2 0x100 EXP DUP2 SLOAD DUP2 PUSH20 0xFFFFFFFFFFFFFFFFFFFFFFFFFFFFFFFFFFFFFFFF MUL NOT AND SWAP1 DUP4 PUSH20 0xFFFFFFFFFFFFFFFFFFFFFFFFFFFFFFFFFFFFFFFF AND MUL OR SWAP1 SSTORE POP PUSH1 0x60 DUP3 ADD MLOAD DUP2 PUSH1 0x8 ADD PUSH1 0x14 PUSH2 0x100 EXP DUP2 SLOAD DUP2 PUSH1 0xFF MUL NOT AND SWAP1 DUP4 ISZERO ISZERO MUL OR SWAP1 SSTORE POP SWAP1 POP POP DUP5 PUSH20 0xFFFFFFFFFFFFFFFFFFFFFFFFFFFFFFFFFFFFFFFF AND CALLER PUSH20 0xFFFFFFFFFFFFFFFFFFFFFFFFFFFFFFFFFFFFFFFF AND PUSH32 0xFEE930D10A180AF369F35C753CBE7758B669FD187447CAE2F147A9156C0757D0 PUSH1 0x1 SLOAD PUSH1 0x40 MLOAD PUSH2 0x8D5 SWAP2 SWAP1 PUSH2 0xC9D JUMP JUMPDEST PUSH1 0x40 MLOAD DUP1 SWAP2 SUB SWAP1 LOG3 POP POP POP POP POP JUMP JUMPDEST PUSH1 0x1 SLOAD DUP2 JUMP JUMPDEST PUSH1 0x0 PUSH2 0x7A69 CHAINID SUB PUSH2 0x928 JUMPI TIMESTAMP PREVRANDAO PUSH1 0x40 MLOAD PUSH1 0x20 ADD PUSH2 0x908 SWAP3 SWAP2 SWAP1 PUSH2 0xF54 JUMP JUMPDEST PUSH1 0x40 MLOAD PUSH1 0x20 DUP2 DUP4 SUB SUB DUP2 MSTORE SWAP1 PUSH1 0x40 MSTORE DUP1 MLOAD SWAP1 PUSH1 0x20 ADD KECCAK256 PUSH1 0x0 SHR SWAP1 POP PUSH2 0xA3C JUMP JUMPDEST PUSH2 0xCE10 PUSH20 0xFFFFFFFFFFFFFFFFFFFFFFFFFFFFFFFFFFFFFFFF AND PUSH4 0xDD927233 PUSH1 0x40 MLOAD PUSH1 0x20 ADD PUSH2 0x955 SWAP1 PUSH2 0xFD7 JUMP JUMPDEST PUSH1 0x40 MLOAD PUSH1 0x20 DUP2 DUP4 SUB SUB DUP2 MSTORE SWAP1 PUSH1 0x40 MSTORE DUP1 MLOAD SWAP1 PUSH1 0x20 ADD KECCAK256 PUSH1 0x40 MLOAD DUP3 PUSH4 0xFFFFFFFF AND PUSH1 0xE0 SHL DUP2 MSTORE PUSH1 0x4 ADD PUSH2 0x987 SWAP2 SWAP1 PUSH2 0x1005 JUMP JUMPDEST PUSH1 0x20 PUSH1 0x40 MLOAD DUP1 DUP4 SUB DUP2 DUP7 GAS STATICCALL ISZERO DUP1 ISZERO PUSH2 0x9A4 JUMPI RETURNDATASIZE PUSH1 0x0 DUP1 RETURNDATACOPY RETURNDATASIZE PUSH1 0x0 REVERT JUMPDEST POP POP POP POP PUSH1 0x40 MLOAD RETURNDATASIZE PUSH1 0x1F NOT PUSH1 0x1F DUP3 ADD AND DUP3 ADD DUP1 PUSH1 0x40 MSTORE POP DUP2 ADD SWAP1 PUSH2 0x9C8 SWAP2 SWAP1 PUSH2 0x1035 JUMP JUMPDEST PUSH20 0xFFFFFFFFFFFFFFFFFFFFFFFFFFFFFFFFFFFFFFFF AND PUSH4 0x5EC01E4D PUSH1 0x40 MLOAD DUP2 PUSH4 0xFFFFFFFF AND PUSH1 0xE0 SHL DUP2 MSTORE PUSH1 0x4 ADD PUSH1 0x20 PUSH1 0x40 MLOAD DUP1 DUP4 SUB DUP2 DUP7 GAS STATICCALL ISZERO DUP1 ISZERO PUSH2 0xA12 JUMPI RETURNDATASIZE PUSH1 0x0 DUP1 RETURNDATACOPY RETURNDATASIZE PUSH1 0x0 REVERT JUMPDEST POP POP POP POP PUSH1 0x40 MLOAD RETURNDATASIZE PUSH1 0x1F NOT PUSH1 0x1F DUP3 ADD AND DUP3 ADD DUP1 PUSH1 0x40 MSTORE POP DUP2 ADD SWAP1 PUSH2 0xA36 SWAP2 SWAP1 PUSH2 0x108E JUMP JUMPDEST PUSH1 0x0 SHR SWAP1 POP JUMPDEST SWAP1 JUMP JUMPDEST PUSH1 0x0 DUP1 REVERT JUMPDEST PUSH1 0x0 DUP2 SWAP1 POP SWAP2 SWAP1 POP JUMP JUMPDEST PUSH2 0xA57 DUP2 PUSH2 0xA44 JUMP JUMPDEST DUP2 EQ PUSH2 0xA62 JUMPI PUSH1 0x0 DUP1 REVERT JUMPDEST POP JUMP JUMPDEST PUSH1 0x0 DUP2 CALLDATALOAD SWAP1 POP PUSH2 0xA74 DUP2 PUSH2 0xA4E JUMP JUMPDEST SWAP3 SWAP2 POP POP JUMP JUMPDEST PUSH1 0x0 PUSH1 0x20 DUP3 DUP5 SUB SLT ISZERO PUSH2 0xA90 JUMPI PUSH2 0xA8F PUSH2 0xA3F JUMP JUMPDEST JUMPDEST PUSH1 0x0 PUSH2 0xA9E DUP5 DUP3 DUP6 ADD PUSH2 0xA65 JUMP JUMPDEST SWAP2 POP POP SWAP3 SWAP2 POP POP JUMP JUMPDEST PUSH1 0x0 PUSH20 0xFFFFFFFFFFFFFFFFFFFFFFFFFFFFFFFFFFFFFFFF DUP3 AND SWAP1 POP SWAP2 SWAP1 POP JUMP JUMPDEST PUSH1 0x0 PUSH2 0xAD2 DUP3 PUSH2 0xAA7 JUMP JUMPDEST SWAP1 POP SWAP2 SWAP1 POP JUMP JUMPDEST PUSH2 0xAE2 DUP2 PUSH2 0xAC7 JUMP JUMPDEST DUP3 MSTORE POP POP JUMP JUMPDEST PUSH2 0xAF1 DUP2 PUSH2 0xA44 JUMP JUMPDEST DUP3 MSTORE POP POP JUMP JUMPDEST PUSH1 0x80 DUP3 ADD PUSH1 0x0 DUP3 ADD MLOAD PUSH2 0xB0D PUSH1 0x0 DUP6 ADD DUP3 PUSH2 0xAD9 JUMP JUMPDEST POP PUSH1 0x20 DUP3 ADD MLOAD PUSH2 0xB20 PUSH1 0x20 DUP6 ADD DUP3 PUSH2 0xAE8 JUMP JUMPDEST POP PUSH1 0x40 DUP3 ADD MLOAD PUSH2 0xB33 PUSH1 0x40 DUP6 ADD DUP3 PUSH2 0xAE8 JUMP JUMPDEST POP PUSH1 0x60 DUP3 ADD MLOAD PUSH2 0xB46 PUSH1 0x60 DUP6 ADD DUP3 PUSH2 0xAE8 JUMP JUMPDEST POP POP POP POP JUMP JUMPDEST PUSH2 0xB55 DUP2 PUSH2 0xAC7 JUMP JUMPDEST DUP3 MSTORE POP POP JUMP JUMPDEST PUSH1 0x0 DUP2 ISZERO ISZERO SWAP1 POP SWAP2 SWAP1 POP JUMP JUMPDEST PUSH2 0xB70 DUP2 PUSH2 0xB5B JUMP JUMPDEST DUP3 MSTORE POP POP JUMP JUMPDEST PUSH1 0x0 PUSH2 0x140 DUP3 ADD SWAP1 POP PUSH2 0xB8C PUSH1 0x0 DUP4 ADD DUP8 PUSH2 0xAF7 JUMP JUMPDEST PUSH2 0xB99 PUSH1 0x80 DUP4 ADD DUP7 PUSH2 0xAF7 JUMP JUMPDEST PUSH2 0xBA7 PUSH2 0x100 DUP4 ADD DUP6 PUSH2 0xB4C JUMP JUMPDEST PUSH2 0xBB5 PUSH2 0x120 DUP4 ADD DUP5 PUSH2 0xB67 JUMP JUMPDEST SWAP6 SWAP5 POP POP POP POP POP JUMP JUMPDEST PUSH2 0xBC7 DUP2 PUSH2 0xA44 JUMP JUMPDEST DUP3 MSTORE POP POP JUMP JUMPDEST PUSH1 0x0 PUSH1 0x40 DUP3 ADD SWAP1 POP PUSH2 0xBE2 PUSH1 0x0 DUP4 ADD DUP6 PUSH2 0xBBE JUMP JUMPDEST PUSH2 0xBEF PUSH1 0x20 DUP4 ADD DUP5 PUSH2 0xBBE JUMP JUMPDEST SWAP4 SWAP3 POP POP POP JUMP JUMPDEST PUSH2 0xBFF DUP2 PUSH2 0xAC7 JUMP JUMPDEST DUP2 EQ PUSH2 0xC0A JUMPI PUSH1 0x0 DUP1 REVERT JUMPDEST POP JUMP JUMPDEST PUSH1 0x0 DUP2 CALLDATALOAD SWAP1 POP PUSH2 0xC1C DUP2 PUSH2 0xBF6 JUMP JUMPDEST SWAP3 SWAP2 POP POP JUMP JUMPDEST PUSH1 0x0 DUP1 PUSH1 0x0 DUP1 PUSH1 0x0 PUSH1 0xA0 DUP7 DUP9 SUB SLT ISZERO PUSH2 0xC3E JUMPI PUSH2 0xC3D PUSH2 0xA3F JUMP JUMPDEST JUMPDEST PUSH1 0x0 PUSH2 0xC4C DUP9 DUP3 DUP10 ADD PUSH2 0xC0D JUMP JUMPDEST SWAP6 POP POP PUSH1 0x20 PUSH2 0xC5D DUP9 DUP3 DUP10 ADD PUSH2 0xA65 JUMP JUMPDEST SWAP5 POP POP PUSH1 0x40 PUSH2 0xC6E DUP9 DUP3 DUP10 ADD PUSH2 0xA65 JUMP JUMPDEST SWAP4 POP POP PUSH1 0x60 PUSH2 0xC7F DUP9 DUP3 DUP10 ADD PUSH2 0xA65 JUMP JUMPDEST SWAP3 POP POP PUSH1 0x80 PUSH2 0xC90 DUP9 DUP3 DUP10 ADD PUSH2 0xA65 JUMP JUMPDEST SWAP2 POP POP SWAP3 SWAP6 POP SWAP3 SWAP6 SWAP1 SWAP4 POP JUMP JUMPDEST PUSH1 0x0 PUSH1 0x20 DUP3 ADD SWAP1 POP PUSH2 0xCB2 PUSH1 0x0 DUP4 ADD DUP5 PUSH2 0xBBE JUMP JUMPDEST SWAP3 SWAP2 POP POP JUMP JUMPDEST PUSH1 0x0 DUP3 DUP3 MSTORE PUSH1 0x20 DUP3 ADD SWAP1 POP SWAP3 SWAP2 POP POP JUMP JUMPDEST PUSH32 0x426174746C652068617320656E6465642E000000000000000000000000000000 PUSH1 0x0 DUP3 ADD MSTORE POP JUMP JUMPDEST PUSH1 0x0 PUSH2 0xCFF PUSH1 0x11 DUP4 PUSH2 0xCB8 JUMP JUMPDEST SWAP2 POP PUSH2 0xD0A DUP3 PUSH2 0xCC9 JUMP JUMPDEST PUSH1 0x20 DUP3 ADD SWAP1 POP SWAP2 SWAP1 POP JUMP JUMPDEST PUSH1 0x0 PUSH1 0x20 DUP3 ADD SWAP1 POP DUP2 DUP2 SUB PUSH1 0x0 DUP4 ADD MSTORE PUSH2 0xD2E DUP2 PUSH2 0xCF2 JUMP JUMPDEST SWAP1 POP SWAP2 SWAP1 POP JUMP JUMPDEST PUSH32 0x4E6F7420796F7572207475726E21000000000000000000000000000000000000 PUSH1 0x0 DUP3 ADD MSTORE POP JUMP JUMPDEST PUSH1 0x0 PUSH2 0xD6B PUSH1 0xE DUP4 PUSH2 0xCB8 JUMP JUMPDEST SWAP2 POP PUSH2 0xD76 DUP3 PUSH2 0xD35 JUMP JUMPDEST PUSH1 0x20 DUP3 ADD SWAP1 POP SWAP2 SWAP1 POP JUMP JUMPDEST PUSH1 0x0 PUSH1 0x20 DUP3 ADD SWAP1 POP DUP2 DUP2 SUB PUSH1 0x0 DUP4 ADD MSTORE PUSH2 0xD9A DUP2 PUSH2 0xD5E JUMP JUMPDEST SWAP1 POP SWAP2 SWAP1 POP JUMP JUMPDEST PUSH32 0x4E487B7100000000000000000000000000000000000000000000000000000000 PUSH1 0x0 MSTORE PUSH1 0x11 PUSH1 0x4 MSTORE PUSH1 0x24 PUSH1 0x0 REVERT JUMPDEST PUSH1 0x0 PUSH2 0xDDB DUP3 PUSH2 0xA44 JUMP JUMPDEST SWAP2 POP PUSH2 0xDE6 DUP4 PUSH2 0xA44 JUMP JUMPDEST SWAP3 POP DUP3 DUP3 SUB SWAP1 POP DUP2 DUP2 GT ISZERO PUSH2 0xDFE JUMPI PUSH2 0xDFD PUSH2 0xDA1 JUMP JUMPDEST JUMPDEST SWAP3 SWAP2 POP POP JUMP JUMPDEST PUSH1 0x0 PUSH2 0xE0F DUP3 PUSH2 0xA44 JUMP JUMPDEST SWAP2 POP PUSH2 0xE1A DUP4 PUSH2 0xA44 JUMP JUMPDEST SWAP3 POP DUP3 DUP3 ADD SWAP1 POP DUP1 DUP3 GT ISZERO PUSH2 0xE32 JUMPI PUSH2 0xE31 PUSH2 0xDA1 JUMP JUMPDEST JUMPDEST SWAP3 SWAP2 POP POP JUMP JUMPDEST PUSH32 0x4E487B7100000000000000000000000000000000000000000000000000000000 PUSH1 0x0 MSTORE PUSH1 0x12 PUSH1 0x4 MSTORE PUSH1 0x24 PUSH1 0x0 REVERT JUMPDEST PUSH1 0x0 PUSH2 0xE72 DUP3 PUSH2 0xA44 JUMP JUMPDEST SWAP2 POP PUSH2 0xE7D DUP4 PUSH2 0xA44 JUMP JUMPDEST SWAP3 POP DUP3 PUSH2 0xE8D JUMPI PUSH2 0xE8C PUSH2 0xE38 JUMP JUMPDEST JUMPDEST DUP3 DUP3 MOD SWAP1 POP SWAP3 SWAP2 POP POP JUMP JUMPDEST PUSH1 0x0 PUSH1 0xA0 DUP3 ADD SWAP1 POP PUSH2 0xEAD PUSH1 0x0 DUP4 ADD DUP9 PUSH2 0xBBE JUMP JUMPDEST PUSH2 0xEBA PUSH1 0x20 DUP4 ADD DUP8 PUSH2 0xB4C JUMP JUMPDEST PUSH2 0xEC7 PUSH1 0x40 DUP4 ADD DUP7 PUSH2 0xBBE JUMP JUMPDEST PUSH2 0xED4 PUSH1 0x60 DUP4 ADD DUP6 PUSH2 0xB4C JUMP JUMPDEST PUSH2 0xEE1 PUSH1 0x80 DUP4 ADD DUP5 PUSH2 0xBBE JUMP JUMPDEST SWAP7 SWAP6 POP POP POP POP POP POP JUMP JUMPDEST PUSH1 0x0 PUSH2 0xEF6 DUP3 PUSH2 0xA44 JUMP JUMPDEST SWAP2 POP PUSH32 0xFFFFFFFFFFFFFFFFFFFFFFFFFFFFFFFFFFFFFFFFFFFFFFFFFFFFFFFFFFFFFFFF DUP3 SUB PUSH2 0xF28 JUMPI PUSH2 0xF27 PUSH2 0xDA1 JUMP JUMPDEST JUMPDEST PUSH1 0x1 DUP3 ADD SWAP1 POP SWAP2 SWAP1 POP JUMP JUMPDEST PUSH1 0x0 DUP2 SWAP1 POP SWAP2 SWAP1 POP JUMP JUMPDEST PUSH2 0xF4E PUSH2 0xF49 DUP3 PUSH2 0xA44 JUMP JUMPDEST PUSH2 0xF33 JUMP JUMPDEST DUP3 MSTORE POP POP JUMP JUMPDEST PUSH1 0x0 PUSH2 0xF60 DUP3 DUP6 PUSH2 0xF3D JUMP JUMPDEST PUSH1 0x20 DUP3 ADD SWAP2 POP PUSH2 0xF70 DUP3 DUP5 PUSH2 0xF3D JUMP JUMPDEST PUSH1 0x20 DUP3 ADD SWAP2 POP DUP2 SWAP1 POP SWAP4 SWAP3 POP POP POP JUMP JUMPDEST PUSH1 0x0 DUP2 SWAP1 POP SWAP3 SWAP2 POP POP JUMP JUMPDEST PUSH32 0x52616E646F6D0000000000000000000000000000000000000000000000000000 PUSH1 0x0 DUP3 ADD MSTORE POP JUMP JUMPDEST PUSH1 0x0 PUSH2 0xFC1 PUSH1 0x6 DUP4 PUSH2 0xF80 JUMP JUMPDEST SWAP2 POP PUSH2 0xFCC DUP3 PUSH2 0xF8B JUMP JUMPDEST PUSH1 0x6 DUP3 ADD SWAP1 POP SWAP2 SWAP1 POP JUMP JUMPDEST PUSH1 0x0 PUSH2 0xFE2 DUP3 PUSH2 0xFB4 JUMP JUMPDEST SWAP2 POP DUP2 SWAP1 POP SWAP2 SWAP1 POP JUMP JUMPDEST PUSH1 0x0 DUP2 SWAP1 POP SWAP2 SWAP1 POP JUMP JUMPDEST PUSH2 0xFFF DUP2 PUSH2 0xFEC JUMP JUMPDEST DUP3 MSTORE POP POP JUMP JUMPDEST PUSH1 0x0 PUSH1 0x20 DUP3 ADD SWAP1 POP PUSH2 0x101A PUSH1 0x0 DUP4 ADD DUP5 PUSH2 0xFF6 JUMP JUMPDEST SWAP3 SWAP2 POP POP JUMP JUMPDEST PUSH1 0x0 DUP2 MLOAD SWAP1 POP PUSH2 0x102F DUP2 PUSH2 0xBF6 JUMP JUMPDEST SWAP3 SWAP2 POP POP JUMP JUMPDEST PUSH1 0x0 PUSH1 0x20 DUP3 DUP5 SUB SLT ISZERO PUSH2 0x104B JUMPI PUSH2 0x104A PUSH2 0xA3F JUMP JUMPDEST JUMPDEST PUSH1 0x0 PUSH2 0x1059 DUP5 DUP3 DUP6 ADD PUSH2 0x1020 JUMP JUMPDEST SWAP2 POP POP SWAP3 SWAP2 POP POP JUMP JUMPDEST PUSH2 0x106B DUP2 PUSH2 0xFEC JUMP JUMPDEST DUP2 EQ PUSH2 0x1076 JUMPI PUSH1 0x0 DUP1 REVERT JUMPDEST POP JUMP JUMPDEST PUSH1 0x0 DUP2 MLOAD SWAP1 POP PUSH2 0x1088 DUP2 PUSH2 0x1062 JUMP JUMPDEST SWAP3 SWAP2 POP POP JUMP JUMPDEST PUSH1 0x0 PUSH1 0x20 DUP3 DUP5 SUB SLT ISZERO PUSH2 0x10A4 JUMPI PUSH2 0x10A3 PUSH2 0xA3F JUMP JUMPDEST JUMPDEST PUSH1 0x0 PUSH2 0x10B2 DUP5 DUP3 DUP6 ADD PUSH2 0x1079 JUMP JUMPDEST SWAP2 POP POP SWAP3 SWAP2 POP POP JUMP INVALID LOG2 PUSH5 0x6970667358 0x22 SLT KECCAK256 PUSH2 0x57AB SWAP8 DIV 0xA8 PUSH31 0x9E6D8B06DA5F42D8C6F7EE79608314D46D317F4F039D67044E64736F6C6343 STOP ADDMOD XOR STOP CALLER "
        },
        "methodIdentifiers": {
          "attack(uint256)": "64dd891a",
          "battleCounter()": "a9b9be3f",
          "battles(uint256)": "606d2e96",
          "getHP(uint256)": "87d187ee",
          "startBattle(address,uint256,uint256,uint256,uint256)": "a8d9f1aa"
        }
      }
    }
  }
}